:020000040800F2
:10000000A0040020D5010008852E00081127000853
:10001000812E000811040008DD6F000800000000B8
:1000200000000000000000000000000081650008E2
:100030001504000800000000312F0008C966000800
:10004000EF010008EF01000875670008EF010008E4
:10005000EF010008EF010008EF010008EF010008C0
:10006000EF010008EF010008EF010008EF010008B0
:10007000EF010008EF010008EF010008EF010008A0
:10008000EF010008EF010008EF010008EF01000890
:10009000EF010008EF010008EF010008EF01000880
:1000A000EF010008EF010008EF010008EF01000870
:1000B000EF010008EF010008EF010008EF01000860
:1000C000EF010008EF010008EF010008EF01000850
:1000D000EF010008EF010008EF010008EF01000840
:1000E000EF010008EF01000839320008EF010008B5
:1000F000EF010008EF010008EF010008EF01000820
:10010000EF010008EF0100085D540008EF0100084E
:10011000EF010008EF010008EF010008EF010008FF
:10012000EF010008EF010008EF010008EF010008EF
:10013000EF010008EF01000800F002F800F03AF8C3
:100140000AA090E8000C82448344AAF10107DA4532
:1001500001D100F02FF8AFF2090EBAE80F0013F04A
:10016000010F18BFFB1A43F001031847507200003B
:1001700080720000103A24BF78C878C1FAD85207BC
:1001800024BF30C830C144BF04680C607047000011
:100190000023002400250026103A28BF78C1FBD890
:1001A000520728BF30C148BF0B6070471FB51FBD45
:1001B00010B510BD00F0F2F81146FFF7F7FF06F09A
:1001C00069FF00F010F903B4FFF7F2FF03BC00F081
:1001D00017F900000948804709480047FEE7FEE795
:1001E000FEE7FEE7FEE7FEE7FEE7FEE7FEE7FEE7E7
:1001F00004480549054A064B70470000716700082E
:100200003901000898820020A00400209884002072
:10021000A000002053EA020C00F069802DE9F04BA9
:100220004FF00006002B1FBFB3FA83F503FA05F465
:1002300024FA05F65E4012BF1643B2FA82F502FABE
:1002400005F4C5F120051EBF22FA05FC44EA0C04A2
:10025000203556EA044C4FEA144418BF641C4FF092
:1002600000084FF00009904271EB030C39D30029CC
:1002700019BFB1FA81F701FA07F6B0FA80F700FA70
:1002800007F6C7F120071EBF20FA07FC46EA0C0656
:100290002037B6FBF4FCA7EB0507103F07F01F0B58
:1002A000CBF120062CFA06F60CFA0BFB44BFB34642
:1002B0000026202FA4BF5E464FF0000B5BEA060C21
:1002C00008BF4FF0010B19EB0B0948EB0608ABFB1D
:1002D000027C06FB02CC0BFB03CCC01B71EB0C01B8
:1002E000C1E70B46024641464846BDE8F08B13B5D0
:1002F000084318BF4FF0FF300146AFF30080BDE860
:100300001C4070474FF000020429C0F0128010F02A
:10031000030C00F01B80CCF1040CBCF1020F18BFE1
:1003200000F8012BA8BF20F8022BA1EB0C0100F074
:100330000DB85FEAC17C24BF00F8012B00F8012B47
:1003400048BF00F8012B70474FF0000200B513467C
:1003500094469646203922BFA0E80C50A0E80C50E5
:10036000B1F12001BFF4F7AF090728BFA0E80C5096
:1003700048BF0CC05DF804EB890028BF40F8042B8F
:1003800008BF704748BF20F8022B11F0804F18BFFC
:1003900000F8012B7047704770477047754600F0B2
:1003A0002BF8AE4605006946534620F00700854607
:1003B00018B020B5FFF71CFFBDE820404FF0000645
:1003C0004FF000074FF000084FF0000BAC46ACE8D0
:1003D000C009ACE8C009ACE8C009ACE8C00921F02C
:1003E00007018D46704710B50446AFF300802046E4
:1003F000BDE81040FFF7E7BE0048704700800020CE
:1004000001491820ABBEFEE726000200704700003D
:10041000FFE7FEE77047000080B542F60000C4F237
:10042000000002F011FDC04380BD000080B582B025
:100430000190019806F0DEF902B080BD87B0069009
:10044000059100200490FFE7059800680499C840D2
:10045000002800F07381FFE70598006804990122E5
:1004600002FA01F1084003900398002800F062812D
:10047000FFE70598406801280FD0FFE7059840681E
:1004800002280AD0FFE705984068112805D0FFE749
:100490000598406812282FD1FFE7069880680290DF
:1004A00004984000032101FA00F0029921EA0000BB
:1004B00002900598C0680499490088400299084351
:1004C0000290029806998860069840680290049805
:1004D000012101FA00F0029921EA0000029005983A
:1004E0004068C0F3001004998840029908430290C4
:1004F000029806994860FFE70698C0680290049841
:100500004000032101FA00F0029921EA0000029064
:100510000598806804994900884002990843029030
:1005200002980699C86005984068022805D0FFE740
:1005300005984068122826D1FFE7069804996FF0C5
:10054000030202EA51010844006A0290049800F094
:10055000070080000F2101FA00F0029921EA000053
:10056000029005980069049901F00701890088400C
:1005700002990843029002980699049B02EA5302EA
:1005800011440862FFE70698006802900498400052
:10059000032101FA00F0029921EA00000290059877
:1005A000406800F00300049949008840029908431C
:1005B00002900298069908600598C079C006002844
:1005C00040F1B780FFE7049820F003000821C4F24F
:1005D000010140580290049800F0030080000721B8
:1005E00001FA00F0029921EA000002900698B0F1A9
:1005F000904F03D1FFE70020019018E0069840F2E9
:100600000041C4F60001884203D1FFE701200090B9
:100610000AE0069840F60001C4F60001072288426D
:1006200008BF02220092FFE700980190FFE70198BF
:10063000049901F00301890088400299084302905F
:100640000298049921F003010822C4F201028850A3
:1006500040F68000C5F600000068029003980299F9
:1006600021EA0000029005988079C007002805D093
:10067000FFE70398029908430290FFE7029840F6CB
:100680008001C5F60001086040F68400C5F6000050
:10069000006802900398029921EA000002900598F0
:1006A00080798007002805D5FFE703980299084361
:1006B0000290FFE7029840F68401C5F60001086049
:1006C00040F60000C5F60000006802900398029909
:1006D00021EA0000029005988079C006002805D51F
:1006E000FFE70398029908430290FFE7029840F65B
:1006F0000001C5F60001086040F60400C5F60000E0
:10070000006802900398029921EA0000029005987F
:1007100080798006002805D5FFE7039802990843F1
:100720000290FFE7029840F60401C5F60001086058
:10073000FFE7FFE704980130049085E607B07047B3
:1007400083B00B460290ADF8061000920098002886
:1007500005D0FFE7BDF806000299886104E0BDF806
:10076000060002998862FFE703B0704780B506F083
:100770006BF880BD40F20800C2F20000006848F249
:100780009021C2F200010A6810440860704700001E
:1007900080B582B000200190032000F041F800F005
:1007A000EFFA40F20401C2F2000108600F2000F0ED
:1007B0000DF8002803D0FFE70120019002E000F0CF
:1007C0000BF8FFE7019802B080BD000081B00090F7
:1007D000002001B0704700007047000080B582B073
:1007E0000190019806F0FCFB02B080BD80B586B098
:1007F00005900491039206F009FC02900598029975
:10080000049A039B0190084611461A4602F03CFBED
:10081000019900900846009906F000FC06B080BDE2
:1008200080B582B00190019806F016FC02B080BD40
:1008300040F20040C5F60000006800F4C060704758
:1008400040F20040C5F60000016841F4807101608B
:100850007047000080B586B005900020049002909B
:10086000019005988078C007002865D0FFE7FFF762
:10087000E7FFFFF77BFF0390FFE740F20040C5F67C
:100880000000006800F48070B0F5807F0BD0FFE7B7
:10089000FFF76CFF0399401A032803D3FFE70320F7
:1008A000029000E0E9E70298002841D1FFE702F05A
:1008B000D3F80599496B884210D0FFE79020C5F620
:1008C0000000016821F440710491009002F0AAF840
:1008D00002F0F0F9049800990860FFE79DF8100015
:1008E0008007002817D5FFE7FFF740FF0390FFE7D9
:1008F00002F04AF901280DD0FFE7FFF737FF03990F
:10090000401A41F28931884203D3FFE70320029065
:1009100000E0EDE7FFE70298002805D1FFE7059822
:10092000406B02F067FA02E002980190FFE702E0F4
:1009300002980190FFE7FFE705980078C0070028BC
:1009400005D0FFE70598406802F070FAFFE70598C8
:1009500000788007002805D5FFE70598806802F039
:1009600065FAFFE7059800788006002805D5FFE7BF
:100970000598006902F022FAFFE7059840788007A1
:10098000002805D5FFE70598006A02F005FAFFE7A1
:10099000059840784007002805D5FFE70598406A8C
:1009A00002F0FAF9FFE7059840780007002805D51E
:1009B000FFE70598806A02F0EFF9FFE705980078F5
:1009C0004006002805D5FFE70598406902F0C2F906
:1009D000FFE7059800780006002805D5FFE7059891
:1009E000806902F0B7F9FFE705984078C007002852
:1009F00005D0FFE70598C06902F0ACF9FFE705985C
:100A00000078C006002813D5FFE70598C06802F0FB
:100A1000B5F90598C068B0F5807F08D1FFE70C20D4
:100A2000C5F60000016841F080710160FFE7FFE753
:100A3000059840780006002812D5FFE70598006B5E
:100A400002F0CAF90598006B002808D1FFE70C20D6
:100A5000C5F60000016841F080710160FFE7FFE723
:100A6000059840784006002813D5FFE70598C06A2E
:100A700002F028F90598C06AB0F1005F08D1FFE7DD
:100A80000C20C5F60000016841F480310160FFE7E9
:100A9000FFE7019806B080BD80B584B00290019157
:100AA0000298002803D1FFE70120039064E1019838
:100AB00044F20001C5F60001096801F0070188420F
:100AC00025D9FFE744F20000C5F60000016821F0D7
:100AD0000701019A11430160FFF748FE0090FFE70C
:100AE00044F20000C5F60000006800F0070001991C
:100AF00088420BD0FFE7FFF739FE0099401A032820
:100B000003D3FFE70320039036E1E9E7FFE702980C
:100B100000788007002819D5FFE70298806802F066
:100B2000EFF8FFF723FE0090FFE701F0FDFF00283C
:100B30000BD1FFE7FFF71AFE0099401A032803D3F1
:100B4000FFE70320039017E1EFE7FFE70298007843
:100B50008006002819D5FFE70298406901F0FEFEE3
:100B6000FFF704FE0090FFE701F0D6FF00280BD14D
:100B7000FFE7FFF7FBFD0099401A032803D3FFE7C7
:100B800003200390F8E0EFE7FFE7029800784006C3
:100B9000002819D5FFE70298806902F0A1F8FFF755
:100BA000E5FD0090FFE701F0D7FF00280BD1FFE73C
:100BB000FFF7DCFD0099401A032803D3FFE7032069
:100BC0000390D9E0EFE7FFE702980078400700289C
:100BD00019D5FFE70298C06802F0A0F8FFF7C6FD3C
:100BE0000090FFE701F0A8FF00280BD1FFE7FFF717
:100BF000BDFD0099401A032803D3FFE703200390AB
:100C0000BAE0EFE7FFE702980078000700281AD55E
:100C1000FFE702980069C00002F08EF8FFF7A6FD1A
:100C20000090FFE701F090FF00280BD1FFE7FFF7EE
:100C30009DFD0099401A032803D3FFE7032003908A
:100C40009AE0EFE7FFE702980078C007002853D04A
:100C5000FFE702984068022809D1FFE701F032FF60
:100C6000002803D1FFE70120039085E026E00298E9
:100C70004068032809D1FFE702F00EF8002803D1ED
:100C8000FFE70120039077E017E002984068002812
:100C900009D1FFE701F0BCFF002803D1FFE70120E5
:100CA000039069E008E001F023FF002803D1FFE78B
:100CB0000120039060E0FFE7FFE7FFE7029840684C
:100CC00002F0A6F8FFF752FD0090FFE701F0CCFE1E
:100CD00002994968B0EB810F0DD0FFE7FFF746FDA1
:100CE0000099401A41F28931884203D3FFE703207B
:100CF000039041E0EAE7FFE7019844F20001C5F6FE
:100D00000001096801F00701884225D2FFE744F29B
:100D10000000C5F60000016821F00701019A1143A7
:100D20000160FFF723FD0090FFE744F20000C5F6E5
:100D30000000006800F00700019988420BD0FFE72F
:100D4000FFF714FD0099401A032803D3FFE703209F
:100D5000039011E0E9E7FFE700F012F840F2040128
:100D6000C2F20001086040F20C00C2F2000000680C
:100D7000FFF72CFD0390FFE7039804B080BD00004F
:100D800080B582B000F010F8019001F05DFE00F037
:100D9000F000800847F2D811C0F600010858019908
:100DA000B1FBF0F002B080BD80B58EB000200B909A
:100DB0000A9001F059FE0D9001F056FF0C900D982D
:100DC000002808D0FFE70D980C2843D1FFE70C98C6
:100DD00001283FD1FFE701F015FF002818D1FFE7F8
:100DE00001F010FF012804D1FFE701F0FDFE08909B
:100DF00003E001F0FFFE0890FFE7089800F4706040
:100E0000800947F2D421C0F600010858079017E086
:100E100001F0F8FE012804D1FFE701F0E5FE06909D
:100E200003E001F0E7FE0690FFE7069800F0F0000F
:100E3000800847F2D421C0F6000108580790FFE768
:100E400007980A900D98002803D1FFE70A980B90A5
:100E5000FFE722E00D98042806D1FFE742F20040A8
:100E6000C0F2F4000B9017E00D98082812D1FFE7AC
:100E700001F022FE012806D1FFE742F20040C0F255
:100E8000F4000B9005E044F60000C0F2E8100B906F
:100E9000FFE700E0FFE7FFE7FFE701F0E5FD0C28D3
:100EA00047D1FFE701F0E0FE0C900C980128059077
:100EB00020D0FFE70598022804D0FFE70598032813
:100EC00006D018E042F20040C0F2F400099015E0AC
:100ED00001F0F2FD012806D1FFE742F20040C0F226
:100EE000F400099005E044F60000C0F2E810099013
:100EF000FFE703E0FFE70A980990FFE709980490ED
:100F000001F0BAFE04994843039001F0A5FE0121C7
:100F100001EB1010039AB2FBF0F00291019001F086
:100F2000B3FE029901EB5070019AB2FBF0F00B9006
:100F3000FFE70B980EB080BD10B58AB008900898F6
:100F4000002803D1FFE701200990D3E301F08CFDD5
:100F5000069001F089FE0590089800788006002828
:100F600040F1D780FFE7069800280AD0FFE70698EF
:100F70000C2840F08680FFE70598012840F081802A
:100F8000FFE701F045FE002808D0FFE70898006A57
:100F9000002803D1FFE701200990ABE30898806A9D
:100FA0004FF0B041096809070029029007D5FFE713
:100FB0004FF0B040006800F0F000019008E094208D
:100FC000C5F60000006800F4706000090190FFE7BA
:100FD0000198029981421ED9FFE70898806A02F0C1
:100FE000F9F8002803D0FFE70120099082E3FFE72A
:100FF0004FF0B040016841F008010160016821F044
:10100000F001089A926A11430160FFE70898406A6C
:1010100001F004FE1DE0FFE74FF0B040016841F031
:1010200008010160016821F0F001089A926A1143F9
:101030000160FFE70898406A01F0F0FD0898806AB7
:1010400002F0C8F8002803D0FFE70120099051E31F
:10105000FFE7FFF795FE40F20401C2F200010860CD
:1010600040F20C00C2F200000068FFF7AFFB0490F2
:101070000498002803D0FFE7049809903AE3FFE7BB
:1010800046E00898006A00282AD0FFE701F0A4FD96
:10109000FFF76CFB0790FFE701F0BAFD00280BD1CA
:1010A000FFE7FFF763FB0799401A032803D3FFE725
:1010B000032009901EE3EFE7FFE74FF0B04001681F
:1010C00041F008010160016821F0F001089A926A7C
:1010D00011430160FFE70898406A01F09FFD16E0A8
:1010E00001F072FDFFF742FB0790FFE701F090FD72
:1010F00000280BD0FFE7FFF739FB0799401A0328B8
:1011000003D3FFE703200990F4E2EFE7FFE7FFE7EF
:10111000FFE708980078C007002870D0FFE706981E
:10112000082808D0FFE706980C2812D1FFE7059899
:1011300003280ED1FFE701F0C5FC002808D0FFE727
:1011400008984068002803D1FFE701200990D1E208
:1011500054E04FF0B040016821F48011089A926881
:1011600011430160FFE708984068B0F5803F03D164
:10117000FFE701F091FC10E008984068B0F5041F0B
:1011800005D1FFE701F090FC01F086FC04E001F0DE
:1011900073FC01F079FCFFE7FFE7FFE70898406880
:1011A000002815D0FFE7FFF7E1FA0790FFE701F00D
:1011B00089FC00280BD1FFE7FFF7D8FA0799401AFE
:1011C000652803D3FFE70320099093E2EFE714E0DB
:1011D000FFF7CCFA0790FFE701F074FC00280BD072
:1011E000FFE7FFF7C3FA0799401A652803D3FFE723
:1011F000032009907EE2EFE7FFE7FFE7FFE70898AB
:1012000000788007002858D5FFE70698042808D002
:10121000FFE706980C2817D1FFE70598022813D19D
:10122000FFE701F065FC002808D0FFE70898006997
:10123000002803D1FFE7012009905BE2089840698C
:1012400001F05CFCFFE737E00898006900281BD03C
:10125000FFE701F045FCFFF789FA0790FFE701F08F
:1012600047FC00280BD1FFE7FFF780FA0799401AE7
:10127000032803D3FFE7032009903BE2EFE7089838
:10128000406901F03BFC16E001F022FCFFF76EFA2A
:101290000790FFE701F02CFC00280BD0FFE7FFF7D9
:1012A00065FA0799401A032803D3FFE70320099042
:1012B00020E2EFE7FFE7FFE7FFE708980078000785
:1012C000002878D5FFE70898806900285BD0FFE701
:1012D0009420C5F60000006803900898C06903993F
:1012E00001F01001884237D0FFE79DF80C0080071D
:1012F000002809D5FFE79DF80C00C007002803D19E
:10130000FFE701200990F5E19DF80C00C0070028D7
:1013100017D0FFE701F040FCFFF728FA0790FFE73E
:1013200001F04AFC00280BD0FFE7FFF71FFA0799EE
:10133000401A122803D3FFE703200990DAE1EFE710
:10134000FFE79420C5F60000016821F01001089A1B
:10135000D26911430160FFE701F026FCFFF706FAAE
:101360000790FFE701F028FC00280BD1FFE7FFF70B
:10137000FDF90799401A122803D3FFE703200990CB
:10138000B8E1EFE716E001F007FCFFF7EFF907908F
:10139000FFE701F011FC00280BD0FFE7FFF7E6F9AB
:1013A0000799401A122803D3FFE703200990A1E10F
:1013B000EFE7FFE7FFE7089800784007002840F1D3
:1013C000DD80FFE701F0FCFA002817D1FFE7FFF707
:1013D00037FAFFF7CBF90790FFE701F0F1FA0028A1
:1013E0000BD1FFE7FFF7C2F90799401A032803D38F
:1013F000FFE7032009907DE1EFE7FFE70898C06869
:1014000000287CD0FFE70898C068852805D0FFE752
:101410000898C068052808D1FFE79020C5F60000AD
:10142000016841F004010160FFE7FFF79FF90790B1
:101430009020C5F60000016841F001010160FFE75E
:1014400001F09AFB00280DD1FFE7FFF78FF907990C
:10145000401A41F28931884203D3FFE70320099003
:1014600048E1EDE70898C068812805D0FFE70898B3
:10147000C068852821D1FFE7FFF778F90790902011
:10148000C5F60000016841F080010160FFE790208F
:10149000C5F600000068000500280DD4FFE7FFF73F
:1014A00065F90799401A41F28931884203D3FFE771
:1014B000032009901EE1EAE720E0FFF757F90790C3
:1014C0009020C5F60000016821F080010160FFE76F
:1014D0009020C5F600000068000500280DD5FFE744
:1014E000FFF744F90799401A41F28931884203D342
:1014F000FFE703200990FDE0EAE7FFE73DE0FFF7A3
:1015000035F907909020C5F60000016821F08001B0
:101510000160FFE79020C5F6000000680005002884
:101520000DD5FFE7FFF722F90799401A41F28931FB
:10153000884203D3FFE703200990DBE0EAE7FFF7E7
:1015400015F907909020C5F60000016821F001010F
:101550000160FFE701F010FB00280DD0FFE7FFF767
:1015600005F90799401A41F28931884203D3FFE710
:1015700003200990BEE0EDE7FFE7FFE70898C06AA7
:10158000002800F0B480FFE706980C287BD0FFE726
:101590000898C06A022850D1FFE701F04DFBFFF721
:1015A000E5F80790FFE701F077FB00280BD0FFE795
:1015B000FFF7DCF80799401A0B2803D3FFE7032055
:1015C000099097E0EFE70C20C5F60000016848F2AB
:1015D0008C02C1F2C1121140089A136BD2F834C0C8
:1015E000D2F838E0D46B43EA0C0343EA0E232343DA
:1015F000D2F840C043EA0C03526C1A431143016015
:10160000009001F021FB0098016841F080510160D9
:10161000FFF7ACF80790FFE701F03EFB00280BD185
:10162000FFE7FFF7A3F80799401A0B2803D3FFE75A
:10163000032009905EE0EFE724E001F0FDFA0C20C2
:10164000C5F60000016821F00301016001684FF652
:10165000FF72CEF6FE6211400160FFF787F8079037
:10166000FFE701F019FB00280BD0FFE7FFF77EF83A
:101670000799401A0B2803D3FFE70320099039E0AC
:10168000EFE7FFE732E00898C06A012803D1FFE7DF
:10169000012009902EE00C20C5F60000006805909E
:1016A000059800F003000899096B884219D1FFE7FB
:1016B000059800F070000899496B884211D1FFE746
:1016C000059800F4FE400899896BB0EB012F08D112
:1016D000FFE7059800F060400899496C884203D004
:1016E000FFE70120099005E0FFE7FFE7FFE70020A3
:1016F0000990FFE709980AB010BD000081B0009082
:1017000001B0704783B0029001914BF20010C4F217
:10171000000000900198009901EB80000090009873
:10172000006803B07047000084B0039002910192FA
:101730004BF20010C4F2000000900298009901EBF7
:101740008000009001980099086004B07047000084
:1017500082B00090FFE70098C06A012803D1FFE73C
:10176000022001902CE000980121C162FFE7FFE711
:10177000009802210163FFE742F62400C4F2000052
:10178000CA21016053210160FFE742F61800C4F24C
:101790000000016841F020010160FFE742F62400EB
:1017A000C4F20000FF210160FFE7009801210163FE
:1017B000FFE700980021C162FFE700200190FFE7EA
:1017C000019802B07047000080B582B0019004F02B
:1017D000D9FF00900098013004F0E2FF02B080BD14
:1017E00080B582B0019042F65400C4F20000006857
:1017F000400600280AD5FFE742F65C00C4F200006C
:10180000402101600198FFF7DFFFFFE70198012108
:10181000016302B080BD000082B00090FFE7009835
:10182000C06A012803D1FFE70220019034E000984C
:101830000121C162FFE7FFE7009802210163FFE792
:1018400042F62400C4F20000CA2101605321016065
:10185000FFE742F61800C4F20000016841F0800181
:10186000016040F68000C5F60000016841F4802167
:101870000160FFE742F62400C4F20000FF2101608E
:10188000FFE7009801210163FFE700980021C16292
:10189000FFE700200190FFE7019802B070470000C9
:1018A00080B582B0019005F0A7F902B080BD0000BC
:1018B00080B582B0019042F65400C4F20000006886
:1018C0000199496B084000909DF80000C00700286E
:1018D0000AD0FFE742F65C00C4F20000012101607B
:1018E0000198FFF7DDFFFFE79DF800008007002863
:1018F0000AD5FFE742F65C00C4F200000221016055
:101900000198FFF7FBFEFFE701980121016302B098
:1019100080BD000083B001900091FFE70198C06A8C
:10192000012803D1FFE70220029055E00198012130
:10193000C162FFE7FFE7019802210163FFE742F67A
:101940002400C4F20000CA21016053210160FFE7B6
:101950000098B0F5807F16D1FFE742F64400C4F24C
:101960000000016821F00041016042F61800C4F255
:101970000000016821F4885101600198416B21F059
:101980000101416315E042F64C00C4F20000016819
:1019900021F00041016042F61800C4F20000016825
:1019A00021F4085101600198416B21F0020141636B
:1019B000FFE7FFE742F62400C4F20000FF210160C8
:1019C000FFE7019801210163FFE701980021C1624F
:1019D000FFE700200290FFE7029803B07047000085
:1019E00080B582B00190012000900198002878D045
:1019F000FFE70198006B002807D1FFE7019800215D
:101A0000C162019800F070F8FFE7019802210163BC
:101A1000FFE742F62400C4F20000CA21016053210E
:101A20000160FFE7019801F031FC00900098002868
:101A300046D1FFE742F61800C4F2000001684FF6F5
:101A4000BF72CFF68F321140016001994A680B696D
:101A500089691A4311430268114301600198816842
:101A6000C06840EA014042F61001C4F2000108607B
:101A700042F60C00C4F20000016821F4F851019A0A
:101A8000536A926A1A4311430160019801F040FCC5
:101A900000900098002812D1FFE742F61800C4F227
:101AA0000000016821F06041019A5369D2F81CC01E
:101AB000126A42EA0C021A4311430160FFE7FFE792
:101AC000FFE742F62400C4F20000FF210160FFE7B7
:101AD0000098002804D1FFE7019801210163FFE786
:101AE000FFE7009802B080BD80B594B0129004A8C2
:101AF0003821FEF729FC1298006842F60001C4F272
:101B0000000188422DD1FFE74FF4803004904FF45C
:101B10000070119004A8FEF79DFE002807D0FFE793
:101B2000FFE7EFF3108072B61390FFE7FEE700F0D7
:101B300071FF4FF4806000F0F1FE0220002103905D
:101B40000291029AFEF752FE0398FEF747FE2A2002
:101B500001900299029AFEF749FE0198FEF73EFEB7
:101B6000FFE714B080BD000080B58AB008900791EF
:101B7000069200200590FFE70898C06A012803D16B
:101B8000FFE70220099027E108980121C162FFE7E1
:101B9000FFE708980221016342F60C00C4F200003E
:101BA000006800F4407004900498B0F5807F68D01D
:101BB000FFE7069800283FD1FFE742F61800C4F27D
:101BC000000000684006002801D5FFE703E0079801
:101BD0000021C170FFE70798006A002801D1FFE7E4
:101BE00000E0FFE70798007801F02EFB000407995A
:101BF00049780390084601F027FB039941EA002049
:101C0000079989780290084601F01EFB0299084462
:101C10000799CA7891F8241040EA8250019008464A
:101C200001F012FB019941EA006007994A69096ACB
:101C300008431043059023E042F61800C4F2000068
:101C400000684006002801D5FFE703E0079800215F
:101C5000C170FFE7079801784278837890F803C055
:101C6000090441EA0221194441EA8C5190F82420E8
:101C700041EA0261026A1143406908430590FFE7A7
:101C8000FFE7FFE742F62400C4F20000CA2101602A
:101C900053210160FFE70798806AB0F5807F40D14B
:101CA000FFE742F61800C4F20000016821F48851F1
:101CB000016042F65C00C4F200000121016004985A
:101CC000B0F5807F0AD1FFE707988169C0690843B2
:101CD00042F64401C4F2000108600DE0059842F6A6
:101CE0004001C4F2000108600798806942F644018F
:101CF000C4F200010860FFE70798406842F67001EF
:101D0000C4F2000108600898416B41F00101416391
:101D100042F61800C4F20000016841F488510160E5
:101D20003FE042F61800C4F20000016821F40851B7
:101D3000016042F65C00C4F20000022101600498D8
:101D4000B0F5807F0AD1FFE707988169C069084331
:101D500042F64C01C4F2000108600DE0059842F61D
:101D60004801C4F2000108600798806942F64C01FE
:101D7000C4F200010860FFE70798406842F674016A
:101D8000C4F2000108600898416B41F00201416310
:101D900042F61800C4F20000016841F408510160E5
:101DA000FFE740F68000C5F60000016841F400310D
:101DB0000160FFE742F62400C4F20000FF21016049
:101DC000FFE7089801210163FFE708980021C1623D
:101DD000FFE700200990FFE709980AB080BD0000E6
:101DE00080B584B0029042F60C00C4F20000016895
:101DF00061F0A0010160FEF7B9FC0190FFE742F637
:101E00000C00C4F200000068800600280CD4FFE734
:101E1000FEF7ACFC0199401AB0F57A7F03D9FFE7D1
:101E20000320039003E0EAE700200390FFE7039814
:101E300004B080BD80B586B0059004910498002858
:101E4000039004D0FFE7039801280BD016E048F276
:101E50008400C2F2000000688021029008460299C6
:101E600088470CE048F28400C2F2000000684FF49A
:101E70008071019008460199884700E0FFE706B0AD
:101E800080BD000080B582B0019048F28400C2F2AB
:101E9000000000684021009008460099884702B081
:101EA00080BD000080B58CB09C460A9009910892D4
:101EB000ADF81E30089805900A98C068012855D1E1
:101EC000FFE7FFE70A988068012803D1FFE70220B7
:101ED0000B904EE00A9801218160FFE7FFE70A9826
:101EE00003F0A6FA039000F073FD0A989DF8241001
:101EF00003F042FA0A990022029008461146019224
:101F000003F03AFA0199ADF81210FFE7BDF812009C
:101F1000BDF81E1088420EDAFFE70A98059903F013
:101F2000D1F9059901310591FFE7BDF812000130A3
:101F3000ADF81200EAE700F063FD0A9803F096FAA4
:101F40000A990969002903D0FFE70120069002E001
:101F500000200690FFE70A980121C160FFE70A9878
:101F600000218160FFE706980B9002E002200B90B1
:101F7000FFE70B980CB080BD80B588B09C460690FA
:101F800005910492ADF80E300698C068012861D121
:101F9000FFE7FFE706988068012803D1FFE70220EA
:101FA00007905AE0069801218160FFE7FFE7069855
:101FB00003F03EFA0599842904D0FFE70598942898
:101FC00004D1FFE706980121017103E00698002182
:101FD0000171FFE700F0FCFC06989DF8141003F077
:101FE000CBF90021ADF80610FFE7BDF80600BDF8FB
:101FF0000E1088420EDAFFE706980499BDF8062015
:10200000895C03F0B9F9FFE7BDF806000130ADF8CF
:102010000600EAE700F0F4FC0598842804D0FFE706
:10202000069803F023FAFFE706980069002803D01A
:10203000FFE70120029002E000200290FFE70698EF
:102040000121C160FFE7069800218160FFE7029847
:10205000079002E002200790FFE7079808B080BDD4
:1020600080B582B0019048F28400C2F2000000689E
:102070002021009008460099884702B080BD0000EA
:1020800080B582B0019048F28400C2F2000000687E
:102090001021009008460099884702B080BD0000DA
:1020A00080B584B003900020ADF80A000398122197
:1020B0000DF10A020223FFF7F5FE9DF80A10ADF8B4
:1020C0000810BDF808109DF80B2042EA0121ADF878
:1020D0000810BDF80810C907002904D0FFE70398CD
:1020E00000F028FAFFE7BDF8080000F00200002128
:1020F000B1EB500F04D0FFE7039800F0EBF9FFE7D6
:10210000BDF8080000F004000021B1EB900F04D0EE
:10211000FFE7039800F0DEF8FFE7BDF8080000F0E5
:1021200008000021B1EBD00F04D0FFE7039800F0C6
:10213000F1F9FFE7BDF8080000F010000021B1EB55
:10214000101F04D0FFE70398FFF79AFFFFE7BDF8E1
:10215000080000F020000021B1EB501F04D0FFE781
:102160000398FFF77DFFFFE7BDF8080000F040008F
:102170000021B1EB901F04D0FFE70398FFF782FE28
:10218000FFE79DF808000021B1EBD01F14D0FFE756
:10219000BDF8080000F480700021B1EB102F05D0CD
:1021A000FFE703980121FFF745FE04E003980021B3
:1021B000FFF740FEFFE7FFE7BDF8080000F40070FE
:1021C0000021B1EB502F04D0FFE7039800F092F903
:1021D000FFE703980DF10A0202210191019BFFF72D
:1021E000CBFE04B080BD000080B584B002900298A0
:1021F000002805D1FFE7012001900198039053E0EA
:1022000000200190FFE70298C068002807D1FFE78F
:10221000029800218160029800F04AF8FFE70298D6
:102220000221C16000F03EFD40F20400C2F2000055
:102230000068C0EBC000C0F34C40642148430090EC
:10224000FFE70098002805D1FFE7012001900299DF
:10225000086108E0009801380090FFE700F084FC76
:102260000028EED1FFE700F0CBFB4FF4805000F0E8
:1022700083FB4FF4006000F0B5FB00F089FB019890
:1022800000280BD1FFE70298006803F001F80298DC
:1022900001210171029800210161FFE702980121EB
:1022A000C16001980390FFE7039804B080BD00006F
:1022B00080B584B00390012000F040FB3220002163
:1022C00002900191019AFEF791FA0298FEF786FAC0
:1022D00004B080BD80B582B0019048F28400C2F2A3
:1022E000000000680421009008460099884702B069
:1022F00080BD000080B58CB09C468E460A908DF85B
:1023000027100892ADF81E30089805900A98C0680A
:1023100001285CD1FFE7FFE70A988068012803D114
:10232000FFE702200B9055E00A9801218160FFE74A
:10233000FFE70A9803F07CF8039000F049FB0A9845
:102340001E2103F019F80A999DF8272002900846EB
:10235000114603F011F80A9900220190084611462F
:10236000009203F009F80099ADF81210FFE7BDF8EC
:102370001200BDF81E1088420EDAFFE70A98059990
:1023800002F0A0FF059901310591FFE7BDF81200A9
:102390000130ADF81200EAE700F032FB0A9803F0D2
:1023A00065F80A990969002903D0FFE70120069022
:1023B00002E000200690FFE70A980121C160FFE7D4
:1023C0000A9800218160FFE706980B9002E0022046
:1023D0000B90FFE70B980CB080BD000080B58EB06D
:1023E0009C468E460C90ADF82E100A92ADF8263021
:1023F0000A9807900C98C068012864D1FFE7FFE7AE
:102400000C988068012803D1FFE702200D905DE061
:102410000C9801218160FFE7FFE70C9803F008F8B2
:10242000059000F0D5FA0C981D2102F0A5FF0C993B
:102430009DF82F2004900846114602F09DFF0C994C
:102440009DF82E2003900846114602F095FF0C9946
:102450000022029008461146019202F08DFF019978
:10246000ADF81A10FFE7BDF81A00BDF82610884233
:102470000EDAFFE70C98079902F024FF0799013163
:102480000791FFE7BDF81A000130ADF81A00EAE73E
:1024900000F0B6FA0C9802F0E9FF0C9909690029DE
:1024A00003D0FFE70120089002E000200890FFE73A
:1024B0000C980121C160FFE70C9800218160FFE7C3
:1024C00008980D9002E002200D90FFE70D980EB0E5
:1024D00080BD000080B582B0019048F28400C2F255
:1024E000000000680221009008460099884702B069
:1024F00080BD000080B582B0019048F28400C2F235
:10250000000000684FF40071009008460099884769
:1025100002B080BD80B582B0019048F28400C2F262
:10252000000000680821009008460099884702B022
:1025300080BD000080B582B0019048F28400C2F2F4
:10254000000000680121009008460099884702B009
:1025500080BD000080B58AB09C468E4608908DF8FC
:102560001F100692ADF816300898C068012854D1A3
:10257000FFE7FFE708988068012803D1FFE7022002
:1025800009904DE0089801218160FFE7FFE7089876
:1025900002F04EFF029000F01BFA08980E2102F0A4
:1025A000EBFE08999DF81F2001900846114602F0A5
:1025B000E3FE0021ADF80E10FFE7BDF80E00BDF8F8
:1025C000161088420EDAFFE708980699BDF80E202B
:1025D000895C02F0D1FEFFE7BDF80E000130ADF8D6
:1025E0000E00EAE700F00CFA089802F03FFF0899A5
:1025F0000969002903D0FFE70120049002E00020D0
:102600000490FFE708980121C160FFE708980021C6
:102610008160FFE70498099002E002200990FFE73B
:1026200009980AB080BD000080B58AB09C468E46ED
:102630000890ADF81E100692ADF816300898C068E4
:1026400001285FD1FFE7FFE708988068012803D1E0
:10265000FFE70220099058E0089801218160FFE718
:10266000FFE708980221C160089802F0E1FE02909D
:1026700000F0AEF908980D2102F07EFE08999DF851
:102680001F2001900846114602F076FE08999DF839
:102690001E2000900846114602F06EFE0021ADF8A3
:1026A0000E10FFE7BDF80E00BDF8161088420EDAD6
:1026B000FFE708980699BDF80E20895C02F05CFEE1
:1026C000FFE7BDF80E000130ADF80E00EAE700F0BC
:1026D00097F9089802F0CAFE08990969002903D001
:1026E000FFE70120049002E000200490FFE7089833
:1026F0000121C160FFE7089800218160FFE704988D
:10270000099002E002200990FFE709980AB080BD15
:10271000FFE7FEE780B588B000200790069005909F
:1027200004900390012102900846019100F0E6F820
:1027300002200390029804900199059103220692C9
:102740004FF0904003A9FDF779FE08B080BD00006E
:1027500080B582B0019040F20040C4F6000008212C
:102760000122FDF7EDFF02B080BD000080B582B010
:10277000019040F20040C4F600004FF400710022C6
:10278000FDF7DEFF02B080BD80B58CB000200B905D
:102790000A9009900890079002210690084600F0E0
:1027A0009DF8042000F09AF80120059000F096F8BA
:1027B00018200790059808900699099103220A921B
:1027C00040F20042C4F6000207A910460492FDF749
:1027D00035FE10210498059AFDF7B2FF08210498F0
:1027E000059AFDF7ADFFFFE768460021016040F262
:1027F0004000C2F2000042F6A103C0F600034FF011
:10280000FF3203911146039A04F094F9FFE7FFE7C2
:1028100068460021016048F26000C2F2000042F206
:102820005173C0F600034FF0FF3202911146029A35
:1028300004F080F9FFE7FFE768460021016040F2FD
:102840001400C2F2000042F26D73C0F600034FF0B4
:10285000FF3201911146019A04F06CF9FFE7FFE79E
:1028600040F24000C2F200004FF4FA7104F088FA1E
:10287000FFE7FFE748F26000C2F200004FF4FA7190
:1028800004F07EFAFFE7FFE740F21400C2F2000016
:102890004FF4FA7104F074FAFFE70CB080BD000049
:1028A00080B582B0019040F20040C4F600000821DB
:1028B0000122FDF745FF02B080BD000082B001900B
:1028C00001984C21C5F600010A68104308600868A9
:1028D000019908400090009802B0704782B00190C2
:1028E00001984C21C5F600010A6810430860086889
:1028F000019908400090009802B0704782B00190A2
:1029000001984C21C5F600010A6810430860086868
:10291000019908400090009802B0704782B0019081
:1029200001985821C5F600010A681043086008683C
:10293000019908400090009802B0704782B0019061
:1029400001986421C5F600010A6810430860086810
:10295000019908400090009802B0704781B0009043
:1029600040F20810C5F60000016821F0F001009A5D
:102970001143016001B0704781B00090009840F6AB
:102980009001C5F600010A681043086001B0704765
:1029900040F21840C5F600004FF400610160704736
:1029A00040F21440C5F600000068C0F38000704794
:1029B00040F21440C5F600000068C0F340007047C4
:1029C00040F20040C5F600000068C0F300207047E8
:1029D00040F29040C5F60000016821F4004101601A
:1029E0007047000081B0009040F20840C5F600003A
:1029F000016821F40061009A1143016001B0704741
:102A000040F29040C5F60000016841F400410160C9
:102A1000704700009020C5F60000016841F40041B5
:102A2000016070479020C5F60000016841F48031D4
:102A30000160704740F20810C5F60000006800F021
:102A40000F000001704700000820C5F60000006874
:102A500000F0F000704700009020C5F6000000680C
:102A600000F44070704700000820C5F600000068C0
:102A700000F00C00704700004FF0B040016821F4F6
:102A800080310160704700004FF0B040016821F4D0
:102A900000110160704700004FF0B040016841F440
:102AA00080310160704700004FF0B040016841F490
:102AB00000110160704700004FF0B0400068C0F3A3
:102AC000005070474FF0B0400068C0F3404070477E
:102AD0004FF0B040016821F4807101607047000040
:102AE0004FF0B040016841F4807101607047000010
:102AF0004FF0B0400068C0F38020704781B0009074
:102B00000420C5F60000016821F0FE41009A41EA68
:102B10000261016001B0704740F20810C5F6000084
:102B20000068C0F3404070470820C5F60000006808
:102B3000C0F30040704700000820C5F600000068A0
:102B4000C0F34040704700000820C5F60000006850
:102B5000C0F380407047000040F20810C5F6000046
:102B60000068C0F3004070479420C5F6000000687C
:102B7000C0F38030704700009020C5F60000006868
:102B8000C0F34000704700009020C5F600000068C8
:102B9000C0F34000704700009420C5F600000168B3
:102BA00021F00101016070479420C5F60000016822
:102BB00041F00101016070479420C5F600000068F3
:102BC000C0F34000704700004FF0B040016821F0B2
:102BD00001010160704700004FF0B040016841F012
:102BE00001010160704700004FF0B040006800F044
:102BF000F00070479420C5F60000006800F4706093
:102C0000704700004FF0B0400068C0F3C00070474C
:102C10004FF0B0400068C0F34000704781B00090B2
:102C20000420C5F60000016821F47F41009A41EAC2
:102C30000221016001B070474FF0B040016821F0FF
:102C400080710160704700004FF0B040016841F0B2
:102C500080710160704700000C20C5F6000000681C
:102C600000F07000704700000C20C5F600000068FE
:102C700000F00300704700000C20C5F6000000685B
:102C8000C0F30620704700000C20C5F60000006865
:102C900000F06040704700004FF0B0400068C0F3A3
:102CA000406070479420C5F60000016821F400419F
:102CB000016070479020C5F60000016821F4803162
:102CC0000160704781B000908820C5F6000001685F
:102CD00021F04051009A1143016001B0704700009B
:102CE00081B0009040F20810C5F60000016821F0A4
:102CF0000F01009A41EA1211016001B07047000013
:102D000081B000900820C5F60000016821F0F001B4
:102D1000009A1143016001B07047000081B000903B
:102D20000820C5F60000016821F4E061009A114313
:102D3000016001B07047000081B000900820C5F626
:102D40000000016821F46051009A1143016001B054
:102D50007047000081B000908820C5F6000001682F
:102D6000009A6FF47F2363EA1213194002F47F4242
:102D700041EA0211016001B07047000081B000908B
:102D80008820C5F60000016821F44071009A1143C3
:102D9000016001B07047000081B000908820C5F646
:102DA00000000168009A4FF6FF7363EA02031940BE
:102DB00041EA0241016001B07047000081B000901B
:102DC0008820C5F60000016821F44061009A114393
:102DD000016001B07047000081B000908820C5F606
:102DE0000000016821F04041009A1143016001B0E8
:102DF0007047000081B000909020C5F60000016887
:102E000021F44071009A1143016001B07047000045
:102E100081B000900820C5F60000016821F0030190
:102E2000009A1143016001B07047000081B000902A
:102E30008820C5F600000168009A21EA124192B28A
:102E40001143016001B0704781B000900098806824
:102E500001B0704780B582B048F27C20C2F2000019
:102E600008210160FFF7C0F9002807D0FFE7FFE75E
:102E7000EFF3108072B60190FFE7FEE702B080BD6D
:102E8000FFE7FEE77047000088B0079006910592C3
:102E9000079800F0070004900498C0F10700052887
:102EA00003D3FFE70420019004E00498C0F1070079
:102EB0000190FFE70198039004980430062803D896
:102EC000FFE70020009003E0049803380090FFE73C
:102ED0000098029006980399012202FA01F1013943
:102EE000084002998840059B02FA01F10139194016
:102EF000084308B07047000081B001468DF8030018
:102F000001B0704710B583B09C4696460C460290BF
:102F1000ADF80610ADF804208DF8033003B010BDF5
:102F200070470000704700007047000070470000C5
:102F30007047000080B58AB009900998032808906E
:102F400064D80899DFE801F0021A324A40F20040E2
:102F5000C4F60000012100220792FDF7F1FB4FF0BB
:102F600090404FF480710690079AFDF7E9FB4FF40B
:102F700000710698079AFDF7E3FB48E040F2004035
:102F8000C4F6000001210591059AFDF7D9FB4FF029
:102F900090404FF480710490059AFDF7D1FB4FF4F7
:102FA000007100220498FDF7CBFB30E040F20040B6
:102FB000C4F6000001210391039AFDF7C1FB4FF015
:102FC00090404FF480710290039AFDF7B9FB4FF4E3
:102FD00000710298039AFDF7B3FB18E040F200403D
:102FE000C4F6000001210191019AFDF7A9FB4FF001
:102FF00090404FF4807100220090FDF7A1FB4FF448
:1030000000710098019AFDF79BFB00E0FFE70020AC
:103010000AB080BD002070470A20704780B58CB090
:1030200000200B900A9009900890079002210690CA
:103030000846FFF743FC01200590FFF73FFC059889
:10304000FFF73CFC4FF48070079005990891069AB1
:10305000099203230A934FF090430DF11C0C049046
:10306000184661460393CDF808C0FDF7E7F94FF421
:10307000007007900399019008460299FDF7DEF968
:103080000598079040F20041C4F600010846029AF4
:1030900000911146FDF7D2F903980199069AFDF7C0
:1030A0004FFB03980499069AFDF74AFB009805998F
:1030B000069AFDF745FB06980CB080BD00207047CE
:1030C0000020704780B58EB00C900B9147F2BE1077
:1030D000C0F600008188ADF828100068099047F21A
:1030E000C410C0F600008188ADF820100068079079
:1030F00047F2CC10C0F60000016842688068069074
:1031000005920491002003900B98B0F5007F1BD12D
:10311000FFE700200190FFE70198022813D8FFE79E
:103120000C98019909AA32F81110884206D8FFE7D5
:10313000019804A951F82000039004E0FFE70198EA
:1031400001300190E8E71AE000200090FFE70098C6
:10315000022813D8FFE70C98009907AA32F811103B
:10316000884206D8FFE7009804A951F82000039090
:1031700004E0FFE7009801300090E8E7FFE744F241
:103180000000C5F60000016821F00701039A114311
:103190000160FDF7EBFA0290FFE744F20000C5F68C
:1031A0000000006800F00700039988420BD0FFE799
:1031B000FDF7DCFA0299401A032803D3FFE7032046
:1031C0000D9003E0E9E700200D90FFE70D980EB0A9
:1031D00080BD000080B588B00790079800F0F0002F
:1031E000800847F2D421C0F60001085805900598E0
:1031F0000490FFF71FFC3C2101EA900047F2D81130
:10320000C0F6000108580499B1FBF0F0069006984A
:103210004DF68361C4F21B31A0FB0101890C0390C0
:103220000291FDF705FB0299019008460199FFF70D
:1032300049FF08B080BD000080B548F24020C2F2CE
:103240000000FEF735FB80BD83B001468DF80B0012
:10325000002001909DF80B008DF80300FFE79DF81A
:1032600003000A2809D3FFE70198013001909DF877
:1032700003000A388DF80300F1E7019800F00F0011
:103280009DF8031041EA001003B0704780B584B088
:1032900003900020019042F60C00C4F20000006888
:1032A0004006002831D4FFE742F60C00C4F20000CB
:1032B000016841F080010160FDF758FA0290FFE7D4
:1032C00042F60C00C4F2000000680021400600280D
:1032D000009106D4FFE70198033818BF0120009041
:1032E000FFE70098C00700280ED0FFE7FDF73EFA81
:1032F0000299401AB0F57A7F05D9FFE703200190C3
:1033000003990863FFE7DBE7FFE7019804B080BD9E
:1033100080B582B001900020009042F60C00C4F20B
:103320000000016821F08001016042F61800C4F23B
:1033300000000068800600280CD4FFE70198FEF723
:103340004FFD002805D0FFE701980321016300919C
:10335000FFE71BE042F61800C4F20000016821F00C
:10336000200101600198FEF73BFD002805D0FFE732
:103370000198032101630091FFE742F61800C4F2AF
:103380000000016841F020010160FFE7009802B0F1
:1033900080BD000080B58EB068462C21FCF7D4FFBC
:1033A00048F24020C2F2000042F60001C4F20001DF
:1033B00001601F21816000210161416181614FF045
:1033C0008042C26101624FF480714162FEF708FBE6
:1033D000002807D0FFE7FFE7EFF3108072B60B90ED
:1033E000FFE7FEE748F24020C2F20000FEF714FAC1
:1033F000002807D0FFE7FFE7EFF3108072B60C90CC
:10340000FFE7FEE700200790019005904FF0005085
:1034100006904FF480700A9048F24020C2F20000FB
:1034200069460122FEF7A0FB002807D0FFE7FFE76F
:10343000EFF3108072B60D90FFE7FEE70EB080BD8F
:1034400081B00090012001B07047000083B001906E
:103450000198002804D1FFE71F208DF80B0029E018
:1034600000208DF80300FFE79DF8030015281FD802
:10347000FFE701989DF8031047F22422C0F60002EE
:1034800052F8311088420CD2FFE79DF8030047F252
:103490002421C0F6000101EBC00000798DF80B007B
:1034A00008E0FFE79DF8030001308DF80300DBE73B
:1034B000FFE7FEE79DF80B0003B0704770B583B0DF
:1034C000DDF820C0DDF81CE01C4615460E460290D3
:1034D0008DF80710ADF804208DF803308DF802E068
:1034E0008DF801C0BDF80400C1009DF80320082339
:1034F00003EBC000D207002A08BF01469DF8020076
:103500009DF801204FEAC27200F10203002A18BFA1
:10351000184601EBC00000F1180003B070BD0000B8
:1035200083B002900020019002980A28009036D8BB
:103530000099DFE801F0060E161E22282E340A122A
:103540001A0041F68460019029E042F6B100019032
:1035500025E043F60950019021E045F26110019009
:103560001DE047F61220019019E04AF2C3200190B5
:1035700015E04FF22440019011E04EF64800C0F2F1
:10358000010001900BE04DF29000C0F203000190A9
:1035900005E04AF22010C0F207000190FFE7019811
:1035A00003B0704770B589B0DDF83CC0DDF838E095
:1035B0000D9C1D461646089007918DF81B20ADF80E
:1035C00018308DF817408DF816E08DF815C09DF86D
:1035D0001B000430049000208DF80F000798052888
:1035E00004D0FFE7079806280AD1FFE7BDF81800C6
:1035F0000B2804DCFFE70C20ADF81800FFE7FFE71D
:103600000898002808D1FFE707980B280CD0FFE79F
:1036100007980C2808D0FFE70898012808D1FFE791
:1036200007980C2804D1FFE701208DF80F00FFE771
:103630009DF81600C1009DF81520102303EBC00073
:10364000D207002A18BF01460798A1EB80009DF819
:10365000171000F114024FEAC171002918BF024689
:1036600001920798062804D8FFE707988000029087
:1036700014E00198083001909DF80F00C007002861
:1036800007D0FFE707986FF0070101EB8000029079
:1036900003E0079880000290FFE7FFE70198B0F190
:1036A000FF3F03DCFFE700200190FFE7019802994C
:1036B0000844013890FBF1F00499BDF8182000FB94
:1036C00001200C3000900798062804D8FFE70098E6
:1036D00002300090FFE7009880000130079902391E
:1036E000012202FA01F1484309B070BD80B582B0F1
:1036F00001F07AFF01460428009108D0FFE7009806
:10370000052807D0FFE70098072806D008E0022028
:10371000019008E00120019005E00320019002E003
:1037200000200190FFE7019802B080BD80B501F054
:10373000EBFF033080BD000080B586B00590059892
:1037400048F28001C2F20001086048F2A410C2F2FF
:103750000000002101718160C16043F68940C0F61C
:103760000000049102F05EF8049800F007FD02F0FA
:1037700001FC0498049902F00FF901200422049935
:1037800002F0FEFD4FF6FF7003900399049A049B2C
:1037900002F074F901F058FCFFE76846002101606F
:1037A00040F26000C2F2000043F6E143C0F60003BD
:1037B0004FF0FF3202911146029A03F0BBF9FFE786
:1037C000FFE768460021016048F28810C2F200005D
:1037D00043F6A543C0F600034FF0FF3201911146B6
:1037E000019A03F0A7F9FFE7FFE740F26000C2F299
:1037F000000003F06DFBFFE7FFE748F28810C2F21C
:10380000000003F065FBFFE706B080BD80B58CB01B
:1038100048F2A410C2F20000D0F8900001280A90EB
:103820002ED0FFE70A9802284FD0FFE70A98042815
:1038300000F09681FFE70A98082800F09281FFE7E0
:103840000A98102800F08E81FFE70A98202800F0DF
:103850008A81FFE70A98402800F0C380FFE70A98B2
:10386000802800F0E580FFE70A98B0F5807F00F03F
:103870000081FFE70A98B0F5007F00F01B81A1E10D
:10388000FFE740F26000C2F2000003F021FBFFE717
:10389000002002F0A9FC48F28000C2F2000000689B
:1038A000002811D0FFE748F28000C2F20000006853
:1038B0000068002808D0FFE748F28000C2F200004C
:1038C000006800688047FFE77DE1FFE748F2881065
:1038D000C2F2000003F0FCFAFFE748F2A410C2F2C3
:1038E00000000079C007002814D1FFE700200990EC
:1038F00002F07AFC40F60210099902F009FE40F647
:103900004410089001F0FAFF40F00201089802F01C
:10391000FFFDFFE748F28800C2F200000DF12F0121
:10392000FF2201F0C7FE48F2A411C2F2000150319B
:103930000790084601F05EFE48F28000C2F20000E7
:10394000006800284CD0FFE748F28000C2F2000077
:1039500000688068002843D0FFE748F2A410C2F254
:103960000000006D01281DD1FFE748F28000C2F27F
:103970000000006880689DF82F1048F2A412C2F27F
:10398000000292F95C3092F95D2048F2880CC2F294
:10399000000C0690604605921A46059BDDF818C09B
:1039A000E0471CE048F28000C2F200000068806836
:1039B0009DF82F1048F2A412C2F2000292F955307D
:1039C00092F9582048F2880CC2F2000C049060462C
:1039D00003921A46039BDDF810C0E047FFE7FFE7BC
:1039E000F1E048F2A410C2F200000079C0070028FC
:1039F00004D1FFE7002002F0F7FBFFE748F2800068
:103A0000C2F200000068002811D0FFE748F28000F1
:103A1000C2F2000000680069002808D0FFE748F201
:103A20008000C2F20000006800698047FFE7CAE03A
:103A3000002002F0D9FB48F28000C2F200000068CA
:103A4000002815D0FFE748F28000C2F200000068AD
:103A5000806900280CD0FFE748F28000C2F2000025
:103A60000068806900210290084602998847FFE7B4
:103A7000A9E0002002F0B8FB48F28000C2F200008A
:103A80000068002815D0FFE748F28000C2F200006D
:103A90000068806900280CD0FFE748F28000C2F27D
:103AA000000000688069012101900846019988475B
:103AB000FFE788E001F098FD042825D1FFE7FFE744
:103AC00040F26000C2F2000003F002FAFFE70020BB
:103AD00002F08AFB48F28000C2F200000068002871
:103AE00011D0FFE748F28000C2F200000068406891
:103AF000002808D0FFE748F28000C2F2000000680A
:103B000040688047FFE72AE001F06EFD052825D1D7
:103B1000FFE7FFE748F28810C2F2000003F0D8F98F
:103B2000FFE7002002F060FB48F28000C2F20000D4
:103B30000068002811D0FFE748F28000C2F20000C0
:103B40000068C068002808D0FFE748F28000C2F291
:103B500000000068C0688047FFE7FFE7FFE732E04A
:103B600031E030E02FE0FFE748F28810C2F20000B9
:103B700003F0AEF9FFE748F2A410C2F200000079AA
:103B8000C007002804D1FFE7002002F02DFBFFE76B
:103B900048F28000C2F200000068002811D0FFE760
:103BA00048F28000C2F200000068C068002808D017
:103BB000FFE748F28000C2F200000068C06880475A
:103BC000FFE700E0FFE70CB080BD000080B594B0D7
:103BD000944613901291ADF84620109301208DF871
:103BE0003F000021ADF83C100E91CDF834C00C9090
:103BF0000B9101F041FA0B9800F078FA139800F05D
:103C000033FA129869460C9A4A620B9B0B62CB619D
:103C10008B614B610B61CB608B604FF0030CC1F883
:103C200004C008604FF416720A9018460A9900F012
:103C3000D7FA0B9800F0B2F8FFF778FD02F0DAFD42
:103C400002F0B2FF0E90FFE70E9802F0BDFF109950
:103C5000884211D2FFE7002000F098F8ADF83C0050
:103C6000BDF93C00BDF94610884204DDFFE70020A5
:103C70008DF83F0000E0E7E701F0FEF99DF83F0016
:103C800000F0010014B080BD80B582B001900198B1
:103C900048F2A411C2F20001C1F89000FFF7B6FD8E
:103CA00002B080BD80B582B0019048F28000C2F2BF
:103CB00000000068002811D0FFE748F28000C2F23F
:103CC00000000068C068002808D0FFE748F28000C4
:103CD000C2F200000068C0688047FFE702B080BD04
:103CE00080B582B0019048F28000C2F20000006806
:103CF000002811D0FFE748F28000C2F200000068FF
:103D00004068002808D0FFE748F28000C2F20000B7
:103D1000006840688047FFE702B080BD80B582B090
:103D20000020019001210090084600F0DFF9009882
:103D30000099009A009B01F0A1FE01F0E9FC0190BE
:103D4000019802B080BD000080B582B00146ADF898
:103D50000600BDF80600009101F0D0FD02B080BD64
:103D600080B586B013468446ADF8160004918DF8F0
:103D70000F20BDF8160004999DF80F200293CDF88E
:103D800004C001F0D9FD06B080BD000080B582B04E
:103D9000019001F0FDFC02B080BD000080B584B050
:103DA00003904FF6FF7000210290029A0191114694
:103DB000019A019B01F062FE0398002812D0FFE7F0
:103DC000FFE7039948F28810C2F2000002F0D8FF22
:103DD000FFE7FFE748F28810C2F2000002F0FEFFA2
:103DE000FFE7FFE748F2A410C2F2000090F8941039
:103DF000002200900846114602F02CFA0098017942
:103E0000C907002905D0FFE76FF07F4002F048F9AD
:103E100008E048F2A410C2F20000C068800102F07D
:103E20003FF9FFE704B080BD80B584B003904FF642
:103E3000FF7000210290029A01911146019A019BA4
:103E400001F01CFE0398002812D0FFE7FFE703995A
:103E500048F28810C2F2000002F092FFFFE7FFE78D
:103E600048F28810C2F2000002F0B8FFFFE7FFE757
:103E700048F2A410C2F2000090F8941000220090C2
:103E80000846114602F0E6F900980179C9070029B1
:103E900005D0FFE76FF07F4002F022F908E048F21A
:103EA000A410C2F20000C068800102F019F9FFE717
:103EB00004B080BD80B594B00A4613908DF84B10C5
:103EC00040F2012000210890089B07911946DDF877
:103ED0001CC006926246634601F0D0FD48F2A41071
:103EE000C2F2000090F89410012205900846114695
:103EF00002F0B0F9059801680329049100F29C8052
:103F00000499DFE801F01502283C9DF84B0048F2C7
:103F1000A411C2F2000181F8440001F1140001F083
:103F200041FF13989DF84B10002201F023FD84E01F
:103F30009DF84B0048F2A411C2F2000181F82C0058
:103F400001F1140001F02EFF13989DF84B10002290
:103F500001F010FD71E048F2A410C2F2000002214D
:103F600040F8141F9DF84B1080F8241001F01AFF40
:103F700013989DF84B10002201F0FCFC5DE00AA8AC
:103F800023210390FCF7BEF913999DF84B20039869
:103F900003F096F848F2A410C2F20000022140F8A3
:103FA000141F9DF84B10013180F82410029001F08D
:103FB000F9FE0298416E642912D1FFE7F120002139
:103FC000019101F019F9F020019901F015F9F320A0
:103FD000702101F011F9F2201D2101F00DF911E01D
:103FE000F1200021009101F007F9F020009901F083
:103FF00003F9F320E12101F0FFF8F220042101F0A0
:10400000FBF8FFE79DF84B00C0000230ADF826003A
:104010009DF82710F42001F0EFF89DF82610F52008
:1040200001F0EAF89DF84B000130C1B20AA86FF028
:104030007F4201F09FFC00E0FFE7FFE748F2A41099
:10404000C2F20000816840F26000C2F2000002F09B
:1040500097FEFFE7FFE740F26000C2F2000002F0C7
:10406000BDFEFFE714B080BD80B582B0019001981D
:1040700001F098FF02B080BD80B582B00A46019081
:104080008DF803100198012812D1FFE79DF8030075
:1040900040F20001C2F20001087048F2A411C2F21D
:1040A000000181F8440001F1140001F07BFE1AE0E8
:1040B00048F2A410C2F20000806A012812D1FFE782
:1040C0009DF8030040F20001C2F20001087048F2BE
:1040D000A411C2F2000181F82C0001F1140001F0DA
:1040E00061FEFFE7FFE702B080BD000080B584B04D
:1040F0000390039848F2A411C2F2000108600398EB
:104100000428029005D80299DFE801F0040F032E7D
:104110003200FFE70020019001F0FAFE48F2A410FF
:10412000C2F200000199417426E0012001F0F0FE86
:1041300048F2A410C2F20000017C407C00F00100B3
:1041400001F0010188420ED0FFE748F2A410C2F24C
:104150000000017C01F001014174407C00F001008D
:1041600000F00CF8FFE707E0022001F0D1FE03E0C9
:10417000002001F0CDFEFFE704B080BD80B582B025
:1041800001468DF807009DF8070000F0010048F295
:10419000A412C2F200021074507401200091FFF7C3
:1041A000A5FF9DF80700C00700280BD0FFE74FF4DC
:1041B000E860342102F0ACF940F24170442102F091
:1041C000A7F90AE04FF4E860142102F0A1F940F2E7
:1041D0004170242102F09CF9FFE702B080BD00008D
:1041E0002DE9F04FA3B0DDF8D4C0DDF8D0E0339C6A
:1041F000329D319E309FDDF8BC80DDF8B890DDF84F
:10420000B4A0DDF8B0B017932290219120921798B6
:104210008DF87F00ADF87CA0ADF87A908DF87980AC
:104220008DF878708DF877608DF876508DF8754040
:104230008DF874E08DF873C09DF8731001F00101E2
:1042400048F2A412C2F2000211719DF87310C9075E
:10425000002904D0FFE70020ADF87A00FFE79DF8C1
:104260007900C007002808D0FFE79DF8780040F2E9
:104270000001C2F20001087006E040F20000C2F244
:104280000000FF210170FFE722980028169000F03F
:10429000C580FFE71698012800F04C81FFE71698CB
:1042A000042840F00C82FFE70120159001F0BCFFCC
:1042B00048F2A410C2F200000021024642F8641F36
:1042C000209B8366092303674FF44873C366219BD1
:1042D0001490184613911292FFF7B8F8149981F8C8
:1042E0007400139841F8140FBDF87C20D2008A8026
:1042F000886010220A730861486140F20002C2F22D
:10430000000212780A76159ACA61086204231846D8
:1043100011911093FFF7EAFE129801F035FC119805
:1043200001F040FDB2208DF86A0027208DF86B0067
:1043300013988DF86C008DF86D008DF86E008DF877
:104340006F008DF870008DF871000DF16A0001F0BA
:10435000AFFF40F2FF110F90084602F08BF840F6D5
:10436000B8000E90FFF7F0FC8DF872009DF8720017
:1043700000F0EF008DF872009DF872100E9800F0BA
:104380003BFF40F6B900109900F036FF40F69B0065
:104390000D90FFF7D9FC8DF872009DF8720000F0C7
:1043A000E3008DF872009DF8720040F008010D984E
:1043B00000F022FF40F2D1600C90FFF7C5FC8DF8B1
:1043C00072009DF8720000F0E7008DF872009DF811
:1043D000720040F018010C9800F00EFF40F2AC6043
:1043E0000B90FFF7B1FC8DF872009DF8720000F0A1
:1043F0008F008DF872009DF8720040F050010B980C
:1044000000F0FAFEBDF87A004FF4FA5148432099C3
:10441000B0FBF1F0119941F8080C51E100200A902D
:1044200001F002FF48F2A410C2F200000A994166AE
:10443000209A82660B220267219A09901046FFF7A4
:1044400005F8099981F874000A984861BDF87C2044
:10445000D2000A830422CA61182281F8202048620F
:104460009DF87920012323EA02028A6240F20002C9
:10447000C2F20002127881F82C209DF87720D20732
:10448000002A07D0FFE748F2A410C2F20000F22190
:10449000016306E048F2A410C2F2000001210163AA
:1044A000FFE748F2A410C2F2000001214163089026
:1044B00000F0E2FD089850F8641FA0F150020029B6
:1044C00018BF0121079008460692FFF70FFE0798D4
:1044D00001F05AFB069801F065FC4FF0C1008DF821
:1044E00062004FF094018DF863108DF864004FF076
:1044F00000008DF865008DF866008DF867008DF876
:1045000068008DF869000DF1620001F0D1FE40F203
:10451000FF110590084601F0ADFFBDF87A004FF499
:10452000FA5101FB00F02099B0FBF1F0079941F836
:10453000580CC5E0002001F077FE48F2A410C2F24A
:104540000000012141662099C0F88010219947F2AE
:104550001822C0F6000252F82110C0F884109DF80D
:104560007F10C0F888102198002808D1FFE7209814
:104570000B280CD0FFE720980C2808D0FFE72198E3
:1045800001280CD1FFE720980C2808D1FFE748F25A
:10459000A410C2F20000012180F88C1007E048F25C
:1045A000A410C2F20000002180F88C10FFE748F24E
:1045B000A410C2F2000001214161D0F8800005285A
:1045C00009D0FFE748F2A410C2F20000D0F8800042
:1045D000062815D1FFE7BDF87C000B2807DCFFE7B4
:1045E00048F2A410C2F200000C21818707E0BDF858
:1045F0007C0048F2A411C2F200018887FFE707E0BF
:10460000BDF87C0048F2A411C2F200018887FFE7E0
:104610009DF8790000F0010048F2A411C2F20001F7
:10462000086440F20000C2F20000007881F8440003
:104630009DF8770000F0010088649DF8740000F098
:104640000100C864049100F017FD049850F8641F3D
:10465000A0F15002002918BF0121039008460292E0
:10466000FFF744FD039801F08FFA029801F09AFBDE
:104670009DF87A0001F042FA0498C16C01290BD12F
:10468000FFE740F23670019001F038F900F0FB01CD
:10469000019801F03DFF0AE040F23670009001F011
:1046A0002DF940F00401009801F032FFFFE748F2D5
:1046B000A410C2F200004FF6FF71C16000E0FFE7F6
:1046C00023B0BDE8F08F000080B584B00390029164
:1046D0004FF6FF7000210190019A00911146009A57
:1046E000009B01F0CBF948F2A410C2F2000090F850
:1046F0009400009901F0AEFD0398029901F016FDB7
:1047000004B080BD80B596B01490139112921193AD
:10471000002010900F900E901298002803D0FFE711
:1047200000201190FFE71298002818BF012048F2DE
:10473000A411C2F200010871149800280B9005D052
:10474000FFE70B98012800F0A18058E11398C0689A
:10475000002805D0FFE713980069002804D1FFE77F
:104760004FF0FF3015904EE11398007E092804DBCE
:10477000FFE74FF0FF30159045E100200C90FFE778
:104780000C981399097E88420BDAFFE71398C069E9
:104790000C99405C0EAA5054FFE70C9801300C9025
:1047A000EEE7FFE71398C06A002805D1FFE71398EA
:1047B000006A8DF8370003E0FF208DF83700FFE72F
:1047C00013980068002818BF012001F02DFD48F261
:1047D000A410C2F200004FF00001024642F8641F2C
:1047E000139BDB688366139B5B680367139B9B6863
:1047F0000A90184609910892FEF728FE0A9981F856
:104800007400099841F8140F139A12694FEAC20212
:104810008A80139A52698A60139A127E4FEAC20202
:104820000A73139A926A0A61139AD26A4A619DF8CE
:1048300037200A76139A126BCA61139A926B0A6236
:10484000079100F019FC0998FFF750FC089801F057
:104850009BF9079801F0A6FA0EA801F029FD13991B
:10486000898C0690084601F005FE1398808E01F0B1
:10487000C9F811984FF4FA5101FB00F01399C96877
:10488000B0FBF1F0079941F8080CB9E01398B0F8C3
:104890005000002804D1FFE74FF0FF301590B2E040
:1048A0001398406D012805D1FFE71398006A8DF831
:1048B000370003E0FF208DF83700FFE71398C06B47
:1048C000002818BF012001F0AFFC9DF8440001F062
:1048D00015F948F2A410C2F200004FF00101416640
:1048E0001399096CC0F880101399496CC0F88410B2
:1048F0001399896CC0F888101398C06C0028059033
:1049000008D0FFE7059801280CD0FFE7059802289A
:1049100010D02AE048F2A410C2F20000002180F872
:104920008C1023E048F2A410C2F20000012180F8AC
:104930008C101BE01398006C0B2805D0FFE7139830
:10494000006C0C2808D1FFE748F2A410C2F2000066
:10495000012180F88C1007E048F2A410C2F2000098
:10496000002180F88C10FFE700E0FFE748F2A41078
:10497000C2F20000012140F8141F139AB2F850202F
:104980000285139A526DC2629DF8372080F830205C
:10499000139AD26D4263139A126E8263049103904C
:1049A00000F06AFB0498FFF7A1FB0398503001F078
:1049B000EBF8039801F0F6F90398816B01290BD10C
:1049C000FFE740F23670029000F098FF00F0FB0124
:1049D000029801F09DFD0AE040F23670019000F06F
:1049E0008DFF40F00401019801F092FDFFE748F2CD
:1049F000A410C2F200004FF6FF71C16000E0FFE7B3
:104A000010981590FFE7159816B080BD2DE9F04F6E
:104A100095B0DDF898C0DDF894E0249C239D229E9B
:104A2000219FDDF88080DDF87C90DDF878A08B4652
:104A300014908DF84F10129211938DF84390ADF8A9
:104A400040808DF83F708DF83E608DF83D508DF8B8
:104A50003C408DF83BE0149800280B901BD0FFE7FA
:104A60000B98012800F08F80FFE70B98032840F097
:104A70002681FFE70320FFF739FB48F2A410C2F2BA
:104A80000000022140F8641F1E99416116218161D6
:104A900001F07AF814E148F2A410C2F200000021FB
:104AA00041661E9A82660B220267119A0A9010468E
:104AB0000991FEF7CBFC0A9981F874001298C86638
:104AC00009984861BDF84020D2000A830422CA61D7
:104AD000182281F8202048629DF83F20012323EA14
:104AE00002028A629DF83E20D207002A07D0FFE723
:104AF00048F2A410C2F20000F221016306E048F27D
:104B0000A410C2F2000001210163FFE748F2A410E3
:104B1000C2F2000001214163089000F0ADFA08984C
:104B200050F8641FA0F15002002918BF012107901E
:104B300008460692FFF7DAFA079801F025F806987A
:104B400001F030F94FF0C1008DF833004FF09401BF
:104B50008DF834108DF835004FF000008DF83600D8
:104B60008DF837008DF838008DF839008DF83A004F
:104B70000DF1330001F09CFB40F2FF110590084657
:104B800001F078FC9CE048F2A410C2F20000012180
:104B900041661E99C0F88010119947F21822C0F69C
:104BA000000252F82110C0F884109DF84310C0F89C
:104BB00088101198002808D1FFE71E980B280CD008
:104BC000FFE71E980C2808D0FFE7119801280CD1A8
:104BD000FFE71E980C2808D1FFE748F2A410C2F2A4
:104BE0000000012180F88C1007E048F2A410C2F206
:104BF0000000002180F88C10FFE748F2A410C2F2F8
:104C0000000001214161D0F88000052809D0FFE7AC
:104C100048F2A410C2F20000D0F88000062815D196
:104C2000FFE7BDF840000B2807DCFFE748F2A410BF
:104C3000C2F200000C21818707E0BDF8400048F275
:104C4000A411C2F200018887FFE707E0BDF8400029
:104C500048F2A411C2F200018887FFE79DF83F00E7
:104C600000F0010048F2A411C2F20001086440F211
:104C70000000C2F20000007881F844009DF83E0078
:104C800000F0010088649DF83B0000F00100C8645A
:104C9000049100F0F1F9049850F8641FA0F150025B
:104CA000002918BF0121039008460292FFF71EFA5F
:104CB000039800F069FF029801F074F8FFE7FFE73E
:104CC0001498012814D1FFE748F2A410C2F20000A2
:104CD000D0F8840006280BD1FFE740F68900019048
:104CE00000F00CFE00F0FB01019801F011FC0AE05D
:104CF00040F68900009000F001FE40F004010098A9
:104D000001F006FCFFE79DF94F0001F08DF948F234
:104D1000A411C2F2000181F894002698886015B0B1
:104D2000BDE8F08F80B586B013468C4605908DF8AF
:104D30001310ADF81020BDF810004FF47A714843FD
:104D4000039005980193CDF800C001F02BF99DF96F
:104D5000130001F069F98DF80B009DF80B0001219B
:104D600001F078FA01F0F0FAFFE7039940F26000F1
:104D7000C2F2000002F004F8FFE7FFE740F2600033
:104D8000C2F2000002F02AF8FFE706B080BD000082
:104D900080B596B09446149013918DF84B201193E2
:104DA000002010900F90149800280D9009D0FFE774
:104DB0000D9801287ED0FFE70D98022800F00E81A3
:104DC0002EE113988068002805D0FFE7139800694A
:104DD000002804D1FFE74FF0FF30159030E1139821
:104DE000007D092804DBFFE74FF0FF30159027E135
:104DF00000200E90FFE70E981399097D88420BDA88
:104E0000FFE7139880690E99405C0FAA5054FFE7A2
:104E10000E9801300E90EEE7FFE748F2A410C2F2C0
:104E200000000021024642F8641F139B9B688366C2
:104E3000139B1B680367139B5B680C9018460B91D0
:104E40000A92FEF703FB0C9981F874001398C0686E
:104E5000C8660B9841F8140F139A1269D2008A8021
:104E600004228A60139A127DD2000A730861139A91
:104E7000126A4A61139A526ACA61139AD26A0A6222
:104E8000099100F0F9F80B98FFF730F90A9800F053
:104E90007BFE099800F086FF0FA801F009FA13992C
:104EA000898B0890084601F0E5FA1398008D00F010
:104EB000A9FDB6E048F2A410C2F20000012141664B
:104EC0001399096BC0F880101399496BC0F88410CE
:104ED0001399896BC0F888101398C06B002807904D
:104EE00008D0FFE7079801280CD0FFE707980228B1
:104EF00010D02AE048F2A410C2F20000002180F88D
:104F00008C1023E048F2A410C2F20000012180F8C6
:104F10008C101BE01398006B0B2805D0FFE713984B
:104F2000006B0C2808D1FFE748F2A410C2F2000081
:104F3000012180F88C1007E048F2A410C2F20000B2
:104F4000002180F88C10FFE700E0FFE71398C06BAA
:104F5000002818BF012048F2A411C2F2000181F814
:104F60008C004FF0010041F8140F01F15002139B27
:104F7000B3F840300B85139B5B6CCB62139B9B6C2F
:104F80004B63139BDB6C8B6306900591049200F0DE
:104F900073F80698FFF7AAF8049800F0F5FD059855
:104FA00000F000FF0598016F06290BD1FFE740F6DE
:104FB0008900039000F0A2FC00F0FB01039801F0CF
:104FC000A7FA0AE040F68900029000F097FC40F052
:104FD0000401029801F09CFAFFE722E01398806830
:104FE000002806D0FFE713988068B0F57A7F04D9CF
:104FF000FFE74FF0FF30159022E002200190FFF70D
:1050000075F848F2A410C2F20000019940F8641F3C
:10501000139A126D42611622826100F0B5FD00E024
:10502000FFE79DF94B0000F0FFFF48F2A411C2F228
:10503000000181F894001198886000201590FFE726
:10504000159816B080BD000080B582B000208DF8A4
:1050500004009DF8040040F004008DF804009DF861
:1050600004008DF80000009801F08EF8022001F095
:10507000C1FB02B080BD000080B5002001F0B4F893
:1050800080BD000080B582B04FF4C0700021019057
:10509000019A00911146009A009B00F0EFFC00F08D
:1050A0009DFC02B080BD000070B58CB0DDF84CC036
:1050B000DDF848E0119C109D1E460B900A91099264
:1050C0008DF82330ADF820508DF81F408DF81EE08C
:1050D0008DF81DC000200690012005900B98002837
:1050E000049004D0FFE7049801281CD042E00998FE
:1050F0009DF82310BDF820209DF81E309DF81FC09C
:105100009DF81DE00EF0010E6C46C4F804E023602B
:105110000CF00103FEF7D2F94FF47A714843069080
:105120000998059027E00A9809999DF82320BDF871
:1051300020309DF81EC09DF81FE09DF81D4004F032
:1051400001046D46AC60C5F804C00EF0010CC5F852
:1051500000C0FEF727FA4FF47A71484306900A9888
:1051600047F21821C0F6000151F82000FEF7D8F9E7
:10517000059000E0FFE70698059908440138B0FB68
:10518000F1F00CB070BD000080B582B001468DF822
:1051900007009DF90700009100F046FF8DF806001A
:1051A0009DF80600012101F055F801F0CDF802B09C
:1051B00080BD000080B582B048F2A410C2F20000A9
:1051C00090F89400012101F045F847F21430C0F640
:1051D0000000406C4FF4D7612D2201900846114623
:1051E000019A904701F0BEF84FF6FF70C0F20F0031
:1051F00001F08AF802B080BD80B584B00A4603464B
:10520000ADF80E008DF80D10BDF80E009DF80D10D4
:105210000292019301F07CF904B080BD80B586B0A4
:1052200013468446ADF8160004918DF80F20BDF8A2
:10523000160004999DF80F200293CDF804C001F0E8
:1052400081F906B080BD000080B584B001468DF8BC
:105250000F000291FDF732FF012816D1FFE740F65B
:105260002310019000F04AFB8DF80E009DF80E000F
:1052700000F0F9008DF80E009DF80E009DF80F105B
:105280000143019801F044F9FFE704B080BD00003C
:1052900081B000900020C5F60100016821F04001B6
:1052A0000160009941F4417101600421C5F60101DA
:1052B0004FF4B8520A60016841F04001016001B04A
:1052C0007047000085B0049003910020029040F2E6
:1052D0000400C2F200000068C0EBC000C0F34C4004
:1052E000642148430190FFE70198002805D1FFE7BA
:1052F00001200290049908610BE0019801380190A7
:10530000FFE70820C5F60100006880070028EBD5FC
:10531000FFE70C20C5F6010000900098FF21017006
:1053200040F20400C2F200000068C0EBC000C0F30D
:105330004C40642148430190FFE70198002805D1C3
:10534000FFE701200290049908610BE00198013801
:105350000190FFE70820C5F601000068C00700289B
:10536000EBD0FFE70C20C5F6010000680399087038
:10537000029805B07047000086B00A4605908DF887
:1053800013100020039040F20400C2F200000068F5
:10539000C0EBC000C0F34C40642148430290FFE7DB
:1053A0000298002805D1FFE70120039005990861C4
:1053B0000BE0029801380290FFE70820C5F60100D3
:1053C000006880070028EBD5FFE70C20C5F6010038
:1053D00001909DF813000199087040F20400C2F298
:1053E00000000068C0EBC000C0F34C40642148439B
:1053F0000290FFE70298002805D1FFE70120039003
:10540000059908610BE0029801380290FFE7082037
:10541000C5F601000068C0070028EBD0FFE70C20AC
:10542000C5F60100006803990090084606B0704771
:1054300080B582B0019001980079012808D1FFE77A
:10544000FDF7C6FA0120FAF7F1FFFDF7D9FAFFE7F9
:10545000019800F00BF802B080BD000080B548F262
:105460007C20C2F20000FCF71BFE80BD80B584B03A
:1054700003900020029040F20400C2F20000006895
:1054800000EB4000C0F34B40642148430190FFE72C
:10549000FDF786FA00900198002806D1FFE7012069
:1054A00002900398022101610AE0019801380190FD
:1054B000FFE7FDF77DFA009908400128E8D0FFE7F3
:1054C000029804B080BD000080B584B002909DF8C1
:1054D00008008DF80C009DF80C00C0F380118901C4
:1054E000C0F3401241EA4211C0F3001241EA021136
:1054F000C0F3C00241EAC201C0F3800241EA820166
:10550000C0F3400241EA420100F0010008448DF876
:10551000070048F27C20C2F2000089210DF1070249
:105520000123FCF729FD04B080BD000080B582B0E6
:10553000019001984EF60111C3F2A451884207D39D
:10554000FFE7E1208DF80200E9208DF803003FE03D
:1055500001984FF68101C3F2A921884207D3FFE7E2
:10556000D7208DF80200DB208DF803002FE0019892
:1055700044F28141C2F6E551884207D3FFE7C120DA
:105580008DF80200C5208DF803001FE0019840F659
:105590000131C1F66B31884207D3FFE775208DF8E2
:1055A000020081208DF803000FE001984FF6414181
:1055B000C1F65411884207D3FFE76B208DF8020033
:1055C0006F208DF80300FFE7FFE7FFE7FFE7FFE746
:1055D00048F27C20C2F2000098210DF10202022361
:1055E000FCF7CAFC02B080BD40F23800C2F20000F5
:1055F0000068704780B584B0039048F27C20C2F206
:10560000000014210DF109020323FCF74BFC01906B
:1056100000F04AF803990860039800680028009099
:1056200008D0FFE70098012818D0FFE700980F285E
:105630002FD02DE09DF80900039908719DF80A000C
:1056400040424008039988719DF80B004042400891
:105650000399487103980021816023E09DF80900B7
:1056600040424008039908739DF90A0002308008FF
:10567000039948739DF80B004042400803998873D2
:1056800040F21000C2F2000000680399086109E0CE
:10569000FFE703980021142201F030FA03980F214C
:1056A0000160FFE704B080BD48F27C00C2F2000058
:1056B0000068704780B586B01346049003918DF85A
:1056C0000B2000208DF80A0003980DF10A010193C8
:1056D00000F07AF8039800789DF80B10884204DDFA
:1056E000FFE701208DF817000AE09DF80A000499F1
:1056F000039A127800F0E4F800208DF81700FFE715
:105700009DF8170006B080BD80B5FDF785FC80BD13
:1057100080B586B0002005908DF813008DF812003A
:1057200040F6E20103900846029100F0E7F88DF898
:1057300013009DF8130000F0FE01029800F0E8FE4F
:1057400040F6E500019000F0D9F88DF812009DF8C0
:10575000120000F07F01019800F0DAFE6FF07F4048
:1057600000F09EFC40F6190005A9042200F0E4F8C0
:10577000039800F039FD9DF81310029800F0C8FE60
:105780009DF81210019800F0C3FE059806B080BD88
:1057900080B582B000208DF8060048F27C20C2F26D
:1057A000000015210DF107020123FCF77BFB9DF89A
:1057B0000710494249088DF806109DF9061000901F
:1057C000084602B080BD000080B584B0039002910D
:1057D00048F27C20C2F2000013210DF106020223E0
:1057E000FCF760FB0090FFF75FFF01280FD1FFE798
:1057F00040F23400C2F200000068012807D1FFE740
:1058000040F2027000F07AF80399087004E09DF805
:10581000060003990870FFE79DF8070002990870D9
:1058200004B080BD80B584B003900398002807D0F1
:10583000FFE7039848F28401C2F200010860FFE725
:105840000220FFF701FDFDF705FB40F23000C2F238
:10585000000000210170084600F0C6FCFDF730FC96
:10586000012816D1FFE7FDF7D7FB8101012000F0E9
:105870002BFD40F61110002100F04AFE7F208DF82C
:1058800008009DF808008DF804000198FFF71CFE41
:105890000BE040F611101A21009100F039FE40F69D
:1058A0001210009900F034FEFFE7FDF7B7FB40F25D
:1058B0003801C2F2000101220A6004B080BD00007C
:1058C00080B586B0134684468DF8170004918DF894
:1058D0000F209DF81710049A9DF80F0048F27C2EB7
:1058E000C2F2000E02907046DDF808E001937346A4
:1058F000CDF800C0FCF7FEFC06B080BD80B584B0DA
:105900000146ADF80E00BDF80E0048F27C22C2F24E
:1059100000020DF10D034FF0010C02901046029AA7
:10592000019111461A466346FCF758FD9DF80D108B
:105930000090084604B080BD80B586B0134684460A
:10594000ADF816000491ADF80E20BDF81610049ABB
:10595000BDF80E0048F27C2EC2F2000E0290704696
:10596000DDF808E001937346CDF800C0FCF736FD82
:1059700006B080BD80B584B00B4603908DF80B1047
:10598000019203989DF80B10009300F0DFFA019844
:1059900000F0BAFC04B080BD80B584B00A4603466E
:1059A0008DF80F008DF80E109DF80F008DF80C008B
:1059B0009DF80E008DF80D0048F27C20C2F2000028
:1059C0008F210DF10C0C4FF0020E029262460193F2
:1059D0007346FCF7D1FA04B080BD000080B582B0F8
:1059E00048F27C20C2F20000C52100220192019BF6
:1059F000FCF7C2FA40F23801C2F2000107220A6045
:105A000002B080BD80B582B00146ADF806009DF8B9
:105A100007008DF80400BDF806008DF80500009120
:105A2000FFF742FE002807D1FFE740F2BE6001A960
:105A3000022200F087FD00E0FFE702B080BD000019
:105A400080B582B00146ADF806009DF807008DF8DC
:105A50000400BDF806008DF805000091FFF724FE54
:105A6000002807D1FFE740F2BC6001A9022200F044
:105A700069FD00E0FFE702B080BD0000B0B58AB06C
:105A80009C4696460C460546ADF82600ADF8241017
:105A9000ADF82220ADF820309DF827008DF81800D1
:105AA000BDF826008DF819009DF825008DF81A0024
:105AB000BDF824008DF81B009DF823008DF81C0014
:105AC000BDF822008DF81D009DF821008DF81E0004
:105AD000BDF820008DF81F0048F27C20C2F20000C3
