:020000040800F2
:1000000050050020D5010008793000088928000833
:10001000753000089104000809760008000000000F
:1000200000000000000000000000000075690008EA
:100030005505000800000000F93100089D6C00081B
:10004000EF010008EF010008496D0008EF0100080A
:10005000EF010008EF010008EF010008EF010008C0
:10006000EF010008EF010008EF010008EF010008B0
:10007000EF010008EF010008EF010008EF010008A0
:10008000EF010008EF010008EF010008EF01000890
:10009000EF010008EF010008EF010008EF01000880
:1000A000EF010008EF010008EF010008EF01000870
:1000B000EF010008EF010008EF010008EF01000860
:1000C000EF010008EF010008EF010008EF01000850
:1000D000EF010008EF010008EF010008EF01000840
:1000E000EF010008EF01000801350008EF010008EA
:1000F000EF010008EF010008EF010008EF01000820
:10010000EF010008EF01000851580008EF01000856
:10011000EF010008EF010008EF010008EF010008FF
:10012000EF010008EF010008EF010008EF010008EF
:10013000EF010008EF01000800F002F800F03AF8C3
:100140000AA090E8000C82448344AAF10107DA4532
:1001500001D100F02FF8AFF2090EBAE80F0013F04A
:10016000010F18BFFB1A43F001031847C4780000C1
:1001700004790000103A24BF78C878C1FAD8520731
:1001800024BF30C830C144BF04680C607047000011
:100190000023002400250026103A28BF78C1FBD890
:1001A000520728BF30C148BF0B6070471FB51FBD45
:1001B00010B510BD00F031F91146FFF7F7FF07F059
:1001C0007FFA00F04FF903B4FFF7F2FF03BC00F031
:1001D00057F900000948804709480047FEE7FEE755
:1001E000FEE7FEE7FEE7FEE7FEE7FEE7FEE7FEE7E7
:1001F00004480549054A064B70470000456D000854
:10020000390100085083002050050020508500204F
:100210005001002053EA020C00F069802DE9F04BF8
:100220004FF00006002B1FBFB3FA83F503FA05F465
:1002300024FA05F65E4012BF1643B2FA82F502FABE
:1002400005F4C5F120051EBF22FA05FC44EA0C04A2
:10025000203556EA044C4FEA144418BF641C4FF092
:1002600000084FF00009904271EB030C39D30029CC
:1002700019BFB1FA81F701FA07F6B0FA80F700FA70
:1002800007F6C7F120071EBF20FA07FC46EA0C0656
:100290002037B6FBF4FCA7EB0507103F07F01F0B58
:1002A000CBF120062CFA06F60CFA0BFB44BFB34642
:1002B0000026202FA4BF5E464FF0000B5BEA060C21
:1002C00008BF4FF0010B19EB0B0948EB0608ABFB1D
:1002D000027C06FB02CC0BFB03CCC01B71EB0C01B8
:1002E000C1E70B46024641464846BDE8F08B13B5D0
:1002F000084318BF4FF0FF300146AFF30080BDE860
:100300001C4070474FF000020429C0F0128010F02A
:10031000030C00F01B80CCF1040CBCF1020F18BFE1
:1003200000F8012BA8BF20F8022BA1EB0C0100F074
:100330000DB85FEAC17C24BF00F8012B00F8012B47
:1003400048BF00F8012B70474FF0000200B513467C
:1003500094469646203922BFA0E80C50A0E80C50E5
:10036000B1F12001BFF4F7AF090728BFA0E80C5096
:1003700048BF0CC05DF804EB890028BF40F8042B8F
:1003800008BF704748BF20F8022B11F0804F18BFFC
:1003900000F8012B7047000030B44FF0013C50F8DA
:1003A000042B51F8043BCCFA52F4D51A20D1FCB9F5
:1003B00050F8042B51F8043BCCFA52F4D51A17D15B
:1003C000B4B950F8042B51F8043BCCFA52F4D51AC6
:1003D0000ED16CB950F8042B51F8043BCCFA52F40E
:1003E000D51A05D1002CDAD030BC4FF00000704790
:1003F00029BAB1FA81F111F01801D1F1200084403D
:10040000F2D1CA40CB4012F0FF0213F0FF0330BC20
:10041000D01A7047704770477047754600F02CF847
:10042000AE4605006946534620F00700854618B0E1
:1004300020B5FFF7DDFEBDE820404FF000064FF08D
:1004400000074FF000084FF0000BAC46ACE8C009C5
:10045000ACE8C009ACE8C009ACE8C00921F007016C
:100460008D46704710B50446AFF300802046BDE8C6
:100470001040FFF7A8BE000000487047D880002059
:1004800001491820ABBEFEE72600020070470000BD
:10049000FFE7FEE780B582B0019048F23030C2F24B
:1004A0000000007801460028009108D0FFE700987E
:1004B000012811D0FFE7009802281AD02DE002F0A1
:1004C000E5F9002807D1FFE748F23030C2F200001A
:1004D00002210170FFE720E002F0D8F9012807D1DE
:1004E000FFE748F23030C2F2000000210170FFE760
:1004F00013E002F0CBF9002807D1FFE748F23030D3
:10050000C2F200000121017006E048F23030C2F270
:10051000000000210170FFE7FFE702B080BD00008E
:1005200080B584B068460021016040F2C000C2F28C
:10053000000040F29543C0F600031421012203900D
:1005400006F0E2FD03990290084606F031FF04B080
:1005500080BD00007047000048F23030C2F2000059
:100560000078704780B542F60000C4F2000002F047
:100570002FFDC04380BD000080B582B0019001987E
:1005800006F022FC02B080BD87B0069005910020E5
:100590000490FFE7059800680499C840002800F01F
:1005A0007381FFE7059800680499012202FA01F1BE
:1005B000084003900398002800F06281FFE7059847
:1005C000406801280FD0FFE70598406802280AD04C
:1005D000FFE705984068112805D0FFE705984068B7
:1005E00012282FD1FFE706988068029004984000F7
:1005F000032101FA00F0029921EA00000290059817
:10060000C068049949008840029908430290029802
:10061000069988600698406802900498012101FAC2
:1006200000F0029921EA0000029005984068C0F3AA
:100630000010049988400299084302900298069994
:100640004860FFE70698C0680290049840000321C4
:1006500001FA00F0029921EA0000029005988068F2
:10066000049949008840029908430290029806992B
:10067000C86005984068022805D0FFE705984068E3
:10068000122826D1FFE7069804996FF0030202EAC8
:1006900051010844006A0290049800F007008000AD
:1006A0000F2101FA00F0029921EA0000029005985A
:1006B0000069049901F00701890088400299084304
:1006C000029002980699049B02EA530211440862C0
:1006D000FFE706980068029004984000032101FAA1
:1006E00000F0029921EA000002900598406800F0AD
:1006F0000300049949008840029908430290029837
:10070000069908600598C079C006002840F1B780B6
:10071000FFE7049820F003000821C4F201014058CB
:100720000290049800F003008000072101FA00F015
:10073000029921EA000002900698B0F1904F03D18F
:10074000FFE70020019018E0069840F20041C4F64F
:100750000001884203D1FFE7012000900AE00698DB
:1007600040F60001C4F600010722884208BF0222B9
:100770000092FFE700980190FFE70198049901F0CB
:100780000301890088400299084302900298049965
:1007900021F003010822C4F20102885040F68000D3
:1007A000C5F60000006802900398029921EA000053
:1007B000029005988079C007002805D0FFE70398CC
:1007C000029908430290FFE7029840F68001C5F6BF
:1007D0000001086040F68400C5F600000068029041
:1007E0000398029921EA0000029005988079800719
:1007F000002805D5FFE70398029908430290FFE718
:10080000029840F68401C5F60001086040F6000039
:10081000C5F60000006802900398029921EA0000E2
:10082000029005988079C006002805D5FFE7039857
:10083000029908430290FFE7029840F60001C5F6CE
:100840000001086040F60400C5F600000068029050
:100850000398029921EA00000290059880798006A9
:10086000002805D5FFE70398029908430290FFE7A7
:10087000029840F60401C5F600010860FFE7FFE7B3
:1008800004980130049085E607B0704783B00A46AB
:100890000290ADF8061002980069BDF806100842F3
:1008A00003D0FFE70120009002E000200090FFE766
:1008B000009803B07047000083B00B460290ADF87B
:1008C000061000920098002805D0FFE7BDF806004A
:1008D0000299886104E0BDF8060002998862FFE78A
:1008E00003B0704780B506F099FA80BD40F204006D
:1008F000C2F20000006840F24C11C2F200010A6826
:10090000104408607047000080B582B0002001905C
:10091000032000F041F800F0EFFA48F20001C2F2C3
:10092000000108600F2000F00DF8002803D0FFE759
:100930000120019002E000F00BF8FFE7019802B0FF
:1009400080BD000081B00090002001B07047000021
:100950007047000080B582B00190019806F056FE05
:1009600002B080BD80B586B005900491039206F078
:1009700063FE029005980299049A039B0190084631
:1009800011461A4602F07AFB019900900846009938
:1009900006F05AFE06B080BD80B582B00190019885
:1009A00006F070FE02B080BD40F20040C5F60000C7
:1009B000006800F4C060704740F20040C5F60000D7
:1009C000016841F4807101607047000080B586B015
:1009D0000590002004900290019005988078C0074F
:1009E000002865D0FFE7FFF7E7FFFFF77BFF0390E5
:1009F000FFE740F20040C5F60000006800F4807098
:100A0000B0F5807F0BD0FFE7FFF76CFF0399401A2A
:100A1000032803D3FFE70320029000E0E9E70298F0
:100A2000002841D1FFE702F0DBF80599496B8842C5
:100A300010D0FFE79020C5F60000016821F4407156
:100A40000491009002F0B2F802F0F8F904980099CD
:100A50000860FFE79DF810008007002817D5FFE722
:100A6000FFF740FF0390FFE702F052F901280DD095
:100A7000FFE7FFF737FF0399401A41F289318842B7
:100A800003D3FFE70320029000E0EDE7FFE70298C1
:100A9000002805D1FFE70598406B02F06FFA02E0ED
:100AA00002980190FFE702E002980190FFE7FFE75C
:100AB00005980078C007002805D0FFE70598406832
:100AC00002F078FAFFE7059800788007002805D53E
:100AD000FFE70598806802F06DFAFFE70598007857
:100AE0008006002805D5FFE70598006902F02AFA7C
:100AF000FFE7059840788007002805D5FFE70598AF
:100B0000006A02F00DFAFFE70598407840070028D8
:100B100005D5FFE70598406A02F002FAFFE705985D
:100B200040780007002805D5FFE70598806A02F0A5
:100B3000F7F9FFE7059800784006002805D5FFE79C
:100B40000598406902F0CAF9FFE7059800780006A9
:100B5000002805D5FFE70598806902F0BFF9FFE797
:100B600005984078C007002805D0FFE70598C069C0
:100B700002F0B4F9FFE705980078C006002813D505
:100B8000FFE70598C06802F0BDF90598C068B0F5A8
:100B9000807F08D1FFE70C20C5F60000016841F016
:100BA00080710160FFE7FFE70598407800060028A4
:100BB00012D5FFE70598006B02F0D2F90598006B9B
:100BC000002808D1FFE70C20C5F60000016841F0BD
:100BD00080710160FFE7FFE7059840784006002834
:100BE00013D5FFE70598C06A02F030F90598C06A8E
:100BF000B0F1005F08D1FFE70C20C5F600000168E6
:100C000041F480310160FFE7FFE7019806B080BD45
:100C100080B584B0029001910298002803D1FFE7CB
:100C20000120039064E1019844F20001C5F600013F
:100C3000096801F00701884225D9FFE744F2000066
:100C4000C5F60000016821F00701019A1143016017
:100C5000FFF748FE0090FFE744F20000C5F60000F1
:100C6000006800F00700019988420BD0FFE7FFF70A
:100C700039FE0099401A032803D3FFE703200390AD
:100C800036E1E9E7FFE7029800788007002819D5E8
:100C9000FFE70298806802F0F7F8FFF723FE009064
:100CA000FFE702F005F800280BD1FFE7FFF71AFE77
:100CB0000099401A032803D3FFE70320039017E1AC
:100CC000EFE7FFE7029800788006002819D5FFE7D4
:100CD0000298406901F006FFFFF704FE0090FFE76D
:100CE00001F0DEFF00280BD1FFE7FFF7FBFD0099C5
:100CF000401A032803D3FFE703200390F8E0EFE74F
:100D0000FFE7029800784006002819D5FFE702980F
:100D1000806902F0A9F8FFF7E5FD0090FFE701F018
:100D2000DFFF00280BD1FFE7FFF7DCFD0099401A39
:100D3000032803D3FFE703200390D9E0EFE7FFE7A1
:100D4000029800784007002819D5FFE70298C0688C
:100D500002F0A8F8FFF7C6FD0090FFE701F0B0FF32
:100D600000280BD1FFE7FFF7BDFD0099401A0328CB
:100D700003D3FFE703200390BAE0EFE7FFE7029811
:100D80000078000700281AD5FFE702980069C00024
:100D900002F096F8FFF7A6FD0090FFE701F098FF3C
:100DA00000280BD1FFE7FFF79DFD0099401A0328AB
:100DB00003D3FFE7032003909AE0EFE7FFE70298F1
:100DC0000078C007002853D0FFE702984068022847
:100DD00009D1FFE701F03AFF002803D1FFE7012026
:100DE000039085E026E002984068032809D1FFE7D8
:100DF00002F016F8002803D1FFE70120039077E006
:100E000017E002984068002809D1FFE701F0C4FF0D
:100E1000002803D1FFE70120039069E008E001F01A
:100E20002BFF002803D1FFE70120039060E0FFE7DC
:100E3000FFE7FFE70298406802F0AEF8FFF752FDC7
:100E40000090FFE701F0D4FE02994968B0EB810FF2
:100E50000DD0FFE7FFF746FD0099401A41F28931B6
:100E6000884203D3FFE70320039041E0EAE7FFE76E
:100E7000019844F20001C5F60001096801F007017C
:100E8000884225D2FFE744F20000C5F60000016861
:100E900021F00701019A11430160FFF723FD009043
:100EA000FFE744F20000C5F60000006800F007000C
:100EB000019988420BD0FFE7FFF714FD0099401A13
:100EC000032803D3FFE70320039011E0E9E7FFE7DE
:100ED00000F012F848F20001C2F20001086040F28E
:100EE0000800C2F200000068FFF72CFD0390FFE746
:100EF000039804B080BD000080B582B000F010F807
:100F0000019001F065FE00F0F000800847F6400116
:100F1000C0F6000108580199B1FBF0F002B080BDA5
:100F200080B58EB000200B900A9001F061FE0D900C
:100F300001F05EFF0C900D98002808D0FFE70D9897
:100F40000C2843D1FFE70C9801283FD1FFE701F0BF
:100F50001DFF002818D1FFE701F018FF012804D178
:100F6000FFE701F005FF089003E001F007FF08909C
:100F7000FFE7089800F47060800947F63C11C0F65E
:100F800000010858079017E001F000FF012804D184
:100F9000FFE701F0EDFE069003E001F0EFFE0690A2
:100FA000FFE7069800F0F000800847F63C11C0F615
:100FB000000108580790FFE707980A900D9800284D
:100FC00003D1FFE70A980B90FFE722E00D98042871
:100FD00006D1FFE742F20040C0F2F4000B9017E0A8
:100FE0000D98082812D1FFE701F02AFE012806D14A
:100FF000FFE742F20040C0F2F4000B9005E044F637
:101000000000C0F2E8100B90FFE700E0FFE7FFE709
:10101000FFE701F0EDFD0C2847D1FFE701F0E8FE06
:101020000C900C980128059020D0FFE70598022825
:1010300004D0FFE70598032806D018E042F20040EC
:10104000C0F2F400099015E001F0FAFD012806D184
:10105000FFE742F20040C0F2F400099005E044F6D8
:101060000000C0F2E8100990FFE703E0FFE70A98EC
:101070000990FFE70998049001F0C2FE04994843E3
:10108000039001F0ADFE012101EB1010039AB2FBB9
:10109000F0F00291019001F0BBFE029901EB50705B
:1010A000019AB2FBF0F00B90FFE70B980EB080BDF9
:1010B00010B58AB008900898002803D1FFE70120F6
:1010C0000990D3E301F094FD069001F091FE0590A4
:1010D000089800788006002840F1D780FFE706983E
:1010E00000280AD0FFE706980C2840F08680FFE72A
:1010F0000598012840F08180FFE701F04DFE0028AF
:1011000008D0FFE70898006A002803D1FFE7012014
:101110000990ABE30898806A4FF0B041096809076D
:101120000029029007D5FFE74FF0B040006800F0BB
:10113000F000019008E09420C5F60000006800F47B
:10114000706000090190FFE70198029981421ED961
:10115000FFE70898806A02F0A1F9002803D0FFE7B2
:101160000120099082E3FFE74FF0B040016841F0B1
:1011700008010160016821F0F001089A926A1143A8
:101180000160FFE70898406A01F00CFE1DE0FFE7F0
:101190004FF0B040016841F008010160016821F0A2
:1011A000F001089A926A11430160FFE70898406ACB
:1011B00001F0F8FD0898806A02F070F9002803D069
:1011C000FFE70120099051E3FFE7FFF795FE48F2A2
:1011D0000001C2F20001086040F20800C2F2000003
:1011E0000068FFF7AFFB04900498002803D0FFE7E6
:1011F000049809903AE3FFE746E00898006A00285F
:101200002AD0FFE701F0ACFDFFF76CFB0790FFE78A
:1012100001F0C2FD00280BD1FFE7FFF763FB079940
:10122000401A032803D3FFE7032009901EE3EFE7EA
:10123000FFE74FF0B040016841F00801016001682C
:1012400021F0F001089A926A11430160FFE70898C3
:10125000406A01F0A7FD16E001F07AFDFFF742FBBE
:101260000790FFE701F098FD00280BD0FFE7FFF79C
:1012700039FB0799401A032803D3FFE7032009909D
:10128000F4E2EFE7FFE7FFE7FFE708980078C00721
:10129000002870D0FFE70698082808D0FFE70698D6
:1012A0000C2812D1FFE7059803280ED1FFE701F0C3
:1012B000CDFC002808D0FFE708984068002803D13B
:1012C000FFE701200990D1E254E04FF0B0400168FF
:1012D00021F48011089A926811430160FFE7089891
:1012E0004068B0F5803F03D1FFE701F099FC10E0C2
:1012F00008984068B0F5041F05D1FFE701F098FC9D
:1013000001F08EFC04E001F07BFC01F081FCFFE7C2
:10131000FFE7FFE708984068002815D0FFE7FFF7D0
:10132000E1FA0790FFE701F091FC00280BD1FFE7FD
:10133000FFF7D8FA0799401A652803D3FFE703207F
:10134000099093E2EFE714E0FFF7CCFA0790FFE78C
:1013500001F07CFC00280BD0FFE7FFF7C3FA0799E8
:10136000401A652803D3FFE7032009907EE2EFE7E8
:10137000FFE7FFE7FFE7089800788007002858D5C7
:10138000FFE70698042808D0FFE706980C2817D135
:10139000FFE70598022813D1FFE701F06DFC002854
:1013A00008D0FFE708980069002803D1FFE7012073
:1013B00009905BE20898406901F064FCFFE737E0C0
:1013C0000898006900281BD0FFE701F04DFCFFF7EB
:1013D00089FA0790FFE701F04FFC00280BD1FFE7E7
:1013E000FFF780FA0799401A032803D3FFE7032089
:1013F00009903BE2EFE70898406901F043FC16E0F2
:1014000001F02AFCFFF76EFA0790FFE701F034FCC9
:1014100000280BD0FFE7FFF765FA0799401A032869
:1014200003D3FFE70320099020E2EFE7FFE7FFE7A0
:10143000FFE7089800780007002878D5FFE70898AC
:10144000806900285BD0FFE79420C5F600000068A3
:1014500003900898C069039901F01001884237D0C1
:10146000FFE79DF80C008007002809D5FFE79DF8ED
:101470000C00C007002803D1FFE701200990F5E127
:101480009DF80C00C007002817D0FFE701F048FCCA
:10149000FFF728FA0790FFE701F052FC00280BD075
:1014A000FFE7FFF71FFA0799401A122803D3FFE757
:1014B00003200990DAE1EFE7FFE79420C5F600008A
:1014C000016821F01001089AD26911430160FFE719
:1014D00001F02EFCFFF706FA0790FFE701F030FC61
:1014E00000280BD1FFE7FFF7FDF90799401A1228F2
:1014F00003D3FFE703200990B8E1EFE716E001F01E
:101500000FFCFFF7EFF90790FFE701F019FC002847
:101510000BD0FFE7FFF7E6F90799401A122803D32B
:10152000FFE703200990A1E1EFE7FFE7FFE7089855
:1015300000784007002840F1DD80FFE701F004FB60
:10154000002817D1FFE7FFF737FAFFF7CBF907902D
:10155000FFE701F0F9FA00280BD1FFE7FFF7C2F926
:101560000799401A032803D3FFE7032009907DE180
:10157000EFE7FFE70898C06800287CD0FFE70898ED
:10158000C068852805D0FFE70898C068052808D1FD
:10159000FFE79020C5F60000016841F004010160FA
:1015A000FFE7FFF79FF907909020C5F6000001685C
:1015B00041F001010160FFE701F0A2FB00280DD11D
:1015C000FFE7FFF78FF90799401A41F28931884206
:1015D00003D3FFE70320099048E1EDE70898C068CE
:1015E000812805D0FFE70898C068852821D1FFE74A
:1015F000FFF778F907909020C5F60000016841F0E8
:1016000080010160FFE79020C5F60000006800053A
:1016100000280DD4FFE7FFF765F90799401A41F25A
:101620008931884203D3FFE7032009901EE1EAE7EE
:1016300020E0FFF757F907909020C5F600000168F9
:1016400021F080010160FFE79020C5F600000068EE
:10165000000500280DD5FFE7FFF744F90799401A68
:1016600041F28931884203D3FFE703200990FDE06E
:10167000EAE7FFE73DE0FFF735F907909020C5F670
:101680000000016821F080010160FFE79020C5F6AD
:1016900000000068000500280DD5FFE7FFF722F9DC
:1016A0000799401A41F28931884203D3FFE70320AA
:1016B0000990DBE0EAE7FFF715F907909020C5F6FF
:1016C0000000016821F001010160FFE701F018FB53
:1016D00000280DD0FFE7FFF705F90799401A41F2FE
:1016E0008931884203D3FFE703200990BEE0EDE78C
:1016F000FFE7FFE70898C06A002800F0B480FFE722
:1017000006980C287BD0FFE70898C06A022850D1C1
:10171000FFE701F055FBFFF7E5F80790FFE701F061
:101720007FFB00280BD0FFE7FFF7DCF80799401A92
:101730000B2803D3FFE70320099097E0EFE70C2085
:10174000C5F60000016848F28C02C1F2C1121140D6
:10175000089A136BD2F834C0D2F838E0D46B43EA5D
:101760000C0343EA0E232343D2F840C043EA0C03A0
:10177000526C1A4311430160009001F029FB00985C
:10178000016841F080510160FFF7ACF80790FFE776
:1017900001F046FB00280BD1FFE7FFF7A3F80799FC
:1017A000401A0B2803D3FFE7032009905EE0EFE720
:1017B00024E001F005FB0C20C5F60000016821F0D3
:1017C0000301016001684FF6FF72CEF6FE62114020
:1017D0000160FFF787F80790FFE701F021FB002881
:1017E0000BD0FFE7FFF77EF80799401A0B2803D3C9
:1017F000FFE70320099039E0EFE7FFE732E00898C0
:10180000C06A012803D1FFE7012009902EE00C20D7
:10181000C5F6000000680590059800F003000899DF
:10182000096B884219D1FFE7059800F0700008990C
:10183000496B884211D1FFE7059800F4FE400899F2
:10184000896BB0EB012F08D1FFE7059800F06040ED
:101850000899496C884203D0FFE70120099005E010
:10186000FFE7FFE7FFE700200990FFE709980AB0CC
:1018700010BD000081B0009001B0704783B00290AD
:1018800001914BF20010C4F2000000900198009901
:1018900001EB800000900098006803B070470000E2
:1018A00084B00390029101924BF20010C4F2000048
:1018B00000900298009901EB800000900198009937
:1018C000086004B07047000082B00090FFE7009805
:1018D000C06A012803D1FFE7022001902CE00098A4
:1018E0000121C162FFE7FFE7009802210163FFE7E2
:1018F00042F62400C4F20000CA21016053210160B5
:10190000FFE742F61800C4F20000016841F0200130
:101910000160FFE742F62400C4F20000FF210160ED
:10192000FFE7009801210163FFE700980021C162F1
:10193000FFE700200190FFE7019802B07047000028
:1019400080B582B0019005F007FA00900098013050
:1019500005F010FA02B080BD80B582B0019042F669
:101960005400C4F200000068400600280AD5FFE7D2
:1019700042F65C00C4F20000402101600198FFF7CC
:10198000DFFFFFE701980121016302B080BD000085
:1019900082B00090FFE70098C06A012803D1FFE7FA
:1019A0000220019034E000980121C162FFE7FFE7C7
:1019B000009802210163FFE742F62400C4F2000010
:1019C000CA21016053210160FFE742F61800C4F20A
:1019D0000000016841F08001016040F68000C5F61A
:1019E0000000016841F480210160FFE742F6240015
:1019F000C4F20000FF210160FFE7009801210163AC
:101A0000FFE700980021C162FFE700200190FFE797
:101A1000019802B07047000080B582B0019005F0D7
:101A2000D5FB02B080BD000080B582B0019042F6C7
:101A30005400C4F2000000680199496B084000900E
:101A40009DF80000C00700280AD0FFE742F65C00BE
:101A5000C4F20000012101600198FFF7DDFFFFE7FC
:101A60009DF80000800700280AD5FFE742F65C00D9
:101A7000C4F20000022101600198FFF7FBFEFFE7BE
:101A800001980121016302B080BD000083B0019084
:101A90000091FFE70198C06A012803D1FFE7022007
:101AA000029055E001980121C162FFE7FFE701982C
:101AB00002210163FFE742F62400C4F20000CA21BC
:101AC000016053210160FFE70098B0F5807F16D1D7
:101AD000FFE742F64400C4F20000016821F0004133
:101AE000016042F61800C4F20000016821F4885138
:101AF00001600198416B21F00101416315E042F65C
:101B00004C00C4F20000016821F00041016042F67F
:101B10001800C4F20000016821F408510160019826
:101B2000416B21F002014163FFE7FFE742F6240029
:101B3000C4F20000FF210160FFE701980121016369
:101B4000FFE701980021C162FFE700200290FFE754
:101B5000029803B07047000080B582B00190012068
:101B600000900198002878D0FFE70198006B0028CA
:101B700007D1FFE701980021C162019800F070F8D9
:101B8000FFE7019802210163FFE742F62400C4F257
:101B90000000CA21016053210160FFE7019801F0B4
:101BA000D9FC00900098002846D1FFE742F61800C3
:101BB000C4F2000001684FF6BF72CFF68F321140B9
:101BC000016001994A680B6989691A4311430268E7
:101BD0001143016001988168C06840EA014042F603
:101BE0001001C4F20001086042F60C00C4F20000CB
:101BF000016821F4F851019A536A926A1A43114319
:101C00000160019801F0E8FC00900098002812D1D2
:101C1000FFE742F61800C4F20000016821F06041BD
:101C2000019A5369D2F81CC0126A42EA0C021A43A4
:101C300011430160FFE7FFE7FFE742F62400C4F22B
:101C40000000FF210160FFE70098002804D1FFE7B2
:101C5000019801210163FFE7FFE7009802B080BD12
:101C600080B594B0129004A83821FEF76DFB12984D
:101C7000006842F60001C4F2000188422DD1FFE75E
:101C80004FF4803004904FF40070119004A8FEF7D8
:101C90009DFE002807D0FFE7FFE7EFF3108072B644
:101CA0001390FFE7FEE700F079FF4FF4806000F04B
:101CB000F9FE0220002103900291029AFEF752FEE3
:101CC0000398FEF747FE2A2001900299029AFEF738
:101CD00049FE0198FEF73EFEFFE714B080BD00000C
:101CE00080B58AB008900791069200200590FFE722
:101CF0000898C06A012803D1FFE70220099027E174
:101D000008980121C162FFE7FFE7089802210163FB
:101D100042F60C00C4F20000006800F44070049029
:101D20000498B0F5807F68D0FFE7069800283FD17F
:101D3000FFE742F61800C4F20000006840060028E1
:101D400001D5FFE703E007980021C170FFE707987E
:101D5000006A002801D1FFE700E0FFE7079800785C
:101D600001F0D6FB0004079949780390084601F07A
:101D7000CFFB039941EA0020079989780290084631
:101D800001F0C6FB029908440799CA7891F824101B
:101D900040EA82500190084601F0BAFB019941EAFD
:101DA000006007994A69096A08431043059023E0D7
:101DB00042F61800C4F2000000684006002801D571
:101DC000FFE703E007980021C170FFE7079801785B
:101DD0004278837890F803C0090441EA022119444B
:101DE00041EA8C5190F8242041EA0261026A1143D1
:101DF000406908430590FFE7FFE7FFE742F624004C
:101E0000C4F20000CA21016053210160FFE7079876
:101E1000806AB0F5807F40D1FFE742F61800C4F237
:101E20000000016821F48851016042F65C00C4F2B0
:101E30000000012101600498B0F5807F0AD1FFE71E
:101E400007988169C069084342F64401C4F2000161
:101E500008600DE0059842F64001C4F200010860F8
:101E60000798806942F64401C4F200010860FFE768
:101E70000798406842F67001C4F2000108600898B3
:101E8000416B41F00101416342F61800C4F20000C9
:101E9000016841F4885101603FE042F61800C4F245
:101EA0000000016821F40851016042F65C00C4F2B0
:101EB0000000022101600498B0F5807F0AD1FFE79D
:101EC00007988169C069084342F64C01C4F20001D9
:101ED00008600DE0059842F64801C4F20001086070
:101EE0000798806942F64C01C4F200010860FFE7E0
:101EF0000798406842F67401C4F20001086008982F
:101F0000416B41F00201416342F61800C4F2000047
:101F1000016841F408510160FFE740F68000C5F612
:101F20000000016841F400310160FFE742F624003F
:101F3000C4F20000FF210160FFE70898012101635E
:101F4000FFE708980021C162FFE700200990FFE742
:101F500009980AB080BD000080B584B0029042F6B6
:101F60000C00C4F20000016861F0A0010160FEF7FE
:101F7000B9FC0190FFE742F60C00C4F200000068D3
:101F8000800600280CD4FFE7FEF7ACFC0199401A4C
:101F9000B0F57A7F03D9FFE70320039003E0EAE777
:101FA00000200390FFE7039804B080BD80B586B0A1
:101FB0000590049104980028039004D0FFE703984B
:101FC00001280BD016E040F21800C2F200000068B1
:101FD000802102900846029988470CE040F21800E0
:101FE000C2F2000000684FF4807101900846019928
:101FF000884700E0FFE706B080BD000080B582B0F2
:10200000019040F21800C2F20000006840210090E8
:1020100008460099884702B080BD000080B58CB0AA
:102020009C460A9009910892ADF81E3008980590D8
:102030000A98C068012855D1FFE7FFE70A98806831
:10204000012803D1FFE702200B904EE00A980121FE
:102050008160FFE7FFE70A9803F0E4FB039000F0DC
:102060007BFD0A989DF8241003F080FB0A9900225A
:10207000029008461146019203F078FB0199ADF8F1
:102080001210FFE7BDF81200BDF81E1088420EDAEC
:10209000FFE70A98059903F00FFB059901310591B7
:1020A000FFE7BDF812000130ADF81200EAE700F0DA
:1020B0006BFD0A9803F0D4FB0A990969002903D043
:1020C000FFE70120069002E000200690FFE70A9853
:1020D0000121C160FFE70A9800218160FFE70698AF
:1020E0000B9002E002200B90FFE70B980CB080BD34
:1020F00080B588B09C46069005910492ADF80E30EC
:102100000698C068012861D1FFE7FFE7069880685C
:10211000012803D1FFE7022007905AE00698012129
:102120008160FFE7FFE7069803F07CFB05998429AF
:1021300004D0FFE70598942804D1FFE70698012111
:10214000017103E0069800210171FFE700F004FD32
:1021500006989DF8141003F009FB0021ADF8061055
:10216000FFE7BDF80600BDF80E1088420EDAFFE763
:1021700006980499BDF80620895C03F0F7FAFFE79A
:10218000BDF806000130ADF80600EAE700F0FCFCFF
:102190000598842804D0FFE7069803F061FBFFE769
:1021A00006980069002803D0FFE70120029002E0B2
:1021B00000200290FFE706980121C160FFE7069822
:1021C00000218160FFE70298079002E0022007905B
:1021D000FFE7079808B080BD80B582B0019040F25B
:1021E0001800C2F200000068202100900846009903
:1021F000884702B080BD000080B582B0019040F2F7
:102200001800C2F2000000681021009008460099F2
:10221000884702B080BD000080B584B003900020E4
:10222000ADF80A00039812210DF10A020223FFF70C
:10223000F5FE9DF80A10ADF80810BDF808109DF8DD
:102240000B2042EA0121ADF80810BDF80810C907BB
:10225000002904D0FFE7039800F028FAFFE7BDF853
:10226000080000F002000021B1EB500F04D0FFE79E
:10227000039800F0EBF9FFE7BDF8080000F0040058
:102280000021B1EB900F04D0FFE7039800F0DEF8D7
:10229000FFE7BDF8080000F008000021B1EBD00F07
:1022A00004D0FFE7039800F0F1F9FFE7BDF808005C
:1022B00000F010000021B1EB101F04D0FFE70398DD
:1022C000FFF79AFFFFE7BDF8080000F020000021AB
:1022D000B1EB501F04D0FFE70398FFF77DFFFFE746
:1022E000BDF8080000F040000021B1EB901F04D0C1
:1022F000FFE70398FFF782FEFFE79DF80800002143
:10230000B1EBD01F14D0FFE7BDF8080000F48070D7
:102310000021B1EB102F05D0FFE703980121FFF753
:1023200045FE04E003980021FFF740FEFFE7FFE7CA
:10233000BDF8080000F400700021B1EB502F04D06C
:10234000FFE7039800F092F9FFE703980DF10A0206
:1023500002210191019BFFF7CBFE04B080BD00007C
:1023600080B584B002900298002805D1FFE70120D3
:1023700001900198039053E000200190FFE702983C
:10238000C068002807D1FFE7029800218160029809
:1023900000F04AF8FFE702980221C16000F046FD14
:1023A00048F20000C2F200000068C0EBC000C0F3B9
:1023B0004C40642148430090FFE70098002805D175
:1023C000FFE7012001900299086108E000980138B8
:1023D0000090FFE700F08CFC0028EED1FFE700F052
:1023E000D3FB4FF4805000F08BFB4FF4006000F003
:1023F000BDFB00F091FB019800280BD1FFE702988C
:10240000006803F03FF90298012101710298002150
:102410000161FFE702980121C16001980390FFE785
:10242000039804B080BD000080B584B00390012003
:1024300000F048FB3220002102900191019AFEF742
:1024400091FA0298FEF786FA04B080BD80B582B09A
:10245000019040F21800C2F20000006804210090D0
:1024600008460099884702B080BD000080B58CB056
:102470009C468E460A908DF827100892ADF81E30C3
:10248000089805900A98C06801285CD1FFE7FFE72B
:102490000A988068012803D1FFE702200B9055E0DD
:1024A0000A9801218160FFE7FFE70A9803F0BAF973
:1024B000039000F051FB0A981E2103F057F90A9986
:1024C0009DF8272002900846114603F04FF90A991B
:1024D0000022019008461146009203F047F9009946
:1024E000ADF81210FFE7BDF81200BDF81E108842CB
:1024F0000EDAFFE70A98059903F0DEF80599013135
:102500000591FFE7BDF812000130ADF81200EAE7CF
:1025100000F03AFB0A9803F0A3F90A990969002927
:1025200003D0FFE70120069002E000200690FFE7BD
:102530000A980121C160FFE70A9800218160FFE746
:1025400006980B9002E002200B90FFE70B980CB06E
:1025500080BD000080B58EB09C468E460C90ADF8D4
:102560002E100A92ADF826300A9807900C98C06891
:10257000012864D1FFE7FFE70C988068012803D1A8
:10258000FFE702200D905DE00C9801218160FFE7DC
:10259000FFE70C9803F046F9059000F0DDFA0C987F
:1025A0001D2103F0E3F80C999DF82F2004900846B4
:1025B000114603F0DBF80C999DF82E200390084695
:1025C000114603F0D3F80C990022029008461146F8
:1025D000019203F0CBF80199ADF81A10FFE7BDF8AE
:1025E0001A00BDF8261088420EDAFFE70C9807990A
:1025F00003F062F8079901310791FFE7BDF81A006F
:102600000130ADF81A00EAE700F0BEFA0C9803F0CA
:1026100027F90C990969002903D0FFE701200890E8
:1026200002E000200890FFE70C980121C160FFE75D
:102630000C9800218160FFE708980D9002E00220CD
:102640000D90FFE70D980EB080BD000080B582B000
:10265000019040F21800C2F20000006802210090D0
:1026600008460099884702B080BD000080B582B05E
:10267000019040F21800C2F2000000684FF40071AF
:10268000009008460099884702B080BD80B582B0AE
:10269000019040F21800C2F200000068082100908A
:1026A00008460099884702B080BD000080B582B01E
:1026B000019040F21800C2F2000000680121009071
:1026C00008460099884702B080BD000080B58AB0F6
:1026D0009C468E4608908DF81F100692ADF8163075
:1026E0000898C068012854D1FFE7FFE70898806880
:1026F000012803D1FFE7022009904DE0089801214D
:102700008160FFE7FFE7089803F08CF8029000F083
:1027100023FA08980E2103F029F808999DF81F2044
:1027200001900846114603F021F80021ADF80E1083
:10273000FFE7BDF80E00BDF8161088420EDAFFE77D
:1027400008980699BDF80E20895C03F00FF8FFE7A2
:10275000BDF80E000130ADF80E00EAE700F014FA03
:10276000089803F07DF808990969002903D0FFE76C
:102770000120049002E000200490FFE70898012166
:10278000C160FFE7089800218160FFE70498099085
:1027900002E002200990FFE709980AB080BD00001E
:1027A00080B58AB09C468E460890ADF81E10069201
:1027B000ADF816300898C06801285FD1FFE7FFE741
:1027C00008988068012803D1FFE70220099058E0AB
:1027D000089801218160FFE7FFE708980221C160A6
:1027E000089803F01FF8029000F0B6F908980D2140
:1027F00002F0BCFF08999DF81F2001900846114681
:1028000002F0B4FF08999DF81E200090084611467A
:1028100002F0ACFF0021ADF80E10FFE7BDF80E008E
:10282000BDF8161088420EDAFFE708980699BDF841
:102830000E20895C02F09AFFFFE7BDF80E00013020
:10284000ADF80E00EAE700F09FF9089803F008F8E9
:1028500008990969002903D0FFE70120049002E0EC
:1028600000200490FFE708980121C160FFE7089865
:1028700000218160FFE70498099002E0022009909E
:10288000FFE709980AB080BDFFE7FEE780B54FF08B
:1028900090401021FDF7FAFFC0B280BD80B54FF027
:1028A00090404FF48051FDF7F1FFC0B280BD0000B1
:1028B00080B58AB000200990089007900690059096
:1028C000012104900846039100F0CCF8049806908A
:1028D0000399079103220892102205924FF090422B
:1028E00005AB1046194602920193FDF74DFE4FF4D9
:1028F0008050059002980199FDF746FE0AB080BD10
:1029000080B582B00190019848F28801C2F20001BE
:1029100001EBC002526831F83010002000901046E0
:10292000009AFDF7C9FF02B080BD000080B58AB0F3
:1029300000200990089007900690059002210390CE
:10294000084600F07FF8042000F07CF80120029097
:1029500000F078F8029806900790032108910399F7
:102960008DF81310FFE79DF8130003282FDCFFE715
:102970009DF8130048F28801C2F2000131F83000DE
:1029800005909DF8130001EBC000406805A9FDF714
:10299000FBFD9DF81300C0EBC00140F2DC02C2F267
:1029A000000202EB81016A46106042F60113C0F694
:1029B00000030020019008460199019A04F0A4FB4D
:1029C000FFE79DF8130001308DF81300CBE70AB044
:1029D00080BD000080B584B003900291039848F256
:1029E0008801C2F2000101EBC002526831F83010D8
:1029F000012001901046019AFDF75EFF0298002821
:102A00000DD0FFE70398C0EBC00040F2DC01C2F23A
:102A1000000101EB8000029904F044FDFFE704B0DF
:102A200080BD000082B0019001984C21C5F60001E4
:102A30000A681043086008680199084000900098EF
:102A400002B0704782B0019001984C21C5F6000198
:102A50000A681043086008680199084000900098CF
:102A600002B0704782B0019001984C21C5F6000178
:102A70000A681043086008680199084000900098AF
:102A800002B0704782B0019001984C21C5F6000158
:102A90000A6810430860086801990840009000988F
:102AA00002B0704782B0019001985821C5F600012C
:102AB0000A6810430860086801990840009000986F
:102AC00002B0704782B0019001986421C5F6000100
:102AD0000A6810430860086801990840009000984F
:102AE00002B0704781B0009040F20810C5F60000B7
:102AF000016821F0F001009A1143016001B07047B4
:102B000081B00090009840F69001C5F600010A6877
:102B10001043086001B0704740F21840C5F600004D
:102B20004FF400610160704740F21440C5F60000A8
:102B30000068C0F38000704740F21440C5F6000002
:102B40000068C0F34000704740F20040C5F6000046
:102B50000068C0F30020704740F29040C5F60000C6
:102B6000016821F4004101607047000081B00090CD
:102B700040F20840C5F60000016821F40061009AA7
:102B80001143016001B0704740F29040C5F600006B
:102B9000016841F400410160704700009020C5F6D3
:102BA0000000016841F40041016070479020C5F6C3
:102BB0000000016841F480310160704740F2081064
:102BC000C5F60000006800F00F000001704700002B
:102BD0000820C5F60000006800F0F0007047000013
:102BE0009020C5F60000006800F4407070470000B7
:102BF0000820C5F60000006800F00C0070470000D7
:102C00004FF0B040016821F480310160704700004E
:102C10004FF0B040016821F40011016070470000DE
:102C20004FF0B040016841F480310160704700000E
:102C30004FF0B040016841F400110160704700009E
:102C40004FF0B0400068C0F3005070474FF0B04004
:102C50000068C0F3404070474FF0B040016821F475
:102C600080710160704700004FF0B040016841F48E
:102C700080710160704700004FF0B0400068C0F301
:102C80008020704781B000900420C5F600000168E4
:102C900021F0FE41009A41EA0261016001B07047F3
:102CA00040F20810C5F600000068C0F340407047CD
:102CB0000820C5F600000068C0F30040704700001F
:102CC0000820C5F600000068C0F3404070470000CF
:102CD0000820C5F600000068C0F38040704700007F
:102CE00040F20810C5F600000068C0F300407047CD
:102CF0009420C5F600000068C0F3803070470000E3
:102D00009020C5F600000068C0F340007047000046
:102D10009020C5F600000068C0F340007047000036
:102D20009420C5F60000016821F0010101607047A0
:102D30009420C5F60000016841F001010160704770
:102D40009420C5F600000068C0F340007047000002
:102D50004FF0B040016821F00101016070470000B0
:102D60004FF0B040016841F0010101607047000080
:102D70004FF0B040006800F0F00070479420C5F6B6
:102D80000000006800F47060704700004FF0B04031
:102D90000068C0F3C00070474FF0B0400068C0F357
:102DA0004000704781B000900420C5F60000016823
:102DB00021F47F41009A41EA0221016001B070478D
:102DC0004FF0B040016821F0807101607047000051
:102DD0004FF0B040016841F0807101607047000021
:102DE0000C20C5F60000006800F07000704700007D
:102DF0000C20C5F60000006800F0030070470000DA
:102E00000C20C5F600000068C0F3062070470000E3
:102E10000C20C5F60000006800F06040704700001C
:102E20004FF0B0400068C0F3406070479420C5F692
:102E30000000016821F40041016070479020C5F650
:102E40000000016821F480310160704781B000907A
:102E50008820C5F60000016821F04051009A114316
:102E6000016001B07047000081B0009040F208108E
:102E7000C5F60000016821F00F01009A41EA121125
:102E8000016001B07047000081B000900820C5F6D5
:102E90000000016821F0F001009A1143016001B0C7
:102EA0007047000081B000900820C5F6000001685E
:102EB00021F4E061009A1143016001B07047000005
:102EC00081B000900820C5F60000016821F460512F
:102ED000009A1143016001B07047000081B000907A
:102EE0008820C5F600000168009A6FF47F2363EA2A
:102EF0001213194002F47F4241EA0211016001B04D
:102F00007047000081B000908820C5F6000001687D
:102F100021F44071009A1143016001B07047000034
:102F200081B000908820C5F600000168009A4FF635
:102F3000FF7363EA0203194041EA0241016001B0F4
:102F40007047000081B000908820C5F6000001683D
:102F500021F44061009A1143016001B07047000004
:102F600081B000908820C5F60000016821F0404142
:102F7000009A1143016001B07047000081B00090D9
:102F80009020C5F60000016821F44071009A1143B9
:102F9000016001B07047000081B000900820C5F6C4
:102FA0000000016821F00301009A1143016001B0A3
:102FB0007047000081B000908820C5F600000168CD
:102FC000009A21EA124192B21143016001B07047A8
:102FD00081B000900098806801B0704781B0009087
:102FE00040F29D00C2F200000121017048F2FC2075
:102FF000C2F200000021017001B0704780B582B0BC
:10300000019040F29C00C2F200000078002819D123
:10301000FFE740F29C00C2F200000121017047F678
:103020007C10C0F60000806A48F28401C2F2000100
:10303000097848F20402C2F2000200901046009A99
:103040009047FFE702B080BD80B582B048F21C30E7
:10305000C2F2000008210160FFF782F9002807D0C2
:10306000FFE7FFE7EFF3108072B60190FFE7FEE79E
:1030700002B080BDFFE7FEE77047000088B0079010
:1030800006910592079800F0070004900498C0F19B
:103090000700052803D3FFE70420019004E004980B
:1030A000C0F107000190FFE70198039004980430F5
:1030B000062803D8FFE70020009003E004980338B7
:1030C0000090FFE70098029006980399012202FA07
:1030D00001F10139084002998840059B02FA01F18B
:1030E00001391940084308B07047000081B001461B
:1030F0008DF8030001B0704710B586B09C46964627
:103100000C460590ADF81210ADF810208DF80F3078
:103110000598BDF8121000224254059847F6242164
:10312000C0F60001CDF808C0CDF804E00094FDF72A
:1031300033F9002801D1FFE70CE0059847F6292173
:10314000C0F60001FDF728F9002801D1FFE700E0F3
:103150000FE0FFE740F2A000C2F2000044F6206159
:1031600004F0A0F940F29D01C2F2000100220A70B1
:10317000FFE706B010BD000080B582B047F67C10B6
:10318000C0F60000406B0021019008460199884775
:1031900002B080BD80B582B047F67C10C0F600005A
:1031A000406B0021019008460199884702B080BD1C
:1031B00080B582B047F67C10C0F60000406B00215D
:1031C00001900846019A0091904740F29C00C2F29B
:1031D00000000099017002B080BD000080B582B08F
:1031E00047F67C10C0F60000406B002101900846B5
:1031F0000199884702B080BD7047000080B58AB051
:10320000099009980328089064D80899DFE801F02C
:10321000021A324A40F20040C4F6000001210022A6
:103220000792FDF749FB4FF090404FF480710690F4
:10323000079AFDF741FB4FF400710698079AFDF7D6
:103240003BFB48E040F20040C4F60000012105913C
:10325000059AFDF731FB4FF090404FF480710490D8
:10326000059AFDF729FB4FF4007100220498FDF741
:1032700023FB30E040F20040C4F60000012103913E
:10328000039AFDF719FB4FF090404FF480710290C4
:10329000039AFDF711FB4FF400710298039AFDF7B2
:1032A0000BFB18E040F20040C4F600000121019140
:1032B000019AFDF701FB4FF090404FF4807100221E
:1032C0000090FDF7F9FA4FF400710098019AFDF7AC
:1032D000F3FA00E0FFE700200AB080BD002070474D
:1032E0000A20704780B58CB000200B900A9009909E
:1032F00008900790022106900846FFF793FB0120F3
:103300000590FFF78FFB0598FFF78CFB4FF480705B
:10331000079005990891069A099203230A934FF0A2
:1033200090430DF11C0C0490184661460393CDF8B0
:1033300008C0FDF729F94FF4007007900399019038
:1033400008460299FDF720F90598079040F20041E0
:10335000C4F600010846029A00911146FDF714F9DF
:1033600003980199069AFDF7A7FA03980499069A1B
:10337000FDF7A2FA00980599069AFDF79DFA0698BE
:103380000CB080BD002070470020704780B58EB023
:103390000C900B9147F62600C0F600008188ADF82E
:1033A00028100068099047F62C00C0F600008188BC
:1033B000ADF820100068079047F63400C0F6000012
:1033C000016842688068069005920491002003908D
:1033D0000B98B0F5007F1BD1FFE700200190FFE7BD
:1033E0000198022813D8FFE70C98019909AA32F82E
:1033F0001110884206D8FFE7019804A951F820006F
:10340000039004E0FFE7019801300190E8E71AE03B
:1034100000200090FFE70098022813D8FFE70C98DF
:10342000009907AA32F81110884206D8FFE70098E1
:1034300004A951F82000039004E0FFE70098013050
:103440000090E8E7FFE744F20000C5F600000168DD
:1034500021F00701039A11430160FDF743FA02903E
:10346000FFE744F20000C5F60000006800F0070026
:10347000039988420BD0FFE7FDF734FA0299401A0E
:10348000032803D3FFE703200D9003E0E9E70020C2
:103490000D90FFE70D980EB080BD000080B588B09C
:1034A0000790079800F0F000800847F63C11C0F63E
:1034B00000010858059005980490FFF77FFB3C2118
:1034C00001EA900047F64001C0F60001085804994F
:1034D000B1FBF0F0069006984DF68361C4F21B3103
:1034E000A0FB0101890C03900291FDF75DFA02999E
:1034F000019008460199FFF749FF08B080BD000020
:1035000080B540F24400C2F20000FEF78DFA80BDA3
:1035100083B001468DF80B00002001909DF80B0050
:103520008DF80300FFE79DF803000A2809D3FFE7A1
:103530000198013001909DF803000A388DF80300CE
:10354000F1E7019800F00F009DF8031041EA001028
:1035500003B0704780B584B003900020019042F61C
:103560000C00C4F2000000684006002831D4FFE7D8
:1035700042F60C00C4F20000016841F080010160D5
:10358000FDF7B0F90290FFE742F60C00C4F200002C
:103590000068002140060028009106D4FFE701984A
:1035A000033818BF01200090FFE70098C0070028EB
:1035B0000ED0FFE7FDF796F90299401AB0F57A7F31
:1035C00005D9FFE70320019003990863FFE7DBE7D4
:1035D000FFE7019804B080BD80B582B00190002063
:1035E000009042F60C00C4F20000016821F0800156
:1035F000016042F61800C4F200000068800600284E
:103600000CD4FFE70198FEF7A7FC002805D0FFE7E0
:103610000198032101630091FFE71BE042F61800C7
:10362000C4F20000016821F0200101600198FEF75A
:1036300093FC002805D0FFE7019803210163009166
:10364000FFE742F61800C4F20000016841F02001D3
:103650000160FFE7009802B080BD000080B58EB029
:1036600068462C21FCF770FE40F24400C2F20000D4
:1036700042F60001C4F2000101601F2181600021B7
:103680000161416181614FF08042C26101624FF48A
:1036900080714162FEF760FA002807D0FFE7FFE77C
:1036A000EFF3108072B60B90FFE7FEE740F24400A4
:1036B000C2F20000FEF76CF9002807D0FFE7FFE731
:1036C000EFF3108072B60C90FFE7FEE70020079042
:1036D000019005904FF0005006904FF480700A90D2
:1036E00040F24400C2F2000069460122FEF7F8FAF7
:1036F000002807D0FFE7FFE7EFF3108072B60D90C8
:10370000FFE7FEE70EB080BD81B00090012001B060
:103710007047000083B001900198002804D1FFE7B2
:103720001F208DF80B0029E000208DF80300FFE733
:103730009DF8030015281FD8FFE701989DF8031096
:1037400047F68C02C0F6000252F8311088420CD2C3
:10375000FFE79DF8030047F68C01C0F6000101EB7E
:10376000C00000798DF80B0008E0FFE79DF803002A
:1037700001308DF80300DBE7FFE7FEE79DF80B0063
:1037800003B0704770B583B0DDF820C0DDF81CE0F1
:103790001C4615460E4602908DF80710ADF8042021
:1037A0008DF803308DF802E08DF801C0BDF80400FB
:1037B000C1009DF80320082303EBC000D207002AB4
:1037C00008BF01469DF802009DF801204FEAC27231
:1037D00000F10203002A18BF184601EBC00000F1F7
:1037E000180003B070BD000083B00290002001906B
:1037F00002980A28009036D80099DFE801F0060EFA
:10380000161E22282E340A121A0041F684600190F6
:1038100029E042F6B100019025E043F609500190FD
:1038200021E045F2611001901DE047F61220019061
:1038300019E04AF2C320019015E04FF224400190B4
:1038400011E04EF64800C0F2010001900BE04DF28D
:103850009000C0F20300019005E04AF22010C0F28F
:1038600007000190FFE7019803B0704770B589B079
:10387000DDF83CC0DDF838E00D9C1D46164608908A
:1038800007918DF81B20ADF818308DF817408DF892
:1038900016E08DF815C09DF81B0004300490002040
:1038A0008DF80F000798052804D0FFE70798062831
:1038B0000AD1FFE7BDF818000B2804DCFFE70C2055
:1038C000ADF81800FFE7FFE70898002808D1FFE7E8
:1038D00007980B280CD0FFE707980C2808D0FFE7C3
:1038E0000898012808D1FFE707980C2804D1FFE7C2
:1038F00001208DF80F00FFE79DF81600C1009DF82C
:103900001520102303EBC000D207002A18BF014680
:103910000798A1EB80009DF8171000F114024FEA00
:10392000C171002918BF024601920798062804D8E1
:10393000FFE707988000029014E00198083001909A
:103940009DF80F00C007002807D0FFE707986FF029
:10395000070101EB8000029003E0079880000290CD
:10396000FFE7FFE70198B0F1FF3F03DCFFE700202E
:103970000190FFE7019802990844013890FBF1F0AB
:103980000499BDF8182000FB01200C300090079826
:10399000062804D8FFE7009802300090FFE700985F
:1039A0008000013007990239012202FA01F14843EF
:1039B00009B070BD80B582B002F010F8014604284D
:1039C000009108D0FFE70098052807D0FFE700988E
:1039D000072806D008E00220019008E001200190AD
:1039E00005E00320019002E000200190FFE701982C
:1039F00002B080BD80B502F081F8033080BD0000C8
:103A000080B586B00590059840F21401C2F200011D
:103A1000086048F24820C2F2000000210171816074
:103A2000C16043F65170C0F60000049102F0F4F852
:103A3000049800F007FD02F097FC0498049902F046
:103A4000A5F901200422049902F094FE4FF6FF70BC
:103A500003900399049A049B02F00AFA01F058FCBF
:103A6000FFE768460021016048F2E020C2F2000052
:103A700043F6A973C0F600034FF0FF3202911146DE
:103A8000029A03F041FBFFE7FFE76846002101606F
:103A900040F22000C2F2000043F66D73C0F600034E
:103AA0004FF0FF3201911146019A03F02DFBFFE721
:103AB000FFE748F2E020C2F2000003F01FFDFFE73D
:103AC000FFE740F22000C2F2000003F017FDFFE71D
:103AD00006B080BD80B58CB048F24820C2F200002C
:103AE000D0F8900001280A902ED0FFE70A9802280B
:103AF0004FD0FFE70A98042800F09681FFE70A9864
:103B0000082800F09281FFE70A98102800F08E81C3
:103B1000FFE70A98202800F08A81FFE70A984028EA
:103B200000F0C380FFE70A98802800F0E580FFE7F7
:103B30000A98B0F5807F00F00081FFE70A98B0F5A1
:103B4000007F00F01B81A1E1FFE748F2E020C2F214
:103B5000000003F0D3FCFFE7002002F03FFD40F23D
:103B60001400C2F200000068002811D0FFE740F204
:103B70001400C2F2000000680068002808D0FFE7C7
:103B800040F21400C2F20000006800688047FFE7BE
:103B90007DE1FFE740F22000C2F2000003F0AEFC3E
:103BA000FFE748F24820C2F200000079C007002871
:103BB00014D1FFE70020099002F010FD40F602103A
:103BC000099902F09FFE40F64410089002F090F828
:103BD00040F00201089802F095FEFFE748F2491014
:103BE000C2F200000DF12F01FF2201F05DFF48F24B
:103BF0004821C2F2000150310790084601F0F4FE5E
:103C000040F21400C2F20000006800284CD0FFE728
:103C100040F21400C2F2000000688068002843D01F
:103C2000FFE748F24820C2F20000006D01281DD1D4
:103C3000FFE740F21400C2F20000006880689DF8BF
:103C40002F1048F24822C2F2000292F95C3092F939
:103C50005D2048F2491CC2F2000C069060460592B5
:103C60001A46059BDDF818C0E0471CE040F214003E
:103C7000C2F20000006880689DF82F1048F24822C8
:103C8000C2F2000292F9553092F9582048F2491CCC
:103C9000C2F2000C0490604603921A46039BDDF8C2
:103CA00010C0E047FFE7FFE7F1E048F24820C2F22A
:103CB00000000079C007002804D1FFE7002002F0CF
:103CC0008DFCFFE740F21400C2F2000000680028FB
:103CD00011D0FFE740F21400C2F200000068006952
:103CE000002808D0FFE740F21400C2F2000000688C
:103CF00000698047FFE7CAE0002002F06FFC40F255
:103D00001400C2F200000068002815D0FFE740F25E
:103D10001400C2F200000068806900280CD0FFE7A0
:103D200040F21400C2F20000006880690021029095
:103D3000084602998847FFE7A9E0002002F04EFC00
:103D400040F21400C2F200000068002815D0FFE71E
:103D500040F21400C2F200000068806900280CD014
:103D6000FFE740F21400C2F2000000688069012100
:103D70000190084601998847FFE788E001F02EFE90
:103D8000042825D1FFE7FFE748F2E020C2F2000057
:103D900003F0B4FBFFE7002002F020FC40F2140027
:103DA000C2F200000068002811D0FFE740F21400C2
:103DB000C2F2000000684068002808D0FFE740F227
:103DC0001400C2F20000006840688047FFE72AE064
:103DD00001F004FE052825D1FFE7FFE740F22000AF
:103DE000C2F2000003F08AFBFFE7002002F0F6FBBE
:103DF00040F21400C2F200000068002811D0FFE772
:103E000040F21400C2F200000068C068002808D028
:103E1000FFE740F21400C2F200000068C06880476B
:103E2000FFE7FFE7FFE732E031E030E02FE0FFE7B8
:103E300040F22000C2F2000003F060FBFFE748F20E
:103E40004820C2F200000079C007002804D1FFE733
:103E5000002002F0C3FBFFE740F21400C2F20000B2
:103E60000068002811D0FFE740F21400C2F2000001
:103E70000068C068002808D0FFE740F21400C2F2D2
:103E800000000068C0688047FFE700E0FFE70CB073
:103E900080BD000080B594B0944613901291ADF8A7
:103EA0004620109301208DF83F000021ADF83C1012
:103EB0000E91CDF834C00C900B9101F041FA0B98A3
:103EC00000F078FA139800F033FA129869460C9AC9
:103ED0004A620B9B0B62CB618B614B610B61CB60C8
:103EE0008B604FF0030CC1F804C008604FF41672E9
:103EF0000A9018460A9900F0D7FA0B9800F0B2F829
:103F0000FFF778FD02F060FF03F038F90E90FFE74D
:103F10000E9803F043F91099884211D2FFE7002070
:103F200000F098F8ADF83C00BDF93C00BDF9461032
:103F3000884204DDFFE700208DF83F0000E0E7E75E
:103F400001F0FEF99DF83F0000F0010014B080BDC3
:103F500080B582B00190019848F24821C2F2000178
:103F6000C1F89000FFF7B6FD02B080BD80B582B009
:103F7000019040F21400C2F200000068002811D045
:103F8000FFE740F21400C2F200000068C068002899
:103F900008D0FFE740F21400C2F200000068C068D9
:103FA0008047FFE702B080BD80B582B0019040F24B
:103FB0001400C2F200000068002811D0FFE740F2B0
:103FC0001400C2F2000000684068002808D0FFE733
:103FD00040F21400C2F20000006840688047FFE72A
:103FE00002B080BD80B582B0002001900121009018
:103FF000084600F0DFF900980099009A009B01F054
:1040000037FF01F07FFD0190019802B080BD0000F4
:1040100080B582B00146ADF80600BDF806000091FB
:1040200001F066FE02B080BD80B586B013468446BE
:10403000ADF8160004918DF80F20BDF81600049914
:104040009DF80F200293CDF804C001F06FFE06B07A
:1040500080BD000080B582B0019001F093FD02B0F8
:1040600080BD000080B584B003904FF6FF70002142
:104070000290029A01911146019A019B01F0F8FE0B
:104080000398002812D0FFE7FFE7039940F22000D1
:10409000C2F2000003F05EF9FFE7FFE740F2200004
:1040A000C2F2000003F084F9FFE7FFE748F248207E
:1040B000C2F2000090F894100022009008461146C9
:1040C00002F0C2FA00980179C907002905D0FFE77C
:1040D0006FF07F4002F0DEF908E048F24820C2F2BB
:1040E0000000C068800102F0D5F9FFE704B080BD90
:1040F00080B584B003904FF6FF7000210290029AC1
:1041000001911146019A019B01F0B2FE039800282B
:1041100012D0FFE7FFE7039940F22000C2F200004F
:1041200003F018F9FFE7FFE740F22000C2F20000B9
:1041300003F03EF9FFE7FFE748F24820C2F2000033
:1041400090F89410002200900846114602F07CFA84
:1041500000980179C907002905D0FFE76FF07F407B
:1041600002F0B8F908E048F24820C2F20000C06846
:10417000800102F0AFF9FFE704B080BD80B594B0D4
:104180000A4613908DF84B1040F201200021089050
:10419000089B07911946DDF81CC0069262466346EB
:1041A00001F066FE48F24820C2F2000090F8941038
:1041B000012205900846114602F046FA059801686A
:1041C0000329049100F29C800499DFE801F01502B4
:1041D000283C9DF84B0048F24821C2F2000181F8CA
:1041E000440001F1140001F0D7FF13989DF84B1023
:1041F000002201F0B9FD84E09DF84B0048F248210F
:10420000C2F2000181F82C0001F1140001F0C4FF9A
:1042100013989DF84B10002201F0A6FD71E048F2C2
:104220004820C2F20000022140F8141F9DF84B10F4
:1042300080F8241001F0B0FF13989DF84B10002275
:1042400001F092FD5DE00AA823210390FCF75AF8E3
:1042500013999DF84B20039803F052FA48F2482036
:10426000C2F20000022140F8141F9DF84B100131EA
:1042700080F82410029001F08FFF0298416E6429AB
:1042800012D1FFE7F1200021019101F019F9F0208E
:10429000019901F015F9F320702101F011F9F220D4
:1042A0001D2101F00DF911E0F1200021009101F034
:1042B00007F9F020009901F003F9F320E12101F062
:1042C000FFF8F220042101F0FBF8FFE79DF84B0016
:1042D000C0000230ADF826009DF82710F42001F050
:1042E000EFF89DF82610F52001F0EAF89DF84B0054
:1042F0000130C1B20AA86FF07F4201F035FD00E045
:10430000FFE7FFE748F24820C2F20000816848F268
:10431000E020C2F2000003F01DF8FFE7FFE748F2DB
:10432000E020C2F2000003F043F8FFE714B080BDC4
:1043300080B582B00190019802F02EF802B080BDE5
:1043400080B582B00A4601908DF8031001980128CB
:1043500012D1FFE79DF8030040F20001C2F2000114
:10436000087048F24821C2F2000181F8440001F1CE
:10437000140001F011FF1AE048F24820C2F20000D8
:10438000806A012812D1FFE79DF8030040F2000186
:10439000C2F20001087048F24821C2F2000181F81F
:1043A0002C0001F1140001F0F7FEFFE7FFE702B077
:1043B00080BD000080B584B00390039848F2482186
:1043C000C2F20001086003980428029005D80299FF
:1043D000DFE801F0040F032E3200FFE70020019018
:1043E00001F090FF48F24820C2F2000001994174A8
:1043F00026E0012001F086FF48F24820C2F20000CA
:10440000017C407C00F0010001F0010188420ED0E7
:10441000FFE748F24820C2F20000017C01F00101F0
:104420004174407C00F0010000F00CF8FFE707E069
:10443000022001F067FF03E0002001F063FFFFE7C7
:1044400004B080BD80B582B001468DF807009DF8AC
:10445000070000F0010048F24822C2F20002107486
:10446000507401200091FFF7A5FF9DF80700C007D9
:1044700000280BD0FFE74FF4E860342102F042FA45
:1044800040F24170442102F03DFA0AE04FF4E86046
:10449000142102F037FA40F24170242102F032FA7E
:1044A000FFE702B080BD00002DE9F04FA3B0DDF8BA
:1044B000D4C0DDF8D0E0339C329D319E309FDDF8D2
:1044C000BC80DDF8B890DDF8B4A0DDF8B0B017938B
:1044D00022902191209217988DF87F00ADF87CA052
:1044E000ADF87A908DF879808DF878708DF87760D6
:1044F0008DF876508DF875408DF874E08DF873C0A6
:104500009DF8731001F0010148F24822C2F2000246
:1045100011719DF87310C907002904D0FFE700202E
:10452000ADF87A00FFE79DF87900C007002808D0B1
:10453000FFE79DF8780040F20001C2F20001087028
:1045400006E040F20000C2F20000FF210170FFE728
:1045500022980028169000F0C580FFE716980128E1
:1045600000F04C81FFE71698042840F00C82FFE72A
:104570000120159002F052F848F24820C2F20000E3
:104580000021024642F8641F209B836609230367CB
:104590004FF44873C366219B1490184613911292EE
:1045A000FFF7B8F8149981F87400139841F8140FC4
:1045B000BDF87C20D2008A80886010220A730861CE
:1045C000486140F20002C2F2000212780A76159A9F
:1045D000CA6108620423184611911093FFF7EAFE9E
:1045E000129801F0CBFC119801F0D6FDB2208DF8A5
:1045F0006A0027208DF86B0013988DF86C008DF8F9
:104600006D008DF86E008DF86F008DF870008DF8DC
:1046100071000DF16A0002F045F840F2FF110F90B1
:10462000084602F021F940F6B8000E90FFF7F0FCC2
:104630008DF872009DF8720000F0EF008DF87200A6
:104640009DF872100E9800F03BFF40F6B9001099EB
:1046500000F036FF40F69B000D90FFF7D9FC8DF877
:1046600072009DF8720000F0E3008DF872009DF872
:10467000720040F008010D9800F022FF40F2D16076
:104680000C90FFF7C5FC8DF872009DF8720000F0E9
:10469000E7008DF872009DF8720040F018010C9848
:1046A00000F00EFF40F2AC600B90FFF7B1FC8DF80C
:1046B00072009DF8720000F08F008DF872009DF876
:1046C000720040F050010B9800F0FAFEBDF87A003D
:1046D0004FF4FA5148432099B0FBF1F0119941F899
:1046E000080C51E100200A9001F098FF48F24820A0
:1046F000C2F200000A994166209A82660B22026784
:10470000219A09901046FFF705F8099981F874007D
:104710000A984861BDF87C20D2000A830422CA614D
:10472000182281F8202048629DF87920012323EA8D
:1047300002028A6240F20002C2F20002127881F89C
:104740002C209DF87720D207002A07D0FFE748F2F7
:104750004820C2F20000F221016306E048F248203E
:10476000C2F2000001210163FFE748F24820C2F2D3
:10477000000001214163089000F0E2FD089850F824
:10478000641FA0F15002002918BF012107900846BC
:104790000692FFF70FFE079801F0F0FB069801F074
:1047A000FBFC4FF0C1008DF862004FF094018DF8D2
:1047B00063108DF864004FF000008DF865008DF8EF
:1047C00066008DF867008DF868008DF869000DF1BE
:1047D000620001F067FF40F2FF110590084602F009
:1047E00043F8BDF87A004FF4FA5101FB00F020992C
:1047F000B0FBF1F0079941F8580CC5E0002001F03A
:104800000DFF48F24820C2F20000012141662099C4
:10481000C0F88010219947F68002C0F6000252F8D5
:104820002110C0F884109DF87F10C0F888102198DE
:10483000002808D1FFE720980B280CD0FFE720982C
:104840000C2808D0FFE7219801280CD1FFE7209819
:104850000C2808D1FFE748F24820C2F200000121ED
:1048600080F88C1007E048F24820C2F200000021D6
:1048700080F88C10FFE748F24820C2F200000121C6
:104880004161D0F88000052809D0FFE748F24820B0
:10489000C2F20000D0F88000062815D1FFE7BDF86D
:1048A0007C000B2807DCFFE748F24820C2F200003A
:1048B0000C21818707E0BDF87C0048F24821C2F254
:1048C00000018887FFE707E0BDF87C0048F2482137
:1048D000C2F200018887FFE79DF8790000F001002F
:1048E00048F24821C2F20001086440F20000C2F21E
:1048F0000000007881F844009DF8770000F0010086
:1049000088649DF8740000F00100C864049100F010
:1049100017FD049850F8641FA0F15002002918BF39
:104920000121039008460292FFF744FD039801F02D
:1049300025FB029801F030FC9DF87A0001F0D8FACE
:104940000498C16C01290BD1FFE740F23670019049
:1049500001F0CEF900F0FB01019801F0D3FF0AE06D
:1049600040F23670009001F0C3F940F00401009865
:1049700001F0C8FFFFE748F24820C2F200004FF6FE
:10498000FF71C16000E0FFE723B0BDE8F08F0000D9
:1049900080B584B0039002914FF6FF700021019022
:1049A000019A00911146009A009B01F061FA48F2C9
:1049B0004820C2F2000090F89400009901F044FEF3
:1049C0000398029901F0ACFD04B080BD80B596B0AB
:1049D0001490139112921193002010900F900E904A
:1049E0001298002803D0FFE700201190FFE71298EB
:1049F000002818BF012048F24821C2F200010871C6
:104A0000149800280B9005D0FFE70B98012800F0C0
:104A1000A18058E11398C068002805D0FFE71398DB
:104A20000069002804D1FFE74FF0FF3015904EE1F8
:104A30001398007E092804DBFFE74FF0FF30159044
:104A400045E100200C90FFE70C981399097E8842FD
:104A50000BDAFFE71398C0690C99405C0EAA50541A
:104A6000FFE70C9801300C90EEE7FFE71398C06A5F
:104A7000002805D1FFE71398006A8DF8370003E09E
:104A8000FF208DF83700FFE713980068002818BF53
:104A9000012001F0C3FD48F24820C2F200004FF0AF
:104AA0000001024642F8641F139BDB688366139B78
:104AB0005B680367139B9B680A90184609910892EC
:104AC000FEF728FE0A9981F87400099841F8140F3E
:104AD000139A12694FEAC2028A80139A52698A6055
:104AE000139A127E4FEAC2020A73139A926A0A61FB
:104AF000139AD26A4A619DF837200A76139A126B8C
:104B0000CA61139A926B0A62079100F019FC099826
:104B1000FFF750FC089801F031FA079801F03CFBD0
:104B20000EA801F0BFFD1399898C0690084601F08C
:104B30009BFE1398808E01F05FF911984FF4FA51A3
:104B400001FB00F01399C968B0FBF1F0079941F837
:104B5000080CB9E01398B0F85000002804D1FFE722
:104B60004FF0FF301590B2E01398406D012805D149
:104B7000FFE71398006A8DF8370003E0FF208DF8F7
:104B80003700FFE71398C06B002818BF012001F021
:104B900045FD9DF8440001F0ABF948F24820C2F20F
:104BA00000004FF0010141661399096CC0F88010B4
:104BB0001399496CC0F884101399896CC0F8881057
:104BC0001398C06C0028059008D0FFE705980128CD
:104BD0000CD0FFE70598022810D02AE048F24820C0
:104BE000C2F20000002180F88C1023E048F2482037
:104BF000C2F20000012180F88C101BE01398006CB9
:104C00000B2805D0FFE71398006C0C2808D1FFE7AC
:104C100048F24820C2F20000012180F88C1007E021
:104C200048F24820C2F20000002180F88C10FFE713
:104C300000E0FFE748F24820C2F20000012140F8FE
:104C4000141F139AB2F850200285139A526DC26253
:104C50009DF8372080F83020139AD26D4263139A62
:104C6000126E82630491039000F06AFB0498FFF7D0
:104C7000A1FB0398503001F081F9039801F08CFA00
:104C80000398816B01290BD1FFE740F23670029047
:104C900001F02EF800F0FB01029801F033FE0AE06B
:104CA00040F23670019001F023F840F004010198C1
:104CB00001F028FEFFE748F24820C2F200004FF65C
:104CC000FF71C16000E0FFE710981590FFE71598AD
:104CD00016B080BD2DE9F04F95B0DDF898C0DDF835
:104CE00094E0249C239D229E219FDDF88080DDF8A6
:104CF0007C90DDF878A08B4614908DF84F101292BE
:104D000011938DF84390ADF840808DF83F708DF889
:104D10003E608DF83D508DF83C408DF83BE0149896
:104D200000280B901BD0FFE70B98012800F08F8024
:104D3000FFE70B98032840F02681FFE70320FFF7E9
:104D400039FB48F24820C2F20000022140F8641FFB
:104D50001E9941611621816101F010F914E148F2B8
:104D60004820C2F20000002141661E9A82660B2292
:104D70000267119A0A9010460991FEF7CBFC0A9936
:104D800081F874001298C86609984861BDF84020FF
:104D9000D2000A830422CA61182281F820204862C6
:104DA0009DF83F20012323EA02028A629DF83E20FB
:104DB000D207002A07D0FFE748F24820C2F20000DD
:104DC000F221016306E048F24820C2F2000001210E
:104DD0000163FFE748F24820C2F20000012141636D
:104DE000089000F0ADFA089850F8641FA0F1500246
:104DF000002918BF0121079008460692FFF7DAFA4A
:104E0000079801F0BBF8069801F0C6F94FF0C10011
:104E10008DF833004FF094018DF834108DF8350083
:104E20004FF000008DF836008DF837008DF838000F
:104E30008DF839008DF83A000DF1330001F032FCA5
:104E400040F2FF110590084601F00EFD9CE048F28B
:104E50004820C2F20000012141661E99C0F880106E
:104E6000119947F68002C0F6000252F82110C0F8EE
:104E700084109DF84310C0F888101198002808D1BC
:104E8000FFE71E980B280CD0FFE71E980C2808D0CF
:104E9000FFE7119801280CD1FFE71E980C2808D1D4
:104EA000FFE748F24820C2F20000012180F88C1090
:104EB00007E048F24820C2F20000002180F88C1080
:104EC000FFE748F24820C2F2000001214161D0F81A
:104ED0008000052809D0FFE748F24820C2F2000010
:104EE000D0F88000062815D1FFE7BDF840000B2858
:104EF00007DCFFE748F24820C2F200000C2181875E
:104F000007E0BDF8400048F24821C2F2000188875E
:104F1000FFE707E0BDF8400048F24821C2F2000177
:104F20008887FFE79DF83F0000F0010048F2482124
:104F3000C2F20001086440F20000C2F200000078F2
:104F400081F844009DF83E0000F0010088649DF85F
:104F50003B0000F00100C864049100F0F1F90498EE
:104F600050F8641FA0F15002002918BF01210390DE
:104F700008460292FFF71EFA039800F0FFFF02981E
:104F800001F00AF9FFE7FFE71498012814D1FFE7C1
:104F900048F24820C2F20000D0F8840006280BD165
:104FA000FFE740F68900019000F0A2FE00F0FB014F
:104FB000019801F0A7FC0AE040F68900009000F09B
:104FC00097FE40F00401009801F09CFCFFE79DF97A
:104FD0004F0001F023FA48F24821C2F2000181F8A3
:104FE00094002698886015B0BDE8F08F80B586B033
:104FF00013468C4605908DF81310ADF81020BDF8BF
:1050000010004FF47A714843039005980193CDF84E
:1050100000C001F0C1F99DF9130001F0FFF98DF80E
:105020000B009DF80B00012101F00EFB01F086FB47
:10503000FFE7039948F2E020C2F2000002F08AF98B
:10504000FFE7FFE748F2E020C2F2000002F0B0F90B
:10505000FFE706B080BD000080B596B0944614907E
:1050600013918DF84B201193002010900F901498FD
:1050700000280D9009D0FFE70D9801287ED0FFE7AA
:105080000D98022800F00E812EE113988068002808
:1050900005D0FFE713980069002804D1FFE74FF01F
:1050A000FF30159030E11398007D092804DBFFE7FD
:1050B0004FF0FF30159027E100200E90FFE70E988B
:1050C0001399097D88420BDAFFE7139880690E99DE
:1050D000405C0FAA5054FFE70E9801300E90EEE7A7
:1050E000FFE748F24820C2F200000021024642F8E1
:1050F000641F139B9B688366139B1B680367139B4A
:105100005B680C9018460B910A92FEF703FB0C9912
:1051100081F874001398C068C8660B9841F8140FA2
:10512000139A1269D2008A8004228A60139A127D2F
:10513000D2000A730861139A126A4A61139A526A7A
:10514000CA61139AD26A0A62099100F0F9F80B98C1
:10515000FFF730F90A9800F011FF099801F01CF8E8
:105160000FA801F09FFA1399898B0890084601F067
:105170007BFB1398008D00F03FFEB6E048F248201C
:10518000C2F20000012141661399096BC0F880103A
:105190001399496BC0F884101399896BC0F8881073
:1051A0001398C06B0028079008D0FFE707980128E4
:1051B0000CD0FFE70798022810D02AE048F24820D8
:1051C000C2F20000002180F88C1023E048F2482051
:1051D000C2F20000012180F88C101BE01398006BD4
:1051E0000B2805D0FFE71398006B0C2808D1FFE7C8
:1051F00048F24820C2F20000012180F88C1007E03C
:1052000048F24820C2F20000002180F88C10FFE72D
:1052100000E0FFE71398C06B002818BF012048F298
:105220004821C2F2000181F88C004FF0010041F8E2
:10523000140F01F15002139BB3F840300B85139B00
:105240005B6CCB62139B9B6C4B63139BDB6C8B6324
:1052500006900591049200F073F80698FFF7AAF8FB
:10526000049800F08BFE059800F096FF0598016FFA
:1052700006290BD1FFE740F68900039000F038FDC6
:1052800000F0FB01039801F03DFB0AE040F68900C5
:10529000029000F02DFD40F00401029801F032FB75
:1052A000FFE722E013988068002806D0FFE71398F4
:1052B0008068B0F57A7F04D9FFE74FF0FF30159092
:1052C00022E002200190FFF775F848F24820C2F270
:1052D0000000019940F8641F139A126D4261162272
:1052E000826100F04BFE00E0FFE79DF94B0001F00A
:1052F00095F848F24821C2F2000181F89400119813
:10530000886000201590FFE7159816B080BD00005A
:1053100080B582B000208DF804009DF8040040F0B4
:1053200004008DF804009DF804008DF8000000983A
:1053300001F024F9022001F047FD02B080BD000019
:1053400080B5002001F04AF980BD000080B582B030
:105350004FF4C07000210190019A00911146009A0B
:10536000009B00F085FD00F033FD02B080BD000021
:1053700070B58CB0DDF84CC0DDF848E0119C109D94
:105380001E460B900A9109928DF82330ADF82050FB
:105390008DF81F408DF81EE08DF81DC0002006908E
:1053A000012005900B980028049004D0FFE7049892
:1053B00001281CD042E009989DF82310BDF8202058
:1053C0009DF81E309DF81FC09DF81DE00EF0010EE7
:1053D0006C46C4F804E023600CF00103FEF7D2F938
:1053E0004FF47A71484306900998059027E00A988F
:1053F00009999DF82320BDF820309DF81EC09DF826
:105400001FE09DF81D4004F001046D46AC60C5F836
:1054100004C00EF0010CC5F800C0FEF727FA4FF4E7
:105420007A71484306900A9847F68001C0F6000159
:1054300051F82000FEF7D8F9059000E0FFE7069844
:10544000059908440138B0FBF1F00CB070BD0000C4
:1054500080B582B001468DF807009DF907000091E4
:1054600000F0DCFF8DF806009DF80600012101F038
:10547000EBF801F063F902B080BD000080B582B0A6
:1054800048F24820C2F2000090F89400012101F097
:10549000DBF847F67C10C0F60000406C4FF4D76193
:1054A0002D22019008461146019A904701F054F9C7
:1054B0004FF6FF70C0F20F0001F020F902B080BD7E
:1054C00080B584B00A460346ADF80E008DF80D1085
:1054D000BDF80E009DF80D100292019301F012FA32
:1054E00004B080BD80B586B013468446ADF8160082
:1054F00004918DF80F20BDF8160004999DF80F2037
:105500000293CDF804C001F017FA06B080BD000088
:1055100080B584B001468DF80F000291FDF732FF8F
:10552000012816D1FFE740F62310019000F0E0FBC0
:105530008DF80E009DF80E0000F0F9008DF80E00B9
:105540009DF80E009DF80F100143019801F0DAF963
:10555000FFE704B080BD000080B584B003900398DD
:1055600048F2A801C2F2000101EB001200015268EA
:10557000085A012302901046029A019111461A46D8
:10558000FBF79AF90398019901EB0010C2680189B1
:10559000002000901046009AFBF78EF904B080BD01
:1055A00080B58AB000200990089007900690059079
:1055B000022103900846FDF765FA0420FDF762FA20
:1055C00001200290FDF75EFA0298069007900321F1
:1055D000089103998DF81310FFE79DF81300022836
:1055E0002ADCFFE79DF81300000148F2A801C2F28F
:1055F0000001085A05909DF8130001EB0010406867
:1056000005AA019111460092FAF7BEFF9DF813001A
:10561000019901EB0010008905909DF8130001EB42
:105620000010C0680099FAF7AFFFFFE79DF813007C
:1056300001308DF81300D0E70AB080BD80B584B08A
:105640000390039848F2A801C2F2000101EB001296
:1056500000015268085A002302901046029A0191F4
:1056600011461A46FBF728F90398019901EB00103F
:10567000C2680189012000901046009AFBF71CF9CE
:1056800004B080BD81B000900020C5F60100016823
:1056900021F040010160009941F441710160042151
:1056A000C5F601014FF4B8520A60016841F04001AB
:1056B000016001B07047000085B0049003910020A4
:1056C000029048F20000C2F200000068C0EBC00087
:1056D000C0F34C40642148430190FFE70198002843
:1056E00005D1FFE701200290049908610BE00198C1
:1056F00001380190FFE70820C5F601000068800727
:105700000028EBD5FFE70C20C5F6010000900098BB
:10571000FF21017048F20000C2F200000068C0EBF7
:10572000C000C0F34C40642148430190FFE701985A
:10573000002805D1FFE701200290049908610BE0E1
:10574000019801380190FFE70820C5F601000068C4
:10575000C0070028EBD0FFE70C20C5F60100006869
:1057600003990870029805B07047000086B00A4699
:1057700005908DF813100020039048F20000C2F24B
:1057800000000068C0EBC000C0F34C4064214843F7
:105790000290FFE70298002805D1FFE7012003905F
:1057A000059908610BE0029801380290FFE7082094
:1057B000C5F60100006880070028EBD5FFE70C2044
:1057C000C5F6010001909DF813000199087048F298
:1057D0000000C2F200000068C0EBC000C0F34C4003
:1057E000642148430290FFE70298002805D1FFE7B3
:1057F00001200390059908610BE00298013802909E
:10580000FFE70820C5F601000068C0070028EBD0BC
:10581000FFE70C20C5F601000068039900900846D8
:1058200006B0704780B582B00190019800790128D8
:1058300008D1FFE7FDF790F90120FAF79DFEFDF78B
:10584000A3F9FFE7019800F00BF802B080BD00005B
:1058500080B548F21C30C2F20000FCF7DDFC80BDD0
:1058600080B584B003900020029048F20000C2F29C
:105870000000006800EB4000C0F34B406421484347
:105880000190FFE7FDF750F900900198002806D13C
:10589000FFE7012002900398022101610AE00198CC
:1058A00001380190FFE7FDF747F90099084001280A
:1058B000E8D0FFE7029804B080BD000080B584B056
:1058C00002909DF808008DF80C009DF80C00C0F3C4
:1058D00080118901C0F3401241EA4211C0F3001265
:1058E00041EA0211C0F3C00241EAC201C0F38002E2
:1058F00041EA8201C0F3400241EA420100F00100A6
:1059000008448DF8070048F21C30C2F200008921DB
:105910000DF107020123FCF7EBFB04B080BD000092
:1059200080B582B0019001984EF60111C3F2A451E6
:10593000884207D3FFE7E1208DF80200E9208DF8C7
:1059400003003FE001984FF68101C3F2A92188428C
:1059500007D3FFE7D7208DF80200DB208DF8030086
:105960002FE0019844F28141C2F6E551884207D305
:10597000FFE7C1208DF80200C5208DF803001FE06D
:10598000019840F60131C1F66B31884207D3FFE739
:1059900075208DF8020081208DF803000FE001983A
:1059A0004FF64141C1F65411884207D3FFE76B20FF
:1059B0008DF802006F208DF80300FFE7FFE7FFE797
:1059C000FFE7FFE748F21C30C2F2000098210DF11A
:1059D00002020223FCF78CFB02B080BD48F24410A7
:1059E000C2F200000068704780B584B0039048F2AE
:1059F0001C30C2F2000014210DF109020323FCF750
:105A00000DFB019000F04AF80399086003980068C4
:105A10000028009008D0FFE70098012818D0FFE781
:105A200000980F282FD02DE09DF8090003990871E8
:105A30009DF80A0040424008039988719DF80B00C8
:105A4000404240080399487103980021816023E097
:105A50009DF8090040424008039908739DF90A0027
:105A600002308008039948739DF80B0040424008BB
:105A70000399887348F23810C2F200000068039955
:105A8000086109E0FFE703980021142201F020FBE0
:105A900003980F210160FFE704B080BD40F21000C1
:105AA000C2F200000068704780B586B013460490CB
:105AB00003918DF80B2000208DF80A0003980DF15A
:105AC0000A01019300F07AF8039800789DF80B1012
:105AD000884204DDFFE701208DF817000AE09DF8F9
