:020000040800F2
:1000000000400020694C00082F46000831460008D7
:100010003346000835460008374600080000000057
:100020000000000000000000000000003946000849
:100030003B460008000000003D4600083F4600081F
:10004000B94C0008B94C000849460008B94C0008F2
:10005000B94C0008B94C0008B94C0008B94C00086C
:10006000B94C0008B94C0008B94C0008B94C00085C
:10007000B94C0008B94C0008B94C0008B94C00084C
:10008000B94C0008B94C0008B94C0008B94C00083C
:10009000B94C0008B94C0008B94C0008B94C00082C
:1000A000B94C0008B94C0008B94C0008B94C00081C
:1000B000B94C0008B94C0008B94C0008B94C00080C
:1000C000B94C0008B94C0008B94C0008B94C0008FC
:1000D000B94C0008B94C0008B94C0008B94C0008EC
:1000E000B94C0008B94C000859460008B94C000842
:1000F000B94C0008B94C0008B94C0008B94C0008CC
:10010000B94C0008B94C000869460008B94C000811
:10011000B94C0008B94C0008B94C0008B94C0008AB
:10012000B94C0008B94C0008B94C0008B94C00089B
:08013000B94C0008B94C0008AD
:1001380010B5054C237833B9044B13B10448AFF319
:1001480000800123237010BDE8000020000000009B
:10015800344D000808B5034B1BB103490348AFF3FE
:10016800008008BD00000000EC000020344D0008AD
:1001780053B94AB9002908BF00281CBF4FF0FF3106
:100188004FF0FF3000F074B9ADF1080C6DE904CE02
:1001980000F006F8DDF804E0DDE9022304B070475A
:1001A8002DE9F047089E0D4604468846002B4DD1A0
:1001B8008A42944668D9B2FA82F252B101FA02F33D
:1001C800C2F1200120FA01F10CFA02FC41EA03080D
:1001D80094404FEA1C45210CB8FBF5FE1FFA8CF73A
:1001E80005FB1E8341EA03430EFB07F199420BD935
:1001F8001CEB03030EF1FF3080F01E81994240F2A0
:100208001B81AEF1020E63445B1AA4B2B3FBF5F096
:1002180005FB103344EA034400FB07F7A7420AD959
:100228001CEB040400F1FF3380F00881A74240F280
:10023800058164440238E41B40EA0E4000211EB1E7
:10024800D4400023C6E90043BDE8F0878B4208D9B3
:10025800002E00F0EE800021C6E900050846BDE842
:10026800F087B3FA83F100294AD1AB4202D3824224
:1002780000F2F980841A65EB030301209846002EEA
:10028800E2D0C6E90048DFE702B9FFDEB2FA82F23F
:10029800002A40F09180A1EB0C054FEA1C471FFA99
:1002A8008CFE0121B5FBF7F307FB1350250C45EA3B
:1002B80000450EFB03F0A84208D91CEB050503F125
:1002C800FF3802D2A84200F2CB8043462D1AA4B2CE
:1002D800B5FBF7F007FB105544EA05440EFB00FE9A
:1002E800A64508D91CEB040400F1FF3502D2A64547
:1002F80000F2BB802846A4EB0E0440EA03409EE7C8
:10030800C1F120078B4022FA07FC4CEA030C20FAC3
:1003180007F405FA01F31C43FD404FEA1C4900FAB3
:1003280001F3B5FBF9F8200C1FFA8CFE09FB1855F0
:1003380040EA054508FB0EF0A84202FA01F20BD983
:100348001CEB050508F1FF3A80F08880A84240F2CE
:100358008580A8F1020865442D1AA4B2B5FBF9F00E
:1003680009FB105544EA054500FB0EFEAE4508D9C9
:100378001CEB050500F1FF346CD2AE456AD9023892
:10038800654440EA0840A0FB0294A5EB0E05A5428F
:10039800C846A64656D353D05EB1B3EB080265EB08
:1003A8000E0505FA07F722FA01F3CD401F43C6E907
:1003B80000750021BDE8F087C2F1200320FA03F19F
:1003C8000CFA02FC25FA03F395400D434FEA1C474B
:1003D8001FFA8CFEB3FBF7F107FB11302B0C43EA35
:1003E800004301FB0EF0984204FA02F408D91CEB12
:1003F800030301F1FF382FD298422DD90239634403
:100408001B1AADB2B3FBF7F007FB103345EA0345FF
:1004180000FB0EF3AB4208D91CEB050500F1FF38D1
:1004280016D2AB4214D902386544ED1A40EA0141AC
:1004380038E73146304607E78646E5E61846FAE6E5
:100448004B45A9D2B9EB020864EB0C0E0138A3E7BF
:100458004046EAE7204694E74146D1E7D0467BE7A5
:10046800023B654432E7084609E76444023842E73C
:10047800704700BF30B589B00024039404940594F4
:10048800069407944FF0B043DA6C42F00202DA6443
:10049800DA6C02F002020292029ADA6C42F004026A
:1004A800DA64DA6C02F004020192019ADA6C42F022
:1004B8000102DA64DB6C03F001030093009B012363
:1004C800049305930323069311E00B4B220103EBDE
:1004D80004159B5A039303A9686801F079FE2B89D8
:1004E800039303A9E86801F073FE0134E4B2022C17
:1004F800EBD909B030BD00BF0000002010B5074B94
:10050800010103EB00140022595A606801F025FF2D
:1005180001222189E06801F020FF10BD00000020C1
:1005280010B5074B010103EB00140122595A60680A
:1005380001F013FF00222189E06801F00EFF10BDD1
:100548000000002000B587B00023019302930393B5
:10055800049305934FF0B043DA6C42F00102DA6479
:10056800DB6C03F001030093009B01230393032337
:1005780004931023019301A94FF0904001F028FE45
:100588004FF48053019301A94FF0904001F020FEF1
:1005980007B05DF804FB08B510214FF0904001F05A
:1005A800D5FE08BD08B54FF480514FF0904001F0DA
:1005B800CDFE08BD08B5054B03EBC00C002233F88F
:1005C8003010DCF8040001F0C8FE08BD300000203F
:1005D80030B58BB0002405940694079408940994C8
:1005E8004FF0B043DA6C42F00202DA64DA6C02F0DF
:1005F80002020492049ADA6C42F00402DA64DA6CB9
:1006080002F004020392039ADA6C42F00102DA64FF
:10061800DB6C03F001030293029B0123069307930B
:100628000323089316E00D4B33F83420059203EBAF
:10063800C40305A9586801F0CBFD04EB4403D800B6
:100648000094074B00221146064D284404F088F90F
:100658000134E4B2032CE6D90BB030BD30000020E1
:10066800BD0500080401002038B504460D460A4BB4
:1006780003EBC000012233F83410406801F06DFE2E
:1006880005B938BD04EB44042946044800EBC4000E
:1006980004F064FAF5E700BF3000002004010020F0
:1006A80000B58DB02C22002101A804F037FB1848B2
:1006B800184B03601F238360002303614361836138
:1006C8004FF08042C26103624FF48073436200F0CE
:1006D800D7FE08B172B6FEE70D4800F06BFC08B112
:1006E80072B6FEE700230893029306934FF0005377
:1006F80007934FF480730B93012201A9044800F07B
:100708001DFF08B172B6FEE70DB05DF804FB00BF2F
:10071800640100200028004010B590B0044638223B
:10072800002102A804F0FAFA2268194B9A4201D073
:1007380010B010BD4FF4803302934FF400730F9341
:1007480002A800F08FFC08B172B6FEE74FF0B04384
:10075800D3F8902042F40042C3F890209A6D42F4F6
:1007680080629A659B6D03F480630193019B00226C
:100778001146022000F046F8022000F07BF8002223
:1007880011462A2000F03EF82A2000F073F8CFE73F
:100798000028004008B504480823036000F08AF8E0
:1007A80008B172B6FEE708BD9C01002000B583B011
:1007B8004FF0B0435A6E42F001025A665B6E03F086
:1007C80001030193019B00221146322000F01AF820
:1007D800322000F04FF803B05DF804FB70470000CA
:1007E800074AD36823F4E0631B041B0C000200F4DF
:1007F800E060034343F0BF6343F40033D3607047C2
:1008080000ED00E000B5194BDB68C3F30223C3F128
:10081800070CBCF1040F28BF4FF0040C03F1040EC1
:10082800BEF1060F18D9033B4FF0FF3E0EFA0CFC41
:1008380021EA0C0199400EFA03F322EA0303194353
:1008480000280BDB0901C9B200F1604000F56140E6
:1008580080F800135DF804FB0023E5E700F00F00C3
:100868000901C9B2024B1954F4E700BF00ED00E0DA
:1008780014ED00E0002807DB00F01F024009012307
:100888009340024A42F82030704700BF00E100E080
:10089800074B1A6822F040021A6040F44170186051
:1008A8004FF4B8525A601A6842F040021A60704712
:1008B8000000015830B583B000284ED00446837933
:1008C800002B3BD00223A3714FF0B042D2F89430F2
:1008D80023F40043C2F89430214B1B68C3EBC303D5
:1008E800C3F34C43642202FB03F30193019B4BB314
:1008F800019B013B01934FF0B043D3F8943013F4BC
:10090800804FF3D10025174BD3F8902042F40042D2
:10091800C3F890201449D1F8902042F48052C1F8CD
:1009280090209A6842F400629A604FF400629A61DB
:100938005DB10123A371284603B030BD4371FFF7B1
:1009480035FFBFE70125A560DDE72068FFF7A0FFB9
:10095800012323710023A360EBE70125EBE700BF28
:1009680050000020000400580008005882B00246D9
:100978001A4B1B68C3EBC303C3F34C43642000FB4F
:1009880003F30193019B4BB1019B013B0193144B72
:100998009B6813F0020FF5D0002001E00120906061
:1009A8000F4B19730D4B1B68C3EBC303C3F34C43C5
:1009B800642101FB03F30193019B43B1019B013BBC
:1009C8000193074B9B6813F0010FF5D001E001205C
:1009D8009060034BDB6802B0704700BF50000020F6
:1009E8000000015882B002461C4B1B68C3EBC303CE
:1009F800C3F34C43642000FB03F30193019B4BB109
:100A0800019B013B0193164B9B6813F0020FF5D035
:100A1800002001E001209060114B4FF0FF0C83F89B
:100A28000CC00E4B1B68C3EBC303C3F34C434FF01E
:100A3800640C0CFB03F30193019B43B1019B013B45
:100A48000193074B9B6813F0010FF5D001E00120DB
:100A58009060034BDB680B7002B0704750000020B9
:100A68000000015882B0134B1B6803EB4303C3F328
:100A78004B43642202FB03F3019306E002238360E5
:100A8800012002B07047134212D00B4B5B6913F080
:100A9800040300D00123019A002AEFD0019A013AF9
:100AA8000192054A526912F00202ECD00122EAE7EB
:100AB8000020E6E7500000200004005838B504463E
:100AC8000379012B03D02046FFF7CCFF38BD084D32
:100AD800D5F8903023F40043C5F89030012003F096
:100AE80099FDD5F8903043F40043C5F89030EAE713
:100AF800000400582DE9F041054680795FFA80F836
:100B0800B8F1010F3ED10C4617461E466B79012BF2
:100B18003BD001236B710223AB712846FFF7CEFF50
:100B28001B4AD2F8903023F40043C2F890300D21CC
:100B38002846FFF71BFF210A2846FFF717FFE1B2F7
:100B48002846FFF713FF002405E0395D2846FFF724
:100B58000DFF0134A4B2B442F7D30D4AD2F8903055
:100B680043F40043C2F890302846FFF77BFFAB6898
:100B78000BB94FF000080123AB7100236B7140469D
:100B8800BDE8F0814FF00208F9E74FF00208F6E7F8
:100B9800000400582DE9F041064680795FFA80F894
:100BA800B8F1010F41D10C4615461F467379012B48
:100BB8003ED0012373713046FFF780FF1E4AD2F8FA
:100BC800903023F40043C2F890301D213046FFF7DF
:100BD800CDFE210A3046FFF7C9FEE1B23046FFF7E5
:100BE800C5FE00213046FFF7C1FE002406E0294675
:100BF8003046FFF7F7FE01350134A4B2BC42F6D304
:100C08000D4AD2F8903043F40043C2F89030304691
:100C1800FFF728FFB3680BB94FF000080123B37141
:100C2800002373714046BDE8F0814FF00208F9E7F0
:100C38004FF00208F6E700BF000400582DE9F8431A
:100C4800054680795FFA80F9B9F1010F43D18846EA
:100C580017461E466B79012B40D001236B7128463D
:100C6800FFF72CFFB8F1840F05D0B8F1940F02D02C
:100C780000232B7101E001232B711A4AD2F890301E
:100C880023F40043C2F8903041462846FFF76EFE31
:100C9800002405E0395D2846FFF768FE0134A4B258
:100CA800B442F7D30F4AD2F8903043F40043C2F865
:100CB8009030B8F1840F0AD1AB680BB94FF0000936
:100CC8000123AB7100236B714846BDE8F8832846C1
:100CD800FFF7C8FEF0E74FF00209F5E74FF0020909
:100CE800F2E700BF000400582DE9F041064680797C
:100CF8005FFA80F8B8F1010F39D10C4615461F4646
:100D08007379012B36D0012373713046FFF7D6FE75
:100D18001A4AD2F8903023F40043C2F890302146A2
:100D28003046FFF723FE00213046FFF71FFE002460
:100D380006E029463046FFF755FE01350134A4B2D6
:100D4800BC42F6D30D4AD2F8903043F40043C2F8BF
:100D580090303046FFF786FEB3680BB94FF00008B5
:100D68000123B371002373714046BDE8F0814FF051
:100D78000208F9E74FF00208F6E700BF0004005840
:100D880030B583B005460023ADF80430022301AA2C
:100D98001221FFF7A9FF9DF804409DF8053043EAAA
:100DA800042413F0010F26D114F0020F27D114F0F8
:100DB800040F28D114F0080F29D114F0100F2AD1EC
:100DC80014F0200F2BD114F0400F2CD114F0800F09
:100DD80006D014F4807F2AD00121284602F072F848
:100DE80014F4007F28D1022301AA19462846FFF7E8
:100DF80025FF03B030BD284602F04CF8D4E728465A
:100E080002F050F8D3E7284602F080F8D2E72846E7
:100E180002F084F8D1E7284602F088F8D0E728469F
:100E280002F06CF8CFE7284602F044F8CEE700213C
:100E3800284602F047F8D3E7284602F055F8D2E7EB
:100E48002DE9F041054680795FFA80F8B8F1010F85
:100E580038D10C4617461E466B79012B35D0012335
:100E68006B712846FFF72AFE194AD2F8903023F40E
:100E78000043C2F890300E212846FFF777FD21463F
:100E88002846FFF773FD002405E0395D2846FFF783
:100E98006DFD0134A4B2B442F7D30D4AD2F89030B4
:100EA80043F40043C2F890302846FFF7DBFDAB68F7
:100EB8000BB94FF000080123AB7100236B7140465A
:100EC800BDE8F0814FF00208F9E74FF00208F6E7B5
:100ED800000400582DE9F041064680795FFA80F851
:100EE800B8F1010F3DD10C4615461F467379012B09
:100EF8003AD0012373713046FFF7E0FD1C4AD2F85F
:100F0800903023F40043C2F890301E213046FFF79A
:100F18002DFD21463046FFF729FD00213046FFF719
:100F280025FD002406E029463046FFF75BFD013524
:100F38000134A4B2BC42F6D30D4AD2F8903043F43F
:100F48000043C2F890303046FFF78CFDB3680BB908
:100F58004FF000080123B371002373714046BDE8C8
:100F6800F0814FF00208F9E74FF00208F6E700BFFA
:100F78000004005890F82C30012B17D0012180F87C
:100F88002C10022380F82D30094BCA225A625322B2
:100F98005A629A6942F020029A61FF225A6280F8E6
:100FA8002D10002380F82C30184670470220704717
:100FB8000028004090F82C30012B20D010B40121DB
:100FC80080F82C10022380F82D300E4BCA225A626A
:100FD80053225A629A6942F080029A610A4CD4F804
:100FE800802042F48022C4F88020FF225A6280F8D0
:100FF8002D10002380F82C30184610BC70470220B2
:10100800704700BF002800400008005810B504468B
:10101800074B5B6D13F0400F03D1012384F82D308B
:1010280010BD034B4022DA6503F08EFAF5E700BFE6
:10103800002800407047890001F1804101F53141E5
:101048000A607047890001F1804101F53141086863
:1010580070470000024B186800F4C060704700BF7A
:101068000004005870B50446036813F4803F40F04C
:10107800AB800025236813F0010F0AD062684FF097
:10108800B041D1F8883023EA124392B21343C1F831
:101098008830236813F0020F0AD0A2684FF0B041DD
:1010A800D1F8883023EA124392B21343C1F888304A
:1010B800236813F0200F09D023694FF0B041D1F80D
:1010C800882022F440621343C1F88830236813F45F
:1010D800007F0CD0206A4FF0B041D1F88830020C64
:1010E800120423EA020343EA0043C1F88830236864
:1010F80013F4806F0CD0606A4FF0B041D1F888309B
:10110800020C120423EA020343EA0043C1F88830C0
:10111800236813F4006F0CD0A06A4FF0B041D1F8E7
:101128008830020C120423EA020343EA0043C1F8A0
:101138008830236813F0400F40F09E80236813F036
:10114800800F40F0AA80236813F4807F40F0B680B7
:10115800236813F0100F0ED0E3684FF0B041D1F8B8
:10116800882022F440721343C1F88830E368B3F54D
:10117800807F00F0B480236813F4004F0FD0236BF6
:101188004FF0B041D1F8882022F040421343C1F813
:101198008830236B1BB9CB6843F08073CB6023681E
:1011A80013F4804F0ED0E36A4FF0B041D1F8882095
:1011B80022F040521343C1F88830E36AB3F1005F6C
:1011C80000F09280284670BD00F070FA03F01EFA15
:1011D8000546484B1B6813F4807F06D103F016FAC6
:1011E800401B0228F5D9032500E00025002D7FF4D7
:1011F80041AF4FF0B043D3F8903003F44073626BC3
:101208009A4224D04FF0B043D3F8902022F4407291
:10121800D3F8901041F48031C3F89010D3F89010AF
:1012280021F48031C3F89010C3F8902012F0020F17
:101238000FD1002D7FF41EAF636B4FF0B041D1F892
:10124800902022F440721343C1F8903012E7002234
:10125800ECE703F0DBF906464FF0B043D3F89030E3
:1012680013F0020FE5D103F0D1F9801B41F2883366
:101278009842F1D90325DCE763694FF0B040D0F814
:101288008820190901F47F2122EA01021B0103F4D5
:101298007F231343C0F8883050E7A3694FF0B0406C
:1012A800D0F88820190901F47F2122EA01021B01E4
:1012B80003F47F231343C0F8883044E7E3694FF011
:1012C800B040D0F88820190901F47F2122EA0102F0
:1012D8001B0103F47F231343C0F8883038E7CB6839
:1012E80043F08073CB6046E7CB6843F48033CB6030
:1012F80068E700BF0004005890F82C30012B32D06A
:10130800012380F82C30022380F82D30174BCA2295
:101318005A6253225A62B1F5807F17D0134BDA6CA8
:1013280022F00042DA649A6922F408529A61036B47
:1013380023F0020303630D4BFF225A62012380F856
:101348002D30002380F82C30184670475A6C22F054
:1013580000425A649A6922F488529A61036B23F016
:1013680001030363E7E70220704700BF002800403D
:1013780038B504460D4B5D6D036B1D4015F0010F2C
:1013880006D115F0020F09D1012384F82D3038BD9C
:10139800064B0122DA6503F0D3F8F2E7034B022289
:1013A800DA652046FFF746FEEEE700BF002800405A
:1013B80010B50B4AD36863F0A003D36003F026F995
:1013C8000446074BDB6813F0200F07D103F01EF922
:1013D800001BB0F57A7FF4D9032000E0002010BD8F
:1013E8000028004070B5114BDB6813F0400F02D0A5
:1013F8000024204670BD06460C4AD36843F080039B
:10140800D36003F003F905460024084BDB6813F0AA
:10141800400FEED1032CECD003F0F8F8431BB3F5E2
:101428007A7FF2D9032486F82D40EEE700280040A1
:1014380010B50446114BDA6822F08002DA609B6925
:1014480013F0200F07D1FFF7B3FF0346A0B1032322
:1014580084F82D3010E0094A936923F02003936142
:10146800FFF7A6FF034610B1032384F82D30034984
:101478008A6942F020028A61184610BD002800409F
:1014880000284AD038B5044690F82D309BB1022385
:1014980084F82D30224BCA225A6253225A622046BF
:1014A800FFF7A0FF60B11E4BFF225A6210B901235B
:1014B80084F82D3038BD80F82C30FFF72DF9E6E799
:1014C800174B9A6922F08E6222F040029A6199695C
:1014D800626820690243A06902430A439A61E2688C
:1014E800A16842EA01421A61DA6822F4F852616A94
:1014F800A06A01430A43DA602046FFF799FF0028F3
:10150800D1D107498B6923F06043226AE5692A43F0
:1015180065692A4313438B61C5E70120704700BF03
:1015280000280040002302E001330A38C0B209282D
:10153800FAD81B01DBB218437047000090F82C3032
:10154800012B00F0AC802DE9F04105460C46012343
:1015580080F82C30022380F82D30524BDF6807F4D6
:101568004077B7F5807F3FD022BB9B6913F0400FCF
:1015780001D10023CB70266A2078FFF7D3FF4FEA0A
:1015880000486078FFF7CEFF48EA0028A078FFF708
:10159800C9FF48EA0008E07848EA805894F824002F
:1015A800FFF7C0FF48EA006846EA0808606948EAA9
:1015B80000001AE03B4B9B6913F0400F01D1002358
:1015C800CB7023786078000240EA0340A378184380
:1015D800E37840EA835094F8243040EA0360236AB1
:1015E80018436369184300E000202E4BCA225A6250
:1015F80053225A62A36AB3F5807F2AD0294B9A698D
:1016080022F408529A610222DA65B7F5807F40D049
:10161800244B9864A269DA646268224B5A672A6B81
:1016280042F002022A639A6942F408529A611E4AF9
:10163800D2F8803043F40033C2F88030194BFF22CF
:101648005A62012385F82D30002085F82C00BDE86A
:10165800F081144B9A6922F488529A610122DA6562
:10166800B7F5807F0FD00F4B1864A2695A6462687F
:101678000C4B1A672A6B42F001022A639A6942F4FA
:1016880088529A61D3E7A369E2691343054A536410
:10169800EDE7A369E2691343024AD364BCE7022079
:1016A800704700BF0028004000080058024A13682D
:1016B80043F48073136070470004005830B589B054
:1016C80004468C462A4B93E803000690ADF81C109C
:1016D80003F1080292E803000490ADF8141001AD7C
:1016E800103393E8070085E80700BCF5007F07D0B2
:1016F800002314E008AA02EB830353F81C5C1EE0E5
:101708000023022B08D808AA02EB430232F8082C5F
:10171800A242EFD20133F4E7002510E00133022B97
:101728000CD808AA02EB430232F8102CA242F5D3D7
:1017380008AA02EB830353F81C5C00E000250D4A5D
:10174800136823F007032B43136002F05FFF04467E
:10175800084B1B6803F00703AB4206D002F056FFA4
:10176800001B0228F4D9032000E0002009B030BD96
:10177800504D00080040005810B5C0F303100C4B42
:1017880053F820404FF0B043D3F8083103F00F036B
:10179800084A52F82300B4FBF0F4FFF75BFC01465B
:1017A8000548A0FB0430800CFFF788FF10BD00BF80
:1017B800D04D0008904D000883DE1B434FF0B04326
:1017C8009968DB6803F0030311F00C010AD00C29B7
:1017D80006D0042947D008293BD00022104626E02D
:1017E800012BF6D14FF0B0431B6813F008030DD05E
:1017F8004FF0B0431B6813F0080324D14FF0B042F8
:10180800D2F894202E4A52F823200EE04FF0B0422E
:10181800126812F0080F12D14FF0B043D3F8943089
:10182800C3F30323264A52F82320D1B100204FF0F6
:10183800B0439B6803F00C030C2B1AD070474FF091
:10184800B0421268EEE74FF0B0431B68C3F30313CE
:10185800D8E74FF0B0431A6812F4801206D119483D
:10186800E5E71046E3E700221748E0E700221648BC
:10187800DDE74FF0B043DB6803F00303022B09D028
:10188800032B08D14FF0B0431B6813F4801F15D108
:101898000C4A00E00C4A4FF0B043D868C0F3062069
:1018A80000FB02F2D868C0F302100130B2FBF0F27C
:1018B800D868400F0130B2FBF0F0BFE7024AEAE710
:1018C800D04D00080048E8010024F40008B5FFF7EF
:1018D80075FF4FF0B0439B68C3F30313024A52F8F5
:1018E8002330B0FBF3F008BD904D0008002800F04D
:1018F8001983F8B504464FF0B0439D6805F00C0510
:10190800DE6806F00306036813F0200F00F08F80EE
:10191800EDB10C2D19D0236A002B00F0BC804FF0DC
:10192800B042136843F00103136002F06FFE0746EC
:101938004FF0B0431B6813F0020F65D102F066FE4A
:10194800C01B0228F4D90320F9E2012EE3D14FF09D
:10195800B0431B6813F0020F03D0236A002B00F07A
:10196800E382A06A4FF0B0431B6813F0080F29D038
:101978004FF0B0431B6803F0F00398422AD9FFF7F1
:10198800FBFE002840F0D2824FF0B0431A6842F0C4
:1019980008021A601A6822F0F002A16A0A431A6063
:1019A800616A5A6822F47F4242EA01225A60FFF7CC
:1019B8008DFFB04B1860B04B186802F025FE002868
:1019C80035D0BCE24FF0B043D3F894301B0903F094
:1019D800F003D2E74FF0B0431A6842F008021A60E9
:1019E8001A6822F0F002A16A0A431A60616A5A680A
:1019F80022F47F4242EA01225A60A06AFFF7BCFE45
:101A08000028D4D001209AE24FF0B0431A6842F07F
:101A180008021A601A6822F0F002A16A0A431A60E2
:101A2800616A5A6822F47F4242EA01225A602368B6
:101A380013F0010F51D0082D45D00C2D41D04FF097
:101A4800B042136823F48013A1680B4313606368E2
:101A5800B3F5803F63D0B3F5041F65D04FF0B043B2
:101A68001A6822F480321A601A6822F400121A6086
:101A78006368002B63D002F0C9FD07464FF0B043FE
:101A88001B6813F4003F28D102F0C0FDC01B642876
:101A9800F4D9032053E24FF0B042136823F0010356
:101AA800136002F0B3FD07464FF0B0431B6813F014
:101AB800020FBCD002F0AAFDC01B0228F4D90320F3
:101AC8003DE2032EBBD14FF0B0431B6813F4003F37
:101AD80003D06368002B00F02B82236813F0020FF9
:101AE80052D0042D3DD00C2D39D02369002B00F0A5
:101AF80091804FF0B042136843F48073136002F092
:101B080085FD06464FF0B0431B6813F4806F77D10C
:101B180002F07CFD801B0228F4D903200FE2136831
:101B280043F480331360A3E74FF0B0431A6842F4DC
:101B380000121A601A6842F480321A6098E702F0BC
:101B480065FD07464FF0B0431B6813F4003FC4D04F
:101B580002F05CFDC01B6428F4D90320EFE1022EDB
:101B6800C3D14FF0B0431B6813F4806F03D02369CF
:101B7800002B00F0DF8161694FF0B042536823F019
:101B8800FE4343EA01635360236813F0080F00F033
:101B98008E80A369002B71D04FF0B043D3F89430F6
:101BA800E16903F01002914211D003F00302022A06
:101BB80000F0C28113F0010F42D14FF0B042D2F8C9
:101BC800943023F01003E1690B43C2F894304FF0CE
:101BD800B042D2F8943043F00103C2F8943002F0D6
:101BE80015FD06464FF0B043D3F8943013F0020FBA
:101BF8005DD102F00BFD801B1128F3D903209EE173
:101C080061694FF0B042536823F0FE4343EA016331
:101C18005360B9E74FF0B042136823F48073136040
:101C280002F0F4FC06464FF0B0431B6813F4806FD3
:101C3800AAD002F0EBFC801B0228F4D903207EE135
:101C48004FF0B042D2F8943023F00103C2F8943038
:101C580002F0DCFC06464FF0B043D3F8943013F0A2
:101C6800020FAAD002F0D2FC801B1128F3D903205E
:101C780065E100BF50000020580000204FF0B0423E
:101C8800D2F8943023F00103C2F8943002F0BEFC7D
:101C980006464FF0B043D3F8943013F0020F06D045
:101CA80002F0B4FC801B1128F3D9032047E1236814
:101CB80013F0040F00F0B180A84B1B6813F4807F69
:101CC80010D1FFF7F3FC02F0A1FC0646A34B1B68FA
:101CD80013F4807F06D102F099FC801B0228F5D905
:101CE80003202CE1E368002B61D0852B01D0052B64
:101CF80007D14FF0B042D2F8903043F00403C2F855
:101D0800903002F083FC06464FF0B042D2F8903093
:101D180043F00103C2F890304FF0B043D3F890304D
:101D280013F0020F08D102F071FC801B41F28833D6
:101D38009842F1D9032002E1E368812B01D0852B79
:101D48001AD102F063FC06464FF0B042D2F8903048
:101D580043F08003C2F890304FF0B043D3F890308E
:101D680013F4006F59D102F051FC801B41F2883303
:101D78009842F1D90320E2E002F048FC06464FF011
:101D8800B042D2F8903023F08003C2F890304FF080
:101D9800B043D3F8903013F4006F3ED002F036FC15
:101DA800801B41F288339842F1D90320C7E002F042
:101DB8002DFC06464FF0B042D2F8903023F0800355
:101DC800C2F890304FF0B043D3F8903013F4006F5E
:101DD80008D002F01BFC801B41F288339842F1D9ED
:101DE8000320ACE002F012FC06464FF0B042D2F8F5
:101DF800903023F00103C2F890304FF0B043D3F88D
:101E0800903013F0020F08D002F000FC801B41F262
:101E180088339842F1D9032091E0E36A002B00F05F
:101E28008D800C2D62D0022B1FD04FF0B0431A6862
:101E380022F080721A60DA6822F00302DA60DA6847
:101E480022F0885222F48032DA6002F0DFFB044686
:101E58004FF0B0431B6813F0007F73D002F0D6FB3D
:101E6800001B0A28F4D9032069E04FF0B042136838
:101E780023F08073136002F0C9FB05464FF0B043AE
:101E88001B6813F0007F2AD14FF0B042D368344961
:101E98001940236B606B0343A06B43EA0023E06B9C
:101EA8000343206C0343606C03430B43D360136804
:101EB80043F080731360D36843F08053D36002F01B
:101EC800A5FB04464FF0B0431B6813F0007F37D1E1
:101ED80002F09CFB001B0A28F4D903202FE002F033
:101EE80095FB401B0A28C9D9032028E0012B2BD0D9
:101EF8004FF0B043DB6803F00301226B914225D118
:101F080003F07002616B8A4222D103F4FE42A16B96
:101F1800B2EB012F1ED103F06043626C93421BD1D8
:101F280000200CE001207047012008E0012006E0B5
:101F3800012004E0012002E0012000E00020F8BDBB
:101F48000020FCE70020FAE70120F8E70120F6E787
:101F58000120F4E70120F2E70120F0E7000400582F
:101F68008C80C111002800F0048170B50C4605462C
:101F7800824B1B6803F007038B4227D32B6813F0AF
:101F8800020F39D12B6813F0400F4DD12B6813F095
:101F9800040F65D12B6813F0080F79D12B6813F063
:101FA800010F00F0C1806B68022B00F08B80032BBF
:101FB80000F09080002B40F095804FF0B0421268FE
:101FC80012F0020F40F094800120D1E06B4A1368B0
:101FD80023F007030B43136002F018FB0646674B18
:101FE8001B6803F00703A342C8D002F00FFB801B55
:101FF8000228F4D90320BBE0AB684FF0B0418A68EF
:1020080022F0F00213438B6002F000FB06464FF00B
:10201800B0439B6813F4803FB4D102F0F7FA801BF9
:102028000228F4D90320A3E069694FF0B042D2F83E
:10203800083123F00F0343EA1113C2F8083102F004
:10204800E5FA06464FF0B043D3F8083113F4803F61
:102058009CD102F0DBFA801B0228F3D9032087E029
:10206800EB684FF0B0418A6822F4E06213438B605A
:1020780002F0CCFA06464FF0B0439B6813F4003FD9
:1020880088D102F0C3FA801B0228F4D903206FE03C
:1020980029694FF0B042936823F4605343EAC103BF
:1020A800936002F0B3FA06464FF0B0439B6813F40E
:1020B800802F7FF473AF02F0A9FA801B0228F3D9AE
:1020C800032055E04FF0B042126812F4003F0FD1E0
:1020D80001204DE04FF0B042126812F0007F07D1A6
:1020E800012045E04FF0B042126812F4806F42D0F0
:1020F8004FF0B0418A6822F0030213438B6002F06C
:1021080085FA06464FF0B0439B6803F00C036A68F3
:10211800B3EB820F08D002F079FA801B41F28833C2
:102128009842EFD9032023E0144B1B6803F0070300
:10213800A34215D9114A136823F0070323431360F8
:1021480002F064FA05460D4B1B6803F00703A3422F
:1021580006D002F05BFA401B0228F4D9032007E0FE
:10216800FFF7B4FB064B1860064B186802F04CFAF0
:1021780070BD012070470120FAE700BF00400058F9
:1021880050000020580000207047000010B50320C0
:10219800FEF726FBFFF79AFB064B18600F2002F0AC
:1021A80033FA10B10124204610BD0446FFF7ECFFB6
:1021B800F9E700BF50000020034B1B78034A116861
:1021C8000B441360704700BF54000020A801002092
:1021D800F0B5002396E085685E000324B44025EA44
:1021E8000405CC68B4402C438460446824EA0C0C91
:1021F8004C68C4F300149C4044EA0C044460C6686C
:102208004FEA430C032505FA0CF5EC4326EA050EC4
:102218008D6805FA0CF545EA0E05C5604D68022D76
:1022280001D0122D12D1DE08083650F8267003F0BE
:1022380007054FEA850E0F2505FA0EF527EA05076B
:102248000D6905FA0EF53D4340F82650056825400E
:102258004C6804F0030404FA0CF42C4304604C6842
:1022680014F0805F4DD09D08AE1C354C54F8267094
:1022780003F00304A6000724B44027EA0407B0F1DA
:10228800904F58D02F4CA04257D004F58064A042FC
:102298004FD00724B4403C430235294E46F8254028
:1022A800294CD4F88050D44325EA02064F6817F425
:1022B800803F01D042EA0506234DC5F88060D5F875
:1022C800845004EA05064F6817F4003F01D042EA3B
:1022D80005061D4DC5F884602D6804EA05064F689B
:1022E80017F4801F01D042EA0506174D2E606D686D
:1022F8002C404E6816F4001F01D042EA0504124A29
:10230800546001330A6832FA03F418D04FF0010C14
:102318000CFA03FC1CEA0202F3D04C68651E012D7E
:102328007FF659AF112C3FF456AF122C7FF467AFEC
:1023380051E70224AEE70024ACE70124AAE7F0BD88
:1023480000000140000400480008005803691942D1
:1023580001D001207047002070470AB181617047A1
:1023680081627047014B1878704700BFB2010020A6
:1023780000B583B08DF8070001230DF10702802115
:102388000748FEF75BFC9DF807302BB9054B012287
:102398001A7003B05DF804FB024B02221A70F8E7CA
:1023A8009C010020B201002000B583B00A4B042232
:1023B8001A70C0F307438DF80430C0F307238DF873
:1023C80005308DF8060003236A4483210348FEF78D
:1023D80035FC03B05DF804FBB20100209C0100202D
:1023E80000B583B00A4B05221A70C0F307438DF875
:1023F8000430C0F307238DF805308DF80600032359
:1024080001AA82210348FEF719FC03B05DF804FB1A
:10241800B20100209C01002000B583B0C0F307433F
:102428008DF80030C0F307238DF801308DF80200D5
:10243800C1F307438DF80330C1F307238DF8043047
:102448008DF8051006236A4694210448FEF7F6FB2A
:10245800034B06221A7003B05DF804FB9C010020B0
:10246800B201002008B500231A46C5210348FEF72B
:10247800E5FB034B07221A7008BD00BF9C01002032
:10248800B201002008B500231A46D1210148FEF701
:10249800D5FB08BD9C01002008B500231A46D221AF
:1024A8000148FEF7CBFB08BD9C01002000B583B0B6
:1024B8008DF8070001230DF107029F210248FEF75E
:1024C800BDFB03B05DF804FB9C01002000B583B0A0
:1024D80001F024FF01280CD000238DF807300123D8
:1024E8000DF1070296210548FEF7A8FB03B05DF839
:1024F80004FB01238DF80730F1E700BF9C010020A1
:1025080000B583B000F0400300F02002134300F050
:102518001002134300F00802134300F004021343AF
:1025280000F00202134300F0010018438DF8070081
:1025380001230DF1070289210248FEF77FFB03B052
:102548005DF804FB9C01002000B583B01C4B984249
:102558000ED9E1238DF80430E9238DF805300223E4
:1025680001AA98211748FEF769FB03B05DF804FB40
:10257800154B984206D9D7238DF80430DB238DF804
:102588000530ECE7114B984206D9C1238DF8043089
:10259800C5238DF80530E2E70D4B984206D975231F
:1025A8008DF8043081238DF80530D8E7094B98421F
:1025B800D5D96B238DF804306F238DF80530CEE71D
:1025C80000E9A4359C01002080F8A9328044E52D5B
:1025D800000B6B1B40FC541900B583B08DF8040048
:1025E8008DF805108DF806208DF8073004230DEBC3
:1025F800030295210248FEF721FB03B05DF804FBB6
:102608009C01002000B583B04FEA102C8DF800C063
:102618008DF80100080A8DF802008DF80310110AE0
:102628008DF804108DF805201A0A8DF806208DF80B
:10263800073008236A4619460248FEF7FFFA03B036
:102648005DF804FB9C01002000B583B000F0070092
:102658008DF80400C1F307438DF80530C1F3072353
:102668008DF806308DF8071004230DEB030297212F
:102678000248FEF7E3FA03B05DF804FB9C01002072
:1026880010B582B00446124B1B78DBB1114A002307
:102698006006E109FDF76CFD030E8DF80430C0F308
:1026A80007438DF80530C0F307238DF806308DF801
:1026B800070004230DEB030286210748FEF7BEFA44
:1026C80002B010BDFFF740FF014B01221A70DDE791
:1026D800B00100200048E8019C010020014B187857
:1026E800704700BFB301002000B583B08DF8040027
:1026F8008DF80510022301AA8F210348FEF79EFAE0
:1027080003B05DF804FB00BF9C01002000B583B056
:10271800012301AA15210548FEF7E6FA9DF80400F1
:102728004042401003B05DF804FB00BF9C0100204C
:1027380010B582B00446032301AA14211A48FEF7F3
:10274800D3FAFFF7CBFF207048B1012818D0142224
:102758000021204602F07AFA0F2323700EE09DF83C
:10276800043023719DF805305B425B10A3719DF81E
:1027780006305B425B1063710023A36002B010BD9A
:102788009DF804305B425B1023739DF905300233DA
:102798009B1063739DF806305B425B10A373034B79
:1027A8001B682361EAE700BF9C010020AC01002000
:1027B80000B583B08DF8071001230DF1070201461B
:1027C8000248FEF797F903B05DF804FB9C0100206E
:1027D80010B582B004460D4B05221A70972140F6B9
:1027E800AC00FFF7E5FFC4F307438DF80430C4F3EA
:1027F80007238DF805308DF80640032301AA8221AE
:102808000348FEF71BFA02B010BD00BFB20100205A
:102818009C01002000B583B08DF8070001230DF15D
:102828000702A0210C48FEF709FA9DF807303F2B54
:102838000FD95B08002202E09B08511CCAB21F2B6B
:10284800FAD8D900C9B21144C9B240F20670FFF7EC
:10285800AFFF03B05DF804FB9C01002000B583B016
:102868008DF80700C3B2094A13704BB101230DF16B
:1028780007028A210648FEF7E1F903B05DF804FB78
:10288800002140F2AC60FFF793FFEFE7B3010020AF
:102898009C01002010B582B00446404B93E8030029
:1028A80002AB03E9030020783D4B1B78984206D120
:1028B8002378032B2DD8DFE803F005442E57FFF7C4
:1028C800CDFFF5E76268374BB3FBF2F31A0C8DF8CE
:1028D80000201A0A8DF801208DF80230237B8DF82C
:1028E8000330637B8DF80430A1682F4A0023480623
:1028F800C909FDF73DFC030C8DF80530030A8DF876
:1029080006308DF8070008236A468B212748FEF712
:1029180095F902B010BD2269224BB3FBF2F31A0CF1
:102928008DF800201A0A8DF801208DF80230237DD9
:102938008DF8033004236A468B211C48FEF77EF984
:10294800E7E7237E8DF80030637E8DF80130A37EA3
:102958008DF80230E37E8DF8033004236A468B211C
:102968001248FEF76BF9D4E762680E4BB3FBF2F33B
:102978001A0C8DF800201A0A8DF801208DF8023003
:10298800237B8DF80330637B8DF8043005236A467A
:102998008B210648FEF752F9BBE700BF6C4D0008D3
:1029A800B30100200000093D0048E8019C01002017
:1029B80000B583B0014601230DF107020348FEF775
:1029C800E9F89DF8070003B05DF804FB9C010020BE
:1029D80010B5044601F0A2FC012800D010BD40F655
:1029E8002310FFF7E5FF00F0F901214340F623101B
:1029F800FFF7DEFEF2E7000008B508B1174A1060DD
:102A08000220FFF7E5FFFDF7C5FE0020144B187004
:102A1800FFF7AEFC01F080FC01280FD01A2140F628
:102A28001110FFF7C5FE1A2140F61210FFF7C0FE7D
:102A380001F0BCFB0B4B01221A7008BD01F06AFCC7
:102A480081010120FFF700FE002140F61110FFF779
:102A5800AFFE4FF07F00FFF753FDE9E7B401002018
:102A6800B0010020B201002010B582B00446002059
:102A780001F0F4FB0220FFF7ABFF04F0040004F0C0
:102A88000203184304F0010404438DF807400123AE
:102A98000DF1070284210448FEF7D0F8034B002209
:102AA8001A7002B010BD00BF9C010020B2010020C6
:102AB80010B50446FFF712FE00B110BD4FF4D76001
:102AC800FFF776FF00F0FE00C4F3002101434FF446
:102AD800D760FFF76DFEE1B240F2B960FFF768FE1C
:102AE800EBE7000030B583B00C461546012828D125
:102AF8000F290DD001231A4600210420FFF76CFD91
:102B08000D2C0CDC14F1110F0ADA6FF0100407E039
:102B180001231A4600210620FFF75EFDF0E70E2488
:102B2800182140F6E700FFF743FE8DF804408DF8C2
:102B38000550022301AA8E211248FEF77FF803B040
:102B480030BD40F6D800FFF733FF40F01E01C9B290
:102B580040F6D800FFF72CFE0123002207210420AD
:102B6800FFF73AFD162C05DC14F1090F03DA6FF0B4
:102B7800080400E01624382140F6E700FFF718FEA5
:102B8800D3E700BF9C01002030B583B005460C4652
:102B9800022301AA13210D48FEF7A6F8FFF79EFDB0
:102BA800012807D09DF804302B709DF8053023705C
:102BB80003B030BD064B1B78DBB2012BF2D140F2DB
:102BC8000270FFF7F5FE2870EFE700BF9C010020B8
:102BD800B101002008B513460A4601460148FDF731
:102BE80089FF08BD9C01002008B5014608224FF462
:102BF800D860FFF7EFFF002008BD00B583B0030AD7
:102C08008DF804308DF80500FFF768FD10B103B0AA
:102C18005DF804FB022201A940F2BC60FFF7DAFF6D
:102C2800F5E700B583B0030A8DF804308DF8050088
:102C3800FFF754FD10B103B05DF804FB022201A9AF
:102C480040F2BE60FFF7C6FFF5E7000010B584B09C
:102C5800044601AB344A07CA03C31A702078334BC1
:102C68001B78984206D12378032B2BD8DFE803F092
:102C780005454005FFF7F2FDF5E7637AF12B23D010
:102C8800F22B2BD06288110A8DF804108DF80520DC
:102C980022798DF8062062798DF80720A2798DF8BF
:102CA8000820E2798DF80920227A8DF80A208DF81B
:102CB8000B30A37A8DF80C30092301AA8C211C480B
:102CC800FDF7BCFF04B010BD4FF6FF70FFF795FF8E
:102CD80048F20500FFF7A5FF0223D3E741F60F509E
:102CE800FFF78BFF41F22100FFF79BFF0623C9E79F
:102CF800237B8DF804300123DFE7E3891A0A8DF876
:102D080004208DF80530237C0A4A13708DF80630AC
:102D1800637C8DF80730A37C8DF80830E37C8DF850
:102D280009300623C9E700BF744D0008B30100202D
:102D38009C010020B101002008B513460A4601464F
:102D48000148FDF727FF08BD9C01002070B582B03F
:102D58000026019640F6E200FFF72AFE054600F03D
:102D6800FE0140F6E200FFF723FD40F6E500FFF71D
:102D78001FFE044600F07F0140F6E500FFF718FD4E
:102D88006FF07F40FFF72CFB04220DEB020140F6A9
:102D98001900FFF7D1FF3046FFF7EAFA294640F657
:102DA800E200FFF705FD214640F6E500FFF700FDCC
:102DB800019802B070BD000008B513460A460146E6
:102DC8000148FEF73DF808BD9C01002008B50A46F9
:102DD80001460020FFF7F0FF08BD10B51446FFF7C5
:102DE800F5FF2046FFF7E0FA10BD000008B51346CE
:102DF8000A4601460148FEF76DF808BD9C0100200F
:102E080070B582B006460C46154600238DF807308B
:102E18000DF107012046FFF7B7FE2278AA4202D932
:102E2800012002B070BD31469DF80700FFF7DEFFB4
:102E38000020F6E710B5012903D0012001F00EFAB1
:102E480010BD04460846012C03D0022CF6D10320FD
:102E5800F4E70420FFF7BCFD0220F6E738B5044686
:102E680001F056FA48B102280DD102250222214666
:102E78002846FFF737FE284638BD0F2C01DC012510
:102E8800F4E70225F2E70125F0E708B501F042FA78
:102E980008BD000008B5024B1B680120984708BD13
:102EA800B401002008B5024B1B680220984708BDF2
:102EB800B401002008B5024B1B684020984708BDA4
:102EC800B401002008B511B1012905D008BD054B92
:102ED8001B6880209847F9E7024B1B684FF4807005
:102EE8009847F3E7B401002008B5034B1B684FF47B
:102EF8000070984708BD00BFB401002008B5024B18
:102F08001B682020984708BDB401002008B5024B73
:102F18001B680420984708BDB401002008B5024B7F
:102F28001B680820984708BDB401002008B5024B6B
:102F38001B681020984708BDB4010020014688B1DD
:102F48000023152B0DD81846074A52F833208A4219
:102F580002D80133DBB2F4E7034B03EBC00000797E
:102F68007047FEE71F207047144E00080120704785
:102F78000A2807D8DFE800F0200B11171A1C1E06D4
:102F8800080E14000020704742F6B100704743F65F
:102F98000950704745F26110704747F61220704794
:102FA8004AF2C32070474FF22440704704487047E4
:102FB800044870470448704741F68460704700BF72
:102FC80048E8010090D0030020A107009DF80410F4
:102FD800D20053B908200244183241B102239DF8A7
:102FE8000000184402EBC00070470020F3E70023FC
:102FF800F5E770B59DF810409DF818500432A1F11E
:10300800050CBCF1010F32D918B9A1F10B06012E3C
:1030180035D901282FD000269DF814E04FEACE0EAE
:103028008DB34FF0100CE6448800AEEB810E6CB304
:103038004FF0000CF444062904D90CF1080C0EB129
:10304800881E8000BCF1000F23DB84440CF1FF3C98
:103058009CFBF0FC02FB0C3303F10C00062901D8A1
:1030680003F10E00800001300239884070BD0B2B3F
:10307800CAD80C23C8E70C2903D00026CCE70126C0
:10308800CAE70126C8E74FF0000CCCE74FF0140C54
:10309800D0E74FF0000CD8E7F0B585B00E461546DE
:1030A8001946BDF828209DF82C309DF830709DF801
:1030B80034C048B1012812D0012500242C44601ED8
:1030C800B0FBF5F005B0F0BDCDF804C00097284678
:1030D800FFF77CFF4FF47A7400FB04F4EEE7CDF8B9
:1030E80008C00197009313460A4629463046FFF761
:1030F80080FF4FF47A7400FB04F4034B985DFFF7EC
:1031080037FF0546DAE700BF104E000808B5034B45
:103118001B6813B15B6803B1984708BDB80100206C
:1031280008B5034B1B6813B1DB6803B1984708BDAA
:10313800B801002070B5002305E0CC5CE443CC5412
:103148000024C45401339A42F7DC00231C4613E0E0
:1031580003F1070C24E0EDB24D5D45FA0EFE0EF0CA
:10316800010E84EA0E04C6F3C70504FA0CFC465D9A
:1031780046EA0C0C00F805C0B3EBC20F26DA5D4234
:1031880003F0070C05F0070558BFC5F1000C5FFAFE
:103198008CFECEF1070E5FFA8EFE9C46002BD7DB25
:1031A8004FEAEC0501335E4203F0070C06F0070610
:1031B80058BFC6F1000C5FFA8CFCCCF1070C5FFA23
:1031C8008CFC1E46002BC6DADE1DC4E7A30143EAC9
:1031D800C4135BB21CB920210B43835470BD00217A
:1031E800FAE7000008B5012804D00A4B5B7D012BE3
:1031F80008D008BD084B19700648C1770E30FFF794
:1032080025FDF6E7044B1970024881750E30FFF76B
:103218001DFDEEE7D40200205C00002008B5FFF792
:10322800C7FB08BD08B5FFF7C3FA08BD08B5FFF727
:1032380015FE0121FFF7FEFDFFF724F908BD000088
:1032480008B50121074B93F85600FFF7F3FD2D2130
:103258004FF4D760FFF7E6FFFFF71EF90248FFF7C4
:10326800A3F808BDD4020020FFFF0F0038B50446BC
:103278000D4600231A464FF6FF710846FFF7C2F9BC
:103288000021054B93F85600FFF7D4FD2946204648
:10329800FFF7C2F838BD00BFD402002038B5044695
:1032A80000231A464FF6FF710846FFF7ABF964B9D9
:1032B8000D4C002194F85600FFF7BCFD63786BB104
:1032C8006FF07F40FFF784FA38BD084D2146284645
:1032D80001F05CFC284601F0FBFBE9E7024B98682B
:1032E8008001FFF775FAEFE7D4020020BC02002046
:1032F80008B50020FFF73CF808BD000010B582B003
:10330800654BB3F85430402B00F0858021D8022B50
:103318003ED0202B0ED1614801F080FB5E4B5B78DC
:10332800002B00F0B5805E4B1B6803B3DB68F3B17C
:1033380098471CE0012B1AD15A4801F06FFB002076
:10334800FFF716F8564B1B688BB11B687BB1984783
:103358000DE0B3F5807F6ED0B3F5007F09D1FFF79C
:1033680001F8042874D0FEF7FDFF05287FD002B0CD
:1033780010BD802BFBD10020FEF7FAFF484B1B68DD
:10338800002BF4D09B69002BF1D000209847EEE782
:10339800424801F043FB404B5B78F3B1FF220DF14B
:1033A80007014148FFF72CFD4048FFF7C1F93C4BA6
:1033B8001B68002BDBD09C68002CD8D0364B93F8C8
:1033C8002430012B1DD0344A92F92C3092F929204F
:1033D8009DF807103448A047C9E70020FEF7C8FF4A
:1033E800002140F60210FFF7E3F940F64410FFF71A
:1033F800DFFA40F00201C9B240F64410FFF7D8F9ED
:10340800CCE7254A92F9313092F930209DF807101F
:103418002548A047ABE7204B5B7843B1204B1B689E
:10342800002BA4D01B69002BA1D098479FE7002050
:10343800FEF79EFFF2E70020FEF79AFF184B1B6885
:10344800002B94D09B69002B91D0012098478EE7E0
:10345800144801F0E3FA0020FEF78AFF104B1B68BE
:10346800002B84D05B68002B81D098477FE70B48FE
:1034780001F0D4FA0020FEF77BFF094B1B68002BF4
:103488003FF475AFDB68002B3FF471AF98476EE7E8
:103498000020FEF76DFF46E7D4020020BC020020A2
:1034A800B80100202C030020BC010020F8020020F5
:1034B80008B5034BA3F85400FFF720FF08BD00BF71
:1034C800D402002008B5FEF74DFF052807D00728CD
:1034D80007D0042801D0002008BD0220FCE7012005
:1034E800FAE70320F8E708B5FFF7CFFC033008BD7B
:1034F80008B5FFF721FC08BD08B5FFF76BFB08BD51
:1035080008B5FFF703F900B208BD000038B50D464D
:103518004FF47A7402FB04F4FFF7B2F82846FFF779
:103528009DFC0121FFF786FCFEF7ACFF044D214608
:10353800284601F02BFB284601F0CAFA38BD00BF27
:103548002C03002008B5FFF79BF808BD08B5002339
:103558001A464FF4C0710846FFF754F8FEF782FF89
:1035680008BD000038B5044600231A464FF6FF711F
:103578000846FFF747F864B90D4C002194F8560047
:10358800FFF758FC63786BB16FF07F40FEF728FFB8
:1035980038BD084D2146284601F0F8FA284601F0C2
:1035A80097FAE9E7024B98688001FEF719FFEFE701
:1035B800D4020020BC02002008B54FF00400FFF739
:1035C80053FA022000F0AAFF08BD000070B58AB0C7
:1035D80006460C4600231A4640F201210846FFF72A
:1035E80011F8424D012195F85600FFF723FC2B787E
:1035F800032B0DD8DFE803F01702222F3B48C477CE
:103608000E30FFF723FB002221463046FFF7E5FB8B
:10361800374C364B5968204601F0B8FA204601F07D
:1036280057FA0AB070BD314884750E30FFF70EFBAB
:10363800002221463046FFF7D0FBE9E72B4802235A
:10364800837384760E30FFF701FB00222146304653
:10365800FFF7C3FBDCE7002101911F2202A801F05C
:103668005DFB2246314601A8FFF764FD1F4E022389
:10367800B373651CEDB2B57606F10E00FFF7E6FAF6
:10368800B36C642B21D00021F120FFF7CBFD002182
:10369800F020FFF7C7FDE121F320FFF7C3FD042168
:1036A800F220FFF7BFFDE1008C1C090AF420FFF7A8
:1036B800B9FD04F0FE01F520FFF7B4FD6FF07F427D
:1036C800294601A8FFF789FBA2E70021F120FFF7AF
:1036D800A9FD0021F020FFF7A5FD7021F320FFF7D9
:1036E800A1FD1D21F220FFF79DFDDCE7D40200209B
:1036F8002C03002008B5114B1870032816D0042895
:1037080018D0012806D00020FFF7A8F80B4B00229C
:103718005A7308BD0120FFF7A1F8084B5A7B187BA4
:103728008242F6D0587300F021FAF2E70220FFF740
:1037380095F8EEE70020FFF791F8EAE7D4020020B9
:103748002DE9F04182B00C4616461D460023009331
:103758000193012861D0022800F0D18050B1304691
:10376800FFF77CFB764B83F856005D60002002B0C3
:10377800BDE8F0818B68002B00F0D6800B69002B28
:1037880000F0D580087D082800F2D480002107E0E9
:10379800A3695A5C01F108036B4403F8082C013152
:1037A8008842F5DC664F4FF0000887F83880A36838
:1037B800FB63237887F844306068FFF7BFFB87F81E
:1037C8004500E3683B6487F80E802369DB003B8291
:1037D8000423BB74237DDB00FB7487F81480A37F6C
:1037E8007B75E37FFB7594F822303B76FFF780FD0D
:1037F8004046FFF77FFF07F13800FFF74BF807F166
:103808000E00FFF723FA6846FFF7EEF9A08BFFF7E3
:103818004FF9208CFFF705FAA1E7494B012283F8FD
:10382800382091F8242083F8502091F8252083F837
:10383800512091F8262083F8522091F82730012B47
:103848003DD0022B40D0ABB394F82730003B18BFD3
:1038580001233B4F87F853304FF0010887F80E805B
:10386800238DBB8394F82A30BB7794F82B3087F8E4
:10387800203094F82C3087F82130FFF739FD404686
:10388800FFF738FF07F13800FFF704F807F10E00DB
:10389800FFF7DCF997F85130062B25D040F6890060
:1038A800FFF786F840F00401C9B240F68900FEF738
:1038B8007FFF54E7224B002283F85320C4E7204BB4
:1038C800012283F85320BFE791F824300B3BDBB289
:1038D800012B04D91A4B002283F85320B4E7184B64
:1038E800012283F85320AFE740F68900FFF760F81C
:1038F80000F0FB0140F68900FEF75AFF2FE78B68BE
:10390800013BB3F57A7F18D20220FFF7F3FE0C488B
:10391800022380F83830236B8364162380F84C30F8
:103928003830FEF7B7FF1AE74FF0FF301FE74FF0C8
:10393800FF301CE74FF0FF3019E74FF0FF3016E774
:10394800D40200202DE9F04182B00C461E46002327
:1039580000930193134602B10026003B18BF0123D0
:10396800814A537028B101286FD0002002B0BDE809
:10397800F081E368002B00F0EB802369002B00F056
:10398800EA80637D082B00F2E980002207E0A16944
:10399800885C02F10801694401F8080C013293427D
:1039A800F5DC94F82330002B4CD194F81C80206867
:1039B800003818BF0120FEF779FD6B4D002785F808
:1039C8003870E368EB63237985F84430A068FFF723
:1039D800B5FA85F84500AF732369DB002B82237D98
:1039E800AB74637DDB00EB7494F822302B7594F88C
:1039F80023306B7585F8168094F82430EB7594F8AD
:103A080028302B76FFF774FC3846FFF773FE05F174
:103A18003800FEF73FFF05F10E00FFF717F968467B
:103A2800FFF7E2F8208CFFF743F8E08CFFF7F9F88E
:103A38004FF4FA5303FB06F6E368B6FBF3F6AE6001
:103A4800384693E74FF0FF08B1E7A38E002B00F04C
:103A5800888094F83630012B53D0FF27E06A00386D
:103A680018BF0120FEF722FDF0B2FEF7D3FE3E4B51
:103A7800012283F8382094F8302083F8502094F8F5
:103A8800312083F8512094F8322083F8522094F89A
:103A98003330012B3CD0022B3FD0A3B3324D01264B
:103AA800AE73A38EAB8394F83630AB77EF7794F888
:103AB800383085F8203094F8393085F82130FFF710
:103AC80017FC3046FFF716FE05F13800FEF7E2FE58
:103AD80005F10E00FFF7BAF895F82130B3422CD063
:103AE80040F23670FEF764FF40F00401C9B240F2BC
:103AF8003670FEF75DFE1C4B4FF6FF729A60002091
:103B080034E7277FAAE7184B002283F85320C5E73C
:103B1800154B012283F85320C0E794F830300B3B53
:103B2800DBB2012B04D9104B002283F85320B5E7F0
:103B38000D4B012283F85320B0E740F23670FEF7B0
:103B480037FF00F0FB0140F23670FEF731FED2E796
:103B58004FF0FF300AE74FF0FF3007E74FF0FF3034
:103B680004E74FF0FF3001E7D402002010B5044607
:103B78000E4B187358730120FFF7BCFD54B1342164
:103B88004FF4E860FEF714FE442140F24170FEF75E
:103B98000FFE10BD14214FF4E860FEF709FE242142
:103BA80040F24170FEF704FEF3E700BFD4020020A4
:103BB8002DE9F04F83B004460D46BDF838809DF8D6
:103BC8003C909DF840A001287CD0164603281ED0C2
:103BD80068B3012C05D16B4B93F85130062B00F0DC
:103BE800C68040F68900FEF7E3FE40F00401C9B242
:103BF80040F68900FEF7DCFD2846FFF72FF9614BF8
:103C080083F85600149A5A6003B0BDE8F08F032079
:103C1800FFF770FD5B48022380F838300C9B836403
:103C2800162380F84C303830FEF734FED1E7554F74
:103C38004FF0000B87F838B00C9AFA630B2287F81C
:103C480044201846FFF77AF987F845003E6487F85C
:103C58000EB04FEAC808A7F810800423BB741823D5
:103C6800FB7487F814B089F0010987F81590BAF148
:103C7800000F23D0F222FA75424E01233376FFF764
:103C880037FB374617F8380F003818BF0120FFF701
:103C980031FD3846FEF7FEFD06F10E00FEF7D6FFB1
:103CA800394A6B4692E8030083E803001846FEF79A
:103CB8009BFF40F2FF10FEF7FBFE8AE7314B012223
:103CC800DA75D9E72F49012281F838200C9AD2B247
:103CD80081F850202D48C05C81F851009DF83400CF
:103CE80081F852001BB90C990B39012930D9012BE5
:103CF8002BD0244B002183F85310224B01219973B8
:103D0800053AD2B28A4228D91E4BA3F81C801D4E10
:103D180086F81E901E4B1B78F37786F820A09DF836
:103D28004C3086F82130FFF7E3FA374617F8380F9A
:103D3800003818BF0120FFF7DDFC3846FEF7AAFD62
:103D480006F10E00FEF782FF43E70C9B0C2BD0D147
:103D58000C4B012183F85310CFE7B8F10B0F02D8B1
:103D68000C229A83D3E7074BA3F81C80CFE740F6D1
:103D78008900FEF71DFE00F0FB0140F68900FEF702
:103D880017FD39E7D4020020804D0008104E0008C6
:103D98005C0000202DE9F04F85B00E4615461C4604
:103DA800BDF83C80BDF840909DF844709DF84CA04B
:103DB8009DF85C30AC4A53700BB14FF000096FB1FD
:103DC8009DF84820A94B1A70012800F0D6800428D5
:103DD80008D000287CD005B0BDE8F08FA34BFF22A7
:103DE8001A70F1E70120FEF761FB9F4C002784F869
:103DF8003870E563092384F844304FF4487323642A
:103E08003046FFF79BF884F84500A7734FEAC808C7
:103E1800A4F81080A7741023E37427756775934B73
:103E28001B78A3750123E37527760420FFF762FC4E
:103E380004F13800FEF72EFD04F10E00FEF706FF30
:103E48006B468B4A92E8030083E803001846FEF7A6
:103E5800CBFE40F2FF10FEF72BFE40F6B800FFF74E
:103E6800DDF900F0EF0140F6B800FFF7DBF90421B7
:103E780040F6B900FFF7D6F940F69B00FFF7CEF9F8
:103E880000F0E30141F0080140F69B00FFF7CAF992
:103E980040F2D160FFF7C2F900F0E70141F01801E4
:103EA80040F2D160FFF7BEF940F2AC60FFF7B6F917
:103EB80000F08F0141F0500140F2AC60FFF7B2F919
:103EC8004FF4FA5303FB09F9B9FBF5F5A56082E74E
:103ED8000020FEF7EBFA644C4FF0000B84F838B082
:103EE800E5630B2384F844303046FFF727F884F85D
:103EF800450084F80EB04FEAC808A4F810800423DF
:103F0800A3741823E37484F814B087F00107677565
:103F1800564B1B78A375BAF1000F2AD0F222E2752E
:103F2800514C01232376FFF7E3F9264616F8380F9C
:103F3800003818BF0120FFF7DDFB3046FEF7AAFC6A
:103F480004F10E00FEF782FE4A4A02AB92E8030033
:103F580083E803001846FEF747FE40F2FF10FEF71D
:103F6800A7FD4FF4FA5303FB09F9B9FBF5F5A56072
:103F780031E73D4B0122DA75D2E70020FEF796FAC9
:103F8800394A012382F83830EBB282F850303A4986
:103F9800895D82F8511082F852401EB9A5F10B02D2
:103FA800012A45D9012E41D02F4A002182F8531009
:103FB8002D4A01219173053BDBB28B423DD92A4B37
:103FC800A3F81C80284CA777284B1B78E37784F844
:103FD80020A09DF8583084F82130FFF789F925464C
:103FE80015F8380F003818BF0120FFF783FB284663
:103FF800FEF750FC04F10E00FEF728FE5FFA89F088
:10400800FEF708FC94F82130012B21D040F23670DD
:10401800FEF7CEFC40F00401C9B240F23670FEF75C
:10402800C7FB114B4FF6FF729A60D4E60C2DBBD13B
:104038000D4A012182F85310BAE7B8F10B0F03D8E3
:1040480013460C229A83BDE7074BA3F81C80B9E7F7
:1040580040F23670FEF7ACFC00F0FB0140F236701F
:10406800FEF7A6FBDDE700BFD40200205C000020BD
:10407800884D0008804D0008104E000808B5012042
:10408800FFF738FB00231A4619461846FEF7BAFA16
:10409800FEF75CFE08BDF0B58BB004460F46164629
:1040A8001D46FFF725F90020FFF724FB2046FFF700
:1040B80049FA012309930024089407940694059467
:1040C80004940394029403230193009723464FF426
:1040D800167239462046FFF75DFE2046FFF742FA82
:1040E800FFF701FA00F01AFA00F058FC04462046DF
:1040F80000F05EFCA84206D20020FFF701FAB042A9
:10410800F5DD002400E00124FFF7F2F820460BB0AB
:10411800F0BD000070B582B01D4B18601D4B002427
:104128005C705C609C601C48FEF766FC2046FFF7EC
:104138001DFDFEF7CBF921462046FEF7D5FA0422ED
:1041480021460120FEF7CEFC234622464FF6FF719A
:104158000846FEF757FAFFF72FFA104E0094104B57
:1041680022464FF0FF31304600F0FAFB0D4D009427
:104178000D4B22464FF0FF31284600F0F1FB304648
:1041880000F04CFC284600F049FC02B070BD00BFAE
:10419800B8010020D4020020B93400082C03002004
:1041A80015310008BC020020293100082DE9F04132
:1041B80088B00024039404940594069407944FF05F
:1041C800B043DA6C42F00202DA64DA6C02F00202FE
:1041D8000292029ADA6C42F00102DA64DA6C02F0B6
:1041E80001020192019ADA6C42F00102DA64DB6C96
:1041F80003F001030093009B4FF480770397012598
:1042080004950323069303A94FF09040FDF7E0FFC0
:104218004FF40078CDF80C8003A94FF09040FDF7DB
:10422800D7FF03950C4E03A93046FDF7D1FF224670
:1042380041464FF09040FEF790F8224639464FF03D
:104248009040FEF78AF8224629463046FEF785F860
:10425800204608B0BDE8F0810004004808B50328EE
:1042680016D8DFE800F002172B3F0022012127486B
:10427800FEF773F800224FF480714FF09040FEF77C
:104288006CF800224FF400714FF09040FEF765F88B
:10429800002008BD012211461C48FEF75EF80122E5
:1042A8004FF480714FF09040FEF757F800224FF41A
:1042B80000714FF09040FEF750F8E9E701221146EF
:1042C8001248FEF74AF801224FF480714FF09040EF
:1042D800FEF743F801224FF400714FF09040FEF7CB
:1042E8003CF8D5E7012211460848FEF736F80022C7
:1042F8004FF480714FF09040FEF72FF801224FF4F1
:1043080000714FF09040FEF728F8C1E7000400481C
:10431800002070470A20704700207047002070472F
:1043280008B5114B1B78012B0BD0022B11D003B110
:1043380008BDFCF730F90028FAD10B4B02221A709D
:10434800F6E7FCF728F90128F2D1074B00221A708A
:10435800EEE7FCF720F918B9034B01221A70E7E7DA
:10436800014B00221A70E3E74403002010B582B025
:10437800064C00230093064B01221421204600F02E
:10438800EFFA204600F0A4FB02B010BD480300205D
:1043980029430008014B1878704700BF44030020E8
:1043A800024B9868C043024B1860704700280040D1
:1043B80064030020014B1868704700BF64030020A5
:1043C800034B9B68DB43034A1068181A704700BF09
:1043D8000028004064030020044B1B781BB1044BE9
:1043E8009868C0437047034B186870476003002003
:1043F80000280040A80100200320704708B50146A6
:104408004FF47A7200238002890DFBF7B1FE08BDD4
:10441800C20E43011B1A62F10002920042EA937233
:104428009B001B1842F10000C00040EA5370C3F320
:10443800D51343EA8050704710B5074B0122DA655F
:10444800064C4FF480712046FCF756FF4FF0FF33BF
:104458002363002010BD00BF002800406401002035
:1044680008B5024602210248FCF7E5FD08BD00BF79
:104478006401002038B50F4B1B780BB1002038BD04
:104488000D4C4FF0FF352563FCF70AF9FFF7D4FF11
:104498004FF480712046FCF72FFF25632046FCF778
:1044A80069FD0020FFF7DCFFFFF77AFF014B0122CF
:1044B8001A70E3E7600300206401002010B58CB097
:1044C80004462C22002101A800F028FCFFF7B4FFC5
:1044D8000C4B1B681C4400230893E4430294069386
:1044E8004FF0005307934FF480730B93012201A9F7
:1044F8000548FDF723F808B172B6FEE700200CB0B6
:1045080010BD00BF640300206401002008B502212B
:104518000148FCF797FD08BD6401002008B5FFF7C6
:104528006DFF064B9A68D24300E000BF034B9B68BF
:10453800DB439B1A8342F8D308BD00BF0028004024
:1045480008B500F03DFB08BD08B5FFF7DFFF0130F7
:10455800FFF786FF08BD000000B59BB04822002188
:1045680008A800F0DBFB0023029303930493059350
:104578000693079317490A6822F4C06242F48062DE
:104588000A600A6802F4C0620192019A092208923C
:104598004FF4803209920F930A9301220E921393DB
:1045A80008A8FDF7A3F908B172B6FEE74F230293F6
:1045B8000223039300230493059306930793012191
:1045C80002A8FDF7CFFC08B172B6FEE71BB05DF894
:1045D80004FB00BF0004005808B5FDF7D7FDFFF73E
:1045E800BBFFFBF7AFFF00F0AFF9FBF7F1FFFBF7FD
:1045F80041FFFFF7BBFE00F0A5F800210846FCF7D5
:1046080033F800F027F9FCE70020704708B5FFF7FA
:10461800E3FE08BD00B583B001900198FFF77EFF67
:1046280003B05DF804FB7047FEE7FEE7FEE7FEE730
:1046380070477047704708B5FDF7BEFD08BD00001C
:1046480008B50248FCF7E2FC08BD00BF6401002081
:1046580008B50248FCF78CFE08BD00BF64010020C5
:1046680008B50248FCF78CFB08BD00BF9C01002080
:10467800034B1B7813B1013B014A1370704700BF0D
:10468800E100002008B5064B1B7843B9044B012212
:104698001A70044B9B6A044A11780448984708BD6D
:1046A800A0030020C44E0008E000002060000020A5
:1046B800034B1B7813B9024B01221A70704700BFD5
:1046C800A00300207047000008B5044B5B6B002076
:1046D8009847034B00221A7008BD00BFC44E00085B
:1046E800A003002008B5024B5B6B0020984708BD6B
:1046F800C44E000808B5024B5B6B0020984708BD04
:10470800C44E000808B5024B5B6B0020984708BDF3
:10471800C44E000810B504460522074900F0EEFA19
:1047280028B105220549204600F0E8FA10B9044BE3
:104738000A221A7010BD00BF6C4F0008744F0008A1
:10474800E10000202DE9F0418AB03348334B836003
:10475800334B0361334BC360334B0360334B4360CC
:10476800334B8361334E3368984740F6B833089328
:1047780000240794069405940125049503940527BD
:10478800029701954FF00B08CDF80080234622468A
:1047980012212846D6F81CC0E047099508940794CA
:1047A80006940595049403940297019700942B4668
:1047B800424621462846B769B847736D8021284686
:1047C8009847F3681C489847736B204698470094AD
:1047D8001A4B224621461A4800F0C2F8194E009496
:1047E800194B2A464FF4FA61304600F0B9F83046C2
:1047F80000F06EF9154E0094154B2A464FF47A6175
:10480800304600F0ADF8304600F062F92046FFF778
:1048180039FF0AB0BDE8F081840300201D47000875
:104828000D470008FD460008D1460008ED4600087F
:10483800CD460008C44E0008400ECF19B9460008FE
:10484800C0030020A4030020794600086C03002060
:104858008D46000808B5FBF7A5FEE0B90021012048
:10486800FBF702FF0120FBF75BFE0220FBF7A2FE2D
:104878000020FBF743FE2C4B1B78012B26D003208E
:10488800FBF798FE0220FBF739FEFFF783FD28B3FC
:10489800012837D008BD0120FBF78CFE0120FBF76B
:1048A8002DFE224B1B7853B900210220FBF7DCFEBA
:1048B8000020FBF735FE1C4B00221A70DBE70220B4
:1048C800FBF778FE0020FBF719FED4E70021032050
:1048D800FBF7CAFE0220FBF723FED6E7144B1B7832
:1048E800002BD7D0124B00221A70124B124A92E8B2
:1048F800030018601971114B05221A70104B012220
:104908001A70C7E70A4B1B78012BC3D00123084A4A
:104918001370084A0B4903C910601171074A052131
:104928001170074A1370B5E768030020E100002002
:10493800A1030020600000207C4F0008E000002058
:10494800BC030020844F000808B5034B00221A60FE
:10495800024B1B68984708BDD8030020404F000849
:10496800A8B1F8B517461E46044693B10025056060
:10497800094B5B6A08469847606025726572A572A4
:10498800E660069B2361E77265612846F8BD012051
:1049980070470120FAE700BF404F000810B5034CEC
:1049A800E3699847A36A984710BD00BF404F0008C5
:1049B80070B50646054DEB69984704466B6A304664
:1049C8009847AB6A201A984770BD00BF404F00084F
:1049D800054B1B6800E05B691BB18342FBD10120DA
:1049E80070470020704700BFD8030020F8B5044680
:1049F800094E336A98470546012323722768B6692A
:104A0800B0472844874202D2B04705442560024B8C
:104A18009B6820689847F8BD404F000868B310B5F8
:104A28000246EFF3108472B6154B1968012383729E
:104A3800E1B100234372884206D00B46B3B19342DA
:104A480011D019465B69F9E70B72486920B10C4B24
:104A58001860FFF7CBFF09E00A4BDB689847084B63
:104A680000221A6002E05B6923B14B6184F310886D
:104A7800002010BD00234B61F8E70120704700BFFC
:104A8800D8030020404F0008094B1A68536901E019
:104A98001A465B69516939B11968D0F800C08C456C
:104AA800F6D85061436170475061002343617047F5
:104AB800D803002008B5054B1B680BB100221A72F9
:104AC8004361024B1860FFF791FF08BDD80300202F
:104AD800F8B5002836D00446FFF77AFF002834D10D
:104AE800657A002D33D1EFF3108672B66768194BDB
:104AF8001B6A9847874200D33846206000232372F8
:104B080001226272A372144B1B6883B1114B9B691B
:104B180098472368184420600F4B1B681B6898420D
:104B28000CD22046FFF7C6FF86F310880BE0094B2E
:104B38001B6998472046FFF7BDFFF5E72046FFF7BA
:104B4800A3FFF1E701252846F8BD0125FBE701256C
:104B5800F9E700BF404F0008D803002090B110B516
:104B68000446094B5B6A0846984760602046FFF791
:104B78002FFF18B92046FFF7ABFF10BD2046FFF7FF
:104B88004DFFF7E701207047404F000898B110B576
:104B980004460A4B5B6A0846984760602046FFF760
:104BA80017FF08B9002010BD2046FFF737FF204641
:104BB800FFF78EFFF7E70120704700BF404F00085E
:104BC80070B5EFF3108572B61E4C636998470646B8
:104BD80023699847841B1C4B1B6823B918E00022E3
:104BE8001A605B69A3B11A68A242F8D9311A0A445B
:104BF8001A60F6E7144B1C6862691A600023237276
:104C08006372E368206998476389B3F5807F12D09F
:104C18000D4B1B683BB11C68002CEBD0094B9B6902
:104C280098478442E6D3084B186808B1037A33B131
:104C380085F3108870BD2046FFF74AFFE8E7FFF7C5
:104C4800D5FEF5E7404F0008D803002002E000F841
:104C5800011B1A46531E9BB2002AF8D17047000068
:104C68000D488546FBF7BAFD0C480D490D4A00234F
:104C780002E0D458C4500433C4188C42F9D30A4A09
:104C88000A4C002301E013600432A242FBD300F077
:104C980011F8FFF7A1FCFEE700400020000000200B
:104CA800E8000020A84F0008E8000020E0030020EA
:104CB800FEE7000070B50D4D0D4C641BA4100026D6
:104CC800A64209D10B4D0C4C00F030F8641BA4101F
:104CD8000026A64205D170BD55F8043B9847013619
:104CE800EEE755F8043B98470136F2E7984F00087D
:104CF800984F0008984F00089C4F000810B50139DC
:104D08000244904201D1002005E0037811F8014FD8
:104D1800A34201D0181B10BD0130F2E7024403463C
:104D2800934200D1704703F8011BF9E7F8B500BFBB
:104D3800F8BC08BC9E467047F8B500BFF8BC08BC74
:084D48009E46704700000000C8
:104D5000120024003000000006000C0010000000CB
:104D60000000000001000000020000000000000040
:104D70000000000000000000000000000000000033
:104D8000C194C10000000000B22700000000000034
:104D90000100000003000000050000000100000009
:104DA00001000000060000000A00000020000000D2
:104DB00002000000040000000800000010000000D5
:104DC0004000000080000000000100000002000020
:104DD000A0860100400D0300801A060000350C007B
:104DE00040420F0080841E0000093D0000127A003E
:104DF0000024F40000366E010048E801006CDC027B
:104E000000000000000000000000000000000000A2
:104E100004050600C01200001F000000A8160000D4
:104E200017000000841C00000F000000E4250000B3
:104E30001E000000B42D000016000000083900001C
:104E40000E0000002C4C00001D000000685B0000FC
:104E500015000000747200000D000000589800005A
:104E60001C00000034B7000014000000E8E400005B
:104E70000C000000783101001B000000686E01008A
:104E80001300000034CA01000B0000002862020079
:104E90001A00000040DB0200120000003C930300F7
:104EA0000A000000C0C204001900000060B3050041
:104EB00011000000382007000900000020A10700B1
:104EC000000000001D410008CD340008FD36000838
:104ED0004D3500089F400008854000089D3D0008B2
:104EE000B93B0008752F0008A1300008D53500082F
:104EF000C1350008F93200086D3500085535000845
:104F000015350008093500082D3200082532000843
:104F100001350008F9340008ED310008753B000840
:104F2000EF34000805330008A53200087532000888
:104F300049320008353200084D3900084937000869
:104F40007D44000800000000C544000841440008FA
:104F5000A9430008BD430008C9430008E143000815
:104F60000144000805440008194400083261636BDD
:104F7000000000003361636B000000003163636375
:104F800000000000316F6F6F0000000000000000A3
:084F900018B2FF7F01000000D0
:084F98005D01000800000000AB
:084FA0003901000800000000C7
:104FA8000400000000000048020000000000004863
:104FB8000100000000000048000100000004004853
:104FC8008000000000040048400000000004004881
:104FD800000800000000004800100000000400481D
:104FE800040000000004004800040000000000481D
:104FF80000093D000100000010000000FF00000053
:10500800316363630000000000000000000000003E
:105018000000000000000000000000000000000088
:105028000000000000000000000000000000000078
:105038000000000000000000000000000000000068
:105048000000000000000000000000000000000058
:105058000000000000000000000000000000000048
:105068000000000000000000000000000000000038
:105078000000000000000000000000000000000028
:08508800050A00000000000011
:0400000508004C693A
:00000001FF
