:020000040800F2
:10000000004000201D4D0008274400082944000836
:100010002B4400082D4400082F4400080000000075
:100020000000000000000000000000003144000853
:10003000334400080000000035440008374400083D
:100040006D4D00086D4D0008414400086D4D0008DD
:100050006D4D00086D4D00086D4D00086D4D000898
:100060006D4D00086D4D00086D4D00086D4D000888
:100070006D4D00086D4D00086D4D00086D4D000878
:100080006D4D00086D4D00086D4D00086D4D000868
:100090006D4D00086D4D00086D4D00086D4D000858
:1000A0006D4D00086D4D00086D4D00086D4D000848
:1000B0006D4D00086D4D00086D4D00086D4D000838
:1000C0006D4D00086D4D00086D4D00086D4D000828
:1000D0006D4D00086D4D00086D4D00086D4D000818
:1000E0006D4D00086D4D0008514400086D4D00082D
:1000F0006D4D00086D4D00086D4D00086D4D0008F8
:100100006D4D00086D4D0008614400086D4D0008FC
:100110006D4D00086D4D00086D4D00086D4D0008D7
:100120006D4D00086D4D00086D4D00086D4D0008C7
:080130006D4D00086D4D000843
:1001380010B5054C237833B9044B13B10448AFF319
:1001480000800123237010BDE8000020000000009B
:10015800C84D000808B5034B1BB103490348AFF36A
:10016800008008BD00000000EC000020C84D000819
:1001780010F8012B11F8013B012A28BF9A42F7D049
:10018800D01A704753B94AB9002908BF00281CBFC4
:100198004FF0FF314FF0FF3000F06CB9ADF1080CB3
:1001A8006DE904CE00F006F8DDF804E0DDE902238D
:1001B80004B070472DE9F047089E0D4604468E4668
:1001C800002B40F082808A42174646D9B2FA82F262
:1001D8004AB1C2F1200105FA02F320FA01F1974071
:1001E80041EA030E94404FEA1748230CBEFBF8FC83
:1001F800B9B208FB1CEE43EA0E430CFB01F098422F
:100208000AD9FB180CF1FF3580F01681984240F2AC
:100218001381ACF1020C3B441B1AA4B2B3FBF8F0F7
:1002280008FB103344EA034400FB01F1A14209D959
:100238003C1900F1FF3380F00181A14240F2FE80B9
:1002480002383C44641A40EA0C4000211EB1D440F4
:100258000023C6E90043BDE8F08702B9FFDEB2FA21
:1002680082F2002A4FD1CB1B4FEA174E1FFA87F8AC
:100278000121B3FBFEFC250C0EFB1C3345EA0345AC
:1002880008FB0CF3AB4207D97D190CF1FF3002D201
:10029800AB4200F2E7808446ED1AA3B2B5FBFEF04C
:1002A8000EFB105543EA054408FB00F8A04507D9A2
:1002B8003C1900F1FF3302D2A04500F2D78018465E
:1002C800A4EB080440EA0C40C0E78B4208D9002E92
:1002D80000F0AF800021C6E900050846BDE8F087B8
:1002E800B3FA83F100294BD1AB4202D3824200F228
:1002F800B780841A65EB030301209E46002EAAD01E
:10030800C6E9004EA7E7C2F1200C01FA02F39740B4
:1003180020FA0CF04FEA174E21FA0CFC1843BCFBEC
:10032800FEF1050C0EFB11CC1FFA87F845EA0C45C7
:1003380001FB08F3AB4204FA02F409D97D1901F173
:10034800FF3C80F08B80AB4240F2888002393D440C
:10035800EB1A85B2B3FBFEF00EFB103345EA0345FA
:1003680000FB08F3AB4207D97D1900F1FF3C71D2BD
:10037800AB426FD902383D44EB1A40EA014178E7B5
:10038800C1F1200C8B4022FA0CF71F4320FA0CF421
:1003980005FA01F34FEA174E25FA0CF51C43230C16
:1003A800B5FBFEF91FFA87F80EFB195543EA054518
:1003B80009FB08FAAA4502FA01F200FA01F308D982
:1003C8007D1909F1FF3047D2AA4545D9A9F102099B
:1003D8003D44A5EB0A05A4B2B5FBFEF00EFB105593
:1003E80044EA054400FB08F8A04507D93C1900F188
:1003F800FF352DD2A0452BD902383C4440EA0940AC
:10040800A4EB0804A0FB02894C45C6464D4619D307
:1004180016D05EB1B3EB0E0264EB050404FA0CFCD3
:10042800CA404CEA0202CC40C6E900240021BDE8DB
:10043800F087314630460EE7AC46EDE6184601E750
:100448004345E6D2B8EB020E69EB07050138E0E751
:100458002846D3E760468FE78146BAE7614677E7E3
:1004680008464BE7ACF1020C3D4415E702383C4422
:1004780026E700BF704700BF00B587B0002105918F
:100488004FF0B043DA6C42F00102DA64DB6C03F03F
:1004980001030093009B0291012303930323049318
:1004A8001023019301A94FF0904000F007FA4FF490
:1004B8008053019301A94FF0904000F0FFF907B075
:1004C8005DF804FB08B510214FF0904000F0ACFA3D
:1004D80008BD08B54FF480514FF0904000F0A4FAE1
:1004E80008BD000010B5054B03EBC004002233F82B
:1004F8003010606800F09FFA10BD00BF00000020B7
:1005080030B58BB0002409944FF0B043DA6C42F058
:100518000202DA64DA6C02F002020492049ADA6CDB
:1005280042F00402DA64DA6C02F004020392039ADD
:10053800DA6C42F00102DA64DB6C03F00103029327
:10054800029B0123069307930323089316E00D4BA0
:1005580033F83420059203EBC40305A9586800F06A
:10056800ADF904EB4403D8000094074B0022114670
:10057800064D284404F050FA0134E4B2032CE6D9BD
:100588000BB030BD00000020ED040008AC020020D4
:1005980038B504460D460A4B03EBC000012233F878
:1005A8003410406800F047FA05B938BD04EB44043C
:1005B8002946044800EBC40004F034FBF5E700BF0B
:1005C80000000020AC02002030B589B00024079458
:1005D8004FF0B043DA6C42F00202DA64DA6C02F0EF
:1005E80002020292029ADA6C42F00402DA64DA6CCD
:1005F80002F004020192019ADA6C42F00102DA6414
:10060800DB6C03F001030093009B01230493059323
:100618000323069311E00B4B220103EB04159B5AAD
:10062800039303A9686800F049F92B89039303A988
:10063800E86800F043F90134E4B2022CEBD909B0C0
:1006480030BD00BF2000002010B5074B010103EBAF
:1006580000140022595A606800F0EDF9012221893E
:10066800E06800F0E8F910BD2000002010B5074B45
:10067800010103EB00140122595A606800F0DBF90C
:1006880000222189E06800F0D6F910BD2000002082
:1006980000B58DB02C22002101A804F089FB184870
:1006A800184B03601F238360002303614361836148
:1006B8004FF08042C26103624FF48073436201F0DD
:1006C80037F908B172B6FEE70D4801F065FA08B1CE
:1006D80072B6FEE700230893029306934FF0005387
:1006E80007934FF480730B93012201A9044801F08A
:1006F8007DF908B172B6FEE70DB05DF804FB00BFE6
:100708000C0300200028004010B590B004463822A1
:10071800002102A804F04CFB2268194B9A4201D030
:1007280010B010BD4FF4803302934FF400730F9351
:1007380002A800F0F9FE08B172B6FEE74FF0B04328
:10074800D3F8902042F40042C3F890209A6D42F406
:1007580080629A659B6D03F480630193019B00227C
:100768001146022000F068F8022000F099F80022F3
:1007780011462A2000F060F82A2000F091F8CFE70F
:100788000028004008B504480823036001F066FA11
:1007980008B172B6FEE708BD4403002000B583B077
:1007A8004FF0B0435A6E42F001025A665B6E03F096
:1007B80001030193019B00221146322000F03CF80E
:1007C800322000F06DF803B05DF804FB7047704705
:1007D80010B5032000F01EF800F048FA064B186028
:1007E8000F2003F00DFE10B10124204610BD044671
:1007F800FFF7EDFFF9E700BF50000020034B1B781F
:10080800034A11680B441360704700BF540000206E
:1008180050030020074AD36823F4E0631B041B0C31
:10082800000200F4E060034343F0BF6343F4003385
:10083800D360704700ED00E030B4174BDB68C3F3BA
:100848000223C3F10704042C28BF04241D1D062D10
:1008580018D9033B4FF0FF3505FA04F421EA0401E7
:10086800994005FA03F322EA0303194300280BDB36
:100878000901C9B200F1604000F5614080F8001339
:1008880030BC70470023E5E700F00F000901C9B24A
:10089800024B1954F4E700BF00ED00E014ED00E04E
:1008A800002807DB00F01F02400901239340024A99
:1008B80042F82030704700BF00E100E0F0B50023A7
:1008C80091E086685F000325BD4026EA0506CD68ED
:1008D800BD4035438560466826EA04064D68C5F381
:1008E80000149C4034434460C7685E000325B5404B
:1008F800EC4327EA05078D68B5403D43C5604D6860
:10090800022D01D0122D13D1DF08083750F827E047
:1009180003F007054FEA850C0F2505FA0CF52EEABA
:10092800050E0D6905FA0CF545EA0E0540F8275045
:10093800056825404C6804F00304B4402C43046067
:100948004C6814F0805F4DD09D08AE1C334C54F8B1
:10095800267003F00304A6000724B44027EA04071E
:10096800B0F1904F55D02E4CA04254D004F580647D
:10097800A0424CD00724B4403C430235274E46F8E9
:100988002540284CD4F88050D44325EA02064F6805
:1009980017F4803F01D042EA0506224DC5F8806071
:1009A800D5F8845004EA05064F6817F4003F01D0D3
:1009B80042EA05061B4DC5F884602D6804EA050661
:1009C8004F6817F4801F01D042EA0506154D2E60C6
:1009D8006D682C404E6816F4001F01D042EA0504E9
:1009E800104A546001330A6832FA03F415D001241E
:1009F8009C402240F6D04D686E1E012E7FF661AFF6
:100A0800112D3FF45EAF122D7FF46EAF59E702242B
:100A1800B1E70024AFE70124ADE7F0BD00000140D5
:100A280000040048000800580369194201D0012059
:100A38007047002070470AB1816170478162704732
:100A4800024A136843F48073136070470004005827
:100A5800024B186800F4C060704700BF00040058DB
:100A680070B588B004460E46294B93E803000690FB
:100A7800ADF81C10D96898680490ADF8141001AD51
:100A8800103393E8070085E80700B6F5007F1BD010
:100A98000023022B22D808AA02EB430232F8102CBA
:100AA800A24215D20133F4E70133022B0ED808AA6B
:100AB80002EB430232F8082CA242F5D308AA02EB53
:100AC800830353F81C5C0AE00023EEE7002506E0E8
:100AD80008AA02EB830353F81C5C00E000250D4ACA
:100AE800136823F007032B43136003F08BFC0446C1
:100AF800084B1B6803F00703AB4206D003F082FCE7
:100B0800001B0228F4D9032000E0002008B070BDC3
:100B1800E04D00080040005810B5C0F303100C4B1E
:100B280053F820404FF0B043D3F8083103F00F03D7
:100B3800084A52F82300B4FBF0F4FFF789FF014696
:100B48000548A0FB0430800CFFF78AFF10BD00BFEA
:100B5800604E0008204E000883DE1B434FF0B04370
:100B68009A68DB6803F0030312F00C020AD00C2A1F
:100B780006D0042A47D0082A3BD00021084626E0A0
:100B8800012BF6D14FF0B0431B6813F008030DD0CA
:100B98004FF0B0431B6813F0080324D14FF0B04165
:100BA800D1F894102E4951F823100EE04FF0B041BF
:100BB800096811F0080F12D14FF0B043D3F8943000
:100BC800C3F30323264951F82310D2B100204FF074
:100BD800B0439B6803F00C030C2B1AD070474FF0FE
:100BE800B0410968EEE74FF0B0431B68C3F3031345
:100BF800D8E74FF0B043196811F4801106D11948AD
:100C0800E5E70846E3E700211748E0E70021164832
:100C1800DDE74FF0B043DB6803F00303022B09D094
:100C2800032B08D14FF0B0431B6813F4801F15D174
:100C38000C4900E00C494FF0B042D068C0F30620E0
:100C480000FB01F0D368C3F302130133B0FBF3F0E8
:100C5800D3685B0F0133B0FBF3F0BFE70249EAE763
:100C6800604E00080048E8010024F40008B5FFF7CA
:100C780075FF4FF0B0439B68C3F30313024A52F861
:100C88002330B0FBF3F008BD204E0008002800F028
:100C98001883F8B504464FF0B0439D6805F00C057D
:100CA800DE6806F00306036813F0200F00F08F805B
:100CB800EDB10C2D19D0236A002B00F0BC804FF049
:100CC800B042136843F00103136003F09BFB07462F
:100CD8004FF0B0431B6813F0020F65D103F092FB8D
:100CE800C01B0228F4D90320F8E2012EE3D14FF00B
:100CF800B0431B6813F0020F03D0236A002B00F0E7
:100D0800E282A06A4FF0B0431B6813F0080F29D0A5
:100D18004FF0B0431B6803F0F00398422AD9FFF75D
:100D2800FBFE002840F0D1824FF0B0431A6842F031
:100D380008021A601A6822F0F002A16A0A431A60CF
:100D4800616A5A6822F47F4242EA01225A60FFF738
:100D58008DFFBC4B1860BC4B186803F051FB002892
:100D680035D0BBE24FF0B043D3F894301B0903F001
:100D7800F003D2E74FF0B0431A6842F008021A6055
:100D88001A6822F0F002A16A0A431A60616A5A6876
:100D980022F47F4242EA01225A60A06AFFF7BCFEB1
:100DA8000028D4D0012099E24FF0B0431A6842F0ED
:100DB80008021A601A6822F0F002A16A0A431A604F
:100DC800616A5A6822F47F4242EA01225A60236823
:100DD80013F0010F51D0082D45D00C2D41D04FF004
:100DE800B042136823F48013A1680B43136063684F
:100DF800B3F5803F63D0B3F5041F65D04FF0B0431F
:100E08001A6822F480321A601A6822F400121A60F2
:100E18006368002B63D003F0F5FA07464FF0B04340
:100E28001B6813F4003F28D103F0ECFAC01B6428B8
:100E3800F4D9032052E24FF0B042136823F00103C3
:100E4800136003F0DFFA07464FF0B0431B6813F056
:100E5800020FBCD003F0D6FAC01B0228F4D9032035
:100E68003CE2032EBBD14FF0B0431B6813F4003FA4
:100E780003D06368002B00F02A82236813F0020F66
:100E880052D0042D3DD00C2D39D02369002B00F011
:100E980091804FF0B042136843F48073136003F0FD
:100EA800B1FA06464FF0B0431B6813F4806F77D150
:100EB80003F0A8FA801B0228F4D903200EE2136875
:100EC80043F480331360A3E74FF0B0431A6842F449
:100ED80000121A601A6842F480321A6098E703F028
:100EE80091FA07464FF0B0431B6813F4003FC4D093
:100EF80003F088FAC01B6428F4D90320EEE1022E1F
:100F0800C3D14FF0B0431B6813F4806F03D023693B
:100F1800002B00F0DE8161694FF0B042536823F086
:100F2800FE4343EA01635360236813F0080F00F09F
:100F38008D80A369002B6CD04FF0B043D3F8943068
:100F4800E16903F01002914211D003F00302022A72
:100F580000F0C18113F0010F42D14FF0B042D2F836
:100F6800943023F01003E1690B43C2F894304FF03A
:100F7800B042D2F8943043F00103C2F8943003F041
:100F880041FA06464FF0B043D3F8943013F0020FFD
:100F98005CD103F037FA801B1128F3D903209DE1B7
:100FA80061694FF0B042536823F0FE4343EA01639E
:100FB8005360B9E74FF0B042136823F480731360AD
:100FC80003F020FA06464FF0B0431B6813F4806F15
:100FD800AAD003F017FA801B0228F4D903207DE178
:100FE8004FF0B042D2F8943023F00103C2F89430A5
:100FF80003F008FA06464FF0B043D3F8943013F0E4
:10100800020FAAD003F0FEF9801B1128F3D90320A0
:1010180064E14FF0B042D2F8943023F00103C2F8F3
:10102800943003F0EFF906464FF0B043D3F894300C
:1010380013F0020F0AD003F0E5F9801B1128F3D949
:1010480003204BE15000002058000020236813F0D3
:10105800040F00F0B180A94B1B6813F4807F10D1F6
:10106800FFF7EEFC03F0CEF90646A44B1B6813F419
:10107800807F06D103F0C6F9801B0228F5D903202A
:101088002CE1E368002B61D0852B01D0052B07D11B
:101098004FF0B042D2F8903043F00403C2F89030D9
:1010A80003F0B0F906464FF0B042D2F8903043F062
:1010B8000103C2F890304FF0B043D3F8903013F0EA
:1010C800020F08D103F09EF9801B41F28833984241
:1010D800F1D9032002E1E368812B01D0852B1AD1D5
:1010E80003F090F906464FF0B042D2F8903043F042
:1010F8008003C2F890304FF0B043D3F8903013F427
:10110800006F59D103F07EF9801B41F28833984271
:10111800F1D90320E2E003F075F906464FF0B0423A
:10112800D2F8903023F08003C2F890304FF0B043EB
:10113800D3F8903013F4006F3ED003F063F9801BAE
:1011480041F288339842F1D90320C7E003F05AF9F5
:1011580006464FF0B042D2F8903023F08003C2F830
:1011680090304FF0B043D3F8903013F4006F08D0AC
:1011780003F048F9801B41F288339842F1D90320E3
:10118800ACE003F03FF906464FF0B042D2F8903099
:1011980023F00103C2F890304FF0B043D3F89030F9
:1011A80013F0020F08D003F02DF9801B41F28833A9
:1011B8009842F1D9032091E0E36A002B00F08D807A
:1011C8000C2D62D0022B1FD04FF0B0431A6822F0CA
:1011D80080721A60DA6822F00302DA60DA6822F0B4
:1011E800885222F48032DA6003F00CF904464FF09A
:1011F800B0431B6813F0007F73D003F003F9001BA2
:101208000A28F4D9032069E04FF0B042136823F0AC
:101218008073136003F0F6F805464FF0B0431B687F
:1012280013F0007F2AD14FF0B042D36834491940F7
:10123800236B606B0343A06B43EA0023E06B03431B
:10124800206C0343606C03430B43D360136843F083
:1012580080731360D36843F08053D36003F0D2F8EF
:1012680004464FF0B0431B6813F0007F37D103F0FA
:10127800C9F8001B0A28F4D903202FE003F0C2F8AC
:10128800401B0A28C9D9032028E0012B2BD04FF096
:10129800B043DB6803F00301226B914225D103F0D0
:1012A8007002616B8A4222D103F4FE42A16BB2EB59
:1012B800012F1ED103F06043626C93421BD10020C2
:1012C8000CE001207047012008E0012006E0012021
:1012D80004E0012002E0012000E00020F8BD002029
:1012E800FCE70020FAE70120F8E70120F6E70120F3
:1012F800F4E70120F2E70120F0E700BF00040058FE
:101308008C80C111002800F0048170B50C46054698
:10131800824B1B6803F007038B4227D32B6813F01B
:10132800020F39D12B6813F0400F4DD12B6813F001
:10133800040F65D12B6813F0080F79D12B6813F0CF
:10134800010F00F0C1806B68022B00F08B80032B2B
:1013580000F09080002B40F095804FF0B04212686A
:1013680012F0020F40F094800120D1E06B4A13681C
:1013780023F007030B43136003F044F80646674B5A
:101388001B6803F00703A342C8D003F03BF8801B97
:101398000228F4D90320BBE0AB684FF0B0418A685B
:1013A80022F0F00213438B6003F02CF806464FF04E
:1013B800B0439B6813F4803FB4D103F023F8801B3B
:1013C8000228F4D90320A3E069694FF0B042D2F8AB
:1013D800083123F00F0343EA1113C2F8083103F070
:1013E80011F806464FF0B043D3F8083113F4803FA4
:1013F8009CD103F007F8801B0228F3D9032087E06B
:10140800EB684FF0B0418A6822F4E06213438B60C6
:1014180002F0F8FF06464FF0B0439B6813F4003F14
:1014280088D102F0EFFF801B0228F4D903206FE077
:1014380029694FF0B042936823F4605343EAC1032B
:10144800936002F0DFFF06464FF0B0439B6813F449
:10145800802F7FF473AF02F0D5FF801B0228F3D9E9
:10146800032055E04FF0B042126812F4003F0FD14C
:1014780001204DE04FF0B042126812F0007F07D112
:10148800012045E04FF0B042126812F4806F42D05C
:101498004FF0B0418A6822F0030213438B6002F0D8
:1014A800B1FF06464FF0B0439B6803F00C036A682F
:1014B800B3EB820F08D002F0A5FF801B41F28833FE
:1014C8009842EFD9032023E0144B1B6803F007036D
:1014D800A34215D9114A136823F007032343136065
:1014E80002F090FF05460D4B1B6803F00703A3426B
:1014F80006D002F087FF401B0228F4D9032007E03A
:10150800FFF7B4FB064B1860064B186802F078FF2B
:1015180070BD012070470120FAE700BF0040005865
:10152800500000205800002070B50446036813F4EA
:10153800803F40F0D6800025236813F0010F0AD0C1
:1015480062684FF0B041D1F8883023EA124392B272
:101558001343C1F88830236813F0020F0AD0A26839
:101568004FF0B041D1F8883023EA124392B21343C6
:10157800C1F88830236813F0200F09D023694FF091
:10158800B041D1F8882022F440621343C1F8883072
:10159800236813F4007F0CD0206A4FF0B041D1F8D3
:1015A8008830020C120423EA020343EA0043C1F81C
:1015B8008830236813F4806F0CD0606A4FF0B04114
:1015C800D1F88830020C120423EA020343EA0043EC
:1015D800C1F88830236813F4006F0CD0A06A4FF06C
:1015E800B041D1F88830020C120423EA020343EA1E
:1015F8000043C1F88830236813F0400F0FD06369A7
:101608004FF0B040D0F88820190901F47F2122EA70
:1016180001021B0103F47F231343C0F888302368B9
:1016280013F0800F0FD0A3694FF0B040D0F8882096
:10163800190901F47F2122EA01021B0103F47F2327
:101648001343C0F88830236813F4807F0FD0E36910
:101658004FF0B040D0F88820190901F47F2122EA20
:1016680001021B0103F47F231343C0F88830236869
:1016780013F0100F0DD0E3684FF0B041D1F8882077
:1016880022F440721343C1F88830E368B3F5807FD1
:101698007FD0236813F4004F0FD0236B4FF0B04175
:1016A800D1F8882022F040421343C1F88830236BD8
:1016B8001BB9CB6843F08073CB60236813F4804F69
:1016C8000DD0E36A4FF0B041D1F8882022F04052A3
:1016D8001343C1F88830E36AB3F1005F5ED028464F
:1016E80070BDFFF7ADF902F08DFE05462E4B1B6865
:1016F80013F4807F06D102F085FE401B0228F5D93D
:10170800032500E00025002D7FF416AF4FF0B0430D
:10171800D3F8903003F44073626B9A4224D04FF0B0
:10172800B043D3F8902022F44072D3F8901041F4DB
:101738008031C3F89010D3F8901021F48031C3F8A9
:101748009010C3F8902012F0020F0FD1002D7FF4F3
:10175800F3AE636B4FF0B041D1F8902022F44072A1
:101768001343C1F89030E7E60022ECE702F04AFEA6
:1017780006464FF0B043D3F8903013F0020FE5D18E
:1017880002F040FE801B41F288339842F1D90325CC
:10179800DCE7CB6843F08073CB607AE7CB6843F42F
:1017A8008033CB609BE700BF0004005890F82C30D2
:1017B800012B32D0012380F82C30022380F82D3001
:1017C800174BCA225A6253225A62B1F5807F17D04A
:1017D800134BDA6C22F00042DA649A6922F4085258
:1017E8009A61036B23F0020303630D4BFF225A62D5
:1017F800012380F82D30002380F82C3018467047DC
:101808005A6C22F000425A649A6922F488529A610A
:10181800036B23F001030363E7E70220704700BF6F
:101828000028004038B504460D4B5D6D036B1D4024
:1018380015F0010F06D115F0020F09D1012384F824
:101848002D3038BD064B0122DA6503F0C5F8F2E702
:10185800034B0222DA65204600F0DEF9EEE700BF0E
:101868000028004010B50B4AD36863F0A003D3608A
:1018780002F0C8FD0446074BDB6813F0200F07D1C0
:1018880002F0C0FD001BB0F57A7FF4D9032000E018
:10189800002010BD0028004070B5114BDB6813F024
:1018A800400F02D00024204670BD06460C4AD3687B
:1018B80043F08003D36002F0A5FD05460024084BE1
:1018C800DB6813F0400FEED1032CECD002F09AFD48
:1018D800431BB3F57A7FF2D9032486F82D40EEE74F
:1018E8000028004010B50446104BDA6822F0800248
:1018F800DA609B6913F0200F06D1FFF7B3FF98B1A8
:10190800032084F82D000FE0084A936923F0200390
:101918009361FFF7A7FF10B1032084F82D00034A55
:10192800936943F02003936110BD00BF0028004075
:1019380000284AD038B5044690F82D309BB10223D0
:1019480084F82D30224BCA225A6253225A6220460A
:10195800FFF7A2FF60B11E4BFF225A6210B90123A4
:1019680084F82D3038BD80F82C30FEF7CDFEE6E740
:10197800174B9A6922F08E6222F040029A619969A7
:10198800626820690243A06902430A439A61E268D7
:10199800A16842EA01421A61DA6822F4F852616ADF
:1019A800A06A01430A43DA602046FFF79BFF00283C
:1019B800D1D107498B6923F06043226AE5692A433C
:1019C80065692A4313438B61C5E70120704700BF4F
:1019D800002800400023092803D901330A38C0B27F
:1019E800F9E71B01DBB218437047000090F82C3070
:1019F800012B00F0AA802DE9F04105460C46012391
:101A080080F82C30022380F82D30514BDF6807F422
:101A18004077B7F5807F3DD012BB9B6913F0400F2C
:101A280001D10023CB70266A2078FFF7D3FF4FEA55
:101A380000486078FFF7CEFF48EA0028A078FFF753
:101A4800C9FF48EA0008E07848EA805894F824007A
:101A5800FFF7C0FF48EA00603043636918431AE0A3
:101A68003B4B9B6913F0400F01D10023CB702378C7
:101A78006078000240EA0340A3781843E37840EA1C
:101A8800835094F8243040EA0360236A184363695A
:101A9800184300E000202E4BCA225A6253225A6291
:101AA800A36AB3F5807F2AD0294B9A6922F4085299
:101AB8009A610222DA65B7F5807F40D0244B98649A
:101AC800A269DA646268224B5A672A6B42F0020202
:101AD8002A639A6942F408529A611E4AD2F8803001
:101AE80043F40033C2F88030194BFF225A620123B5
:101AF80085F82D30002085F82C00BDE8F081144BC6
:101B08009A6922F488529A610122DA65B7F5807FD2
:101B18000FD00F4B1864A2695A6462680C4B1A679D
:101B28002A6B42F001022A639A6942F488529A6148
:101B3800D3E7A369E2691343054A5364EDE7A36950
:101B4800E2691343024AD364BCE70220704700BF2E
:101B5800002800400008005890F82C30012B17D0BE
:101B6800012180F82C10022380F82D30094BCA225D
:101B78005A6253225A629A6942F020029A61FF22FD
:101B88005A6280F82D10002380F82C3018467047D0
:101B9800022070470028004090F82C30012B20D0FC
:101BA80010B4012180F82C10022380F82D300E4B40
:101BB800CA225A6253225A629A6942F080029A6192
:101BC8000A4CD4F8802042F48022C4F88020FF22F6
:101BD8005A6280F82D10002380F82C30184610BC6B
:101BE80070470220704700BF0028004000080058D6
:101BF80010B50446074B5B6D13F0400F03D101236A
:101C080084F82D3010BD034B4022DA6502F0E8FE5F
:101C1800F5E700BF002800407047890001F18041C6
:101C280001F531410A607047890001F1804101F5F1
:101C38003141086870470000074B1A6822F04002DB
:101C48001A6040F4417018604FF4B8525A601A682C
:101C580042F040021A6070470000015830B583B066
:101C680000284ED004468379002B3BD00223A37171
:101C78004FF0B042D2F8943023F40043C2F89430C5
:101C8800214B1B68C3EBC303C3F34C43642202FB21
:101C980003F30193019B4BB3019B013B01934FF06D
:101CA800B043D3F8943013F4804FF3D10025174B89
:101CB800D3F8902042F40042C3F890201449D1F898
:101CC800902042F48052C1F890209A6842F4006251
:101CD8009A604FF400629A615DB10123A3712846AE
:101CE80003B030BD4371FEF759FDBFE70125A5607C
:101CF800DDE72068FFF7A0FF012323710023A3601D
:101D0800EBE70125EBE700BF500000200004005876
:101D18000008005882B002461A4B1B68C3EBC30385
:101D2800C3F34C43642000FB03F30193019B4BB1C5
:101D3800019B013B0193144B9B6813F0020FF5D0F4
:101D4800002001E001209060104B19700D4B1B68BA
:101D5800C3EBC303C3F34C43642101FB03F30193B7
:101D6800019B43B1019B013B0193074B9B6813F017
:101D7800010FF5D001E001209060034BDB6802B051
:101D8800704700BF50000020000001580C000158A7
:101D980010B483B002461C4B1B68C3EBC303C3F3E8
:101DA8004C43642000FB03F30193019B4BB1019B5F
:101DB800013B0193154B9B6813F0020FF5D00020EF
:101DC80001E001209060124BFF241C700E4B1B6831
:101DD800C3EBC303C3F34C43642404FB03F3019331
:101DE800019B43B1019B013B0193084B9B6813F096
:101DF800010FF5D001E001209060044BDB680B7007
:101E080003B010BC704700BF50000020000001580C
:101E18000C00015882B0134B1B6803EB4303C3F358
:101E28004B43642202FB03F3019306E00223836021
:101E3800012002B07047134212D00B4B5B6913F0BC
:101E4800040300D00123019A002AEFD0019A013A35
:101E58000192054A526912F00202ECD00122EAE727
:101E68000020E6E7500000200004005838B504467A
:101E78000379012B03D02046FFF7CCFF38BD084D6E
:101E8800D5F8903023F40043C5F89030012002F0D3
:101E9800BDFAD5F8903043F40043C5F89030EAE72E
:101EA800000400582DE9F041054680795FFA80F872
:101EB800B8F1010F3ED10C4617461E466B79012B2F
:101EC8003BD001236B710223AB712846FFF7CEFF8D
:101ED8001B4AD2F8903023F40043C2F890300D2109
:101EE8002846FFF717FF210A2846FFF713FFE1B23C
:101EF8002846FFF70FFF002405E0395D2846FFF765
:101F080009FF0134A4B2B442F7D30D4AD2F8903095
:101F180043F40043C2F890302846FFF77BFFAB68D4
:101F28000BB94FF000080123AB7100236B714046D9
:101F3800BDE8F0814FF00208F9E74FF00208F6E734
:101F4800000400582DE9F041064680795FFA80F8D0
:101F5800B8F1010F41D10C4615461F467379012B84
:101F68003ED0012373713046FFF780FF1E4AD2F836
:101F7800903023F40043C2F890301D213046FFF71B
:101F8800C9FE210A3046FFF7C5FEE1B23046FFF729
:101F9800C1FE00213046FFF7BDFE002406E02946B9
:101FA8003046FFF7F5FE01350134A4B2BC42F6D342
:101FB8000D4AD2F8903043F40043C2F890303046CE
:101FC800FFF728FFB3680BB94FF000080123B3717E
:101FD800002373714046BDE8F0814FF00208F9E72D
:101FE8004FF00208F6E700BF000400582DE9F84357
:101FF800054680795FFA80F9B9F1010F43D1884627
:1020080017461E466B79012B40D001236B71284679
:10201800FFF72CFFB8F1840F05D0B8F1940F02D068
:1020280000232B7101E001232B711A4AD2F890305A
:1020380023F40043C2F8903041462846FFF76AFE71
:10204800002405E0395D2846FFF764FE0134A4B298
:10205800B442F7D30F4AD2F8903043F40043C2F8A1
:102068009030B8F1840F0AD1AB680BB94FF0000972
:102078000123AB7100236B714846BDE8F8832846FD
:10208800FFF7C8FEF0E74FF00209F5E74FF0020945
:10209800F2E700BF000400582DE9F04106468079B8
:1020A8005FFA80F8B8F1010F39D10C4615461F4682
:1020B8007379012B36D0012373713046FFF7D6FEB2
:1020C8001A4AD2F8903023F40043C2F890302146DF
:1020D8003046FFF71FFE00213046FFF71BFE0024A5
:1020E80006E029463046FFF753FE01350134A4B215
:1020F800BC42F6D30D4AD2F8903043F40043C2F8FC
:1021080090303046FFF786FEB3680BB94FF00008F1
:102118000123B371002373714046BDE8F0814FF08D
:102128000208F9E74FF00208F6E700BF000400587C
:1021380030B583B005460023ADF80430022301AA68
:102148001221FFF7A9FF9DF804409DF8053043EAE6
:10215800042413F0010F26D114F0020F27D114F034
:10216800040F28D114F0080F29D114F0100F2AD128
:1021780014F0200F2BD114F0400F2CD114F0800F45
:1021880006D014F4807F2AD00121284602F064F892
:1021980014F4007F28D1022301AA19462846FFF724
:1021A80025FF03B030BD284602F03EF8D4E72846A4
:1021B80002F042F8D3E7284602F072F8D2E7284640
:1021C80002F076F8D1E7284602F07AF8D0E72846F8
:1021D80002F05EF8CFE7284602F036F8CEE7002195
:1021E800284602F039F8D3E7284602F047F8D2E744
:1021F8002DE9F041054680795FFA80F8B8F1010FC2
:1022080038D10C4617461E466B79012B35D0012371
:102218006B712846FFF72AFE194AD2F8903023F44A
:102228000043C2F890300E212846FFF773FD21467F
:102238002846FFF76FFD002405E0395D2846FFF7C3
:1022480069FD0134A4B2B442F7D30D4AD2F89030F4
:1022580043F40043C2F890302846FFF7DBFDAB6833
:102268000BB94FF000080123AB7100236B71404696
:10227800BDE8F0814FF00208F9E74FF00208F6E7F1
:10228800000400582DE9F041064680795FFA80F88D
:10229800B8F1010F3DD10C4615461F467379012B45
:1022A8003AD0012373713046FFF7E0FD1C4AD2F89B
:1022B800903023F40043C2F890301E213046FFF7D7
:1022C80029FD21463046FFF725FD00213046FFF75E
:1022D80021FD002406E029463046FFF759FD013567
:1022E8000134A4B2BC42F6D30D4AD2F8903043F47C
:1022F8000043C2F890303046FFF78CFDB3680BB945
:102308004FF000080123B371002373714046BDE804
:10231800F0814FF00208F9E74FF00208F6E700BF36
:1023280000040058A0B110B404460023152B0ED8A1
:102338001946084A52F83320A24202D80133DBB2C8
:10234800F4E7044B03EBC103187910BC7047FEE7B0
:102358001F207047A44E0008012070470A2807D89C
:10236800DFE800F0200B11171A1C1E06080E1400D7
:102378000020704742F6B100704743F60950704795
:1023880045F26110704747F6122070474AF2C320A1
:1023980070474FF22440704704487047044870471C
:1023A8000448704741F68460704700BF48E8010060
:1023B80090D0030020A107009DF80410D20053B963
:1023C80008200244183241B102239DF80000184445
:1023D80002EBC00070470020F3E70023F5E7F0B4F4
:1023E8009DF810609DF8184004324D1F012D2DD91D
:1023F80018B9A1F10B05012D30D901282AD00027E1
:102408009DF81450ED006CB3102425448800A5EB0A
:1024180081054EB300242C44062903D908340FB192
:10242800881E8000002C21DB0444013C94FBF0F45E
:1024380002FB043303F10C00062901D803F10E0056
:102448008000013002398840F0BC70470B2BCFD890
:102458000C23CDE70C2903D00027D1E70127CFE7CC
:102468000127CDE70024D0E71424D4E70024DBE7D4
:10247800F0B585B00E4615461946BDF828209DF8DA
:102488002C309DF830709DF834C048B1012812D026
:102498000125002460190138B0FBF5F005B0F0BD46
:1024A800CDF804C000972846FFF786FF4FF47A74EA
:1024B80004FB00F4EEE7CDF808C00197009313463B
:1024C8000A4629463046FFF78AFF4FF47A7404FB20
:1024D80000F4034B985DFFF741FF0546DAE700BFBC
:1024E800A04E000808B5034B1B6813B15B6803B125
:1024F800984708BD0401002008B5034B1B6813B1B9
:10250800DB6803B1984708BD04010020F0B500233B
:1025180016469A4206DDCC5CE443CC540024C454ED
:102528000133F5E700231F4613E003F1070C21E010
:102538005FFA8CFC11F80CC04CFA05F505F00105A2
:102548006F40CEF3C70507FA04FC445D44EA0C0467
:102558004455B3EBC60F23DA5D4203F0070405F0D8
:10256800070558BF6C42E5B2C5F10705EDB29C46B8
:10257800002BDADB4FEAEC0C0133D3F1000E03F049
:1025880007040EF0070E58BFCEF10004E4B2C4F100
:102598000704E4B29E46002BCADA03F1070EC7E728
:1025A800BB0143EAC7135BB21FB920210B43835415
:1025B800F0BD0021FAE7000008B5012804D00A4B55
:1025C8005B7D012B08D008BD084B19700648C17700
:1025D8000E3001F005FDF6E7044B197002488175CD
:1025E8000E3001F0FDFCEEE7540300205C000020F3
:1025F80008B501F0A5FB08BD08B501F0A1FA08BDB2
:1026080008B501F0F5FD012101F0DEFD01F0FEF84D
:1026180008BD000008B50121074B93F8560001F0EA
:10262800D3FD2D214FF4D760FFF7E6FF01F0F8F84E
:10263800024801F07DF808BD54030020FFFF0F0099
:1026480038B504460D4600231A464FF6FF71084672
:1026580001F0A2F90021054B93F8560001F0B4FDF2
:102668002946204601F09CF838BD00BF54030020DD
:1026780038B5044600231A464FF6FF71084601F0A4
:102688008BF964B90D4C002194F8560001F09CFDBB
:1026980063786BB16FF07F4001F062FA38BD084D86
:1026A8002146284602F0D6FA284602F075FAE9E7EC
:1026B800024B9868800101F053FAEFE754030020B9
:1026C800C403002008B5002001F016F808BD00007A
:1026D80010B582B0654BB3F85430402B00F08580BC
:1026E80021D8022B3ED0202B0ED1614802F0F2F9FE
:1026F8005E4B5B78002B00F0B5805E4B1B6803B324
:10270800DB68F3B198471CE0012B1AD15A4802F054
:10271800E1F9002000F0F0FF564B1B688BB11B68F5
:102728007BB198470DE0B3F5807F6ED0B3F5007F9D
:1027380009D100F0DBFF042874D000F0D7FF05288A
:102748007FD002B010BD802BFBD1002000F0D4FF59
:10275800484B1B68002BF4D09B69002BF1D000205C
:102768009847EEE7424802F0B5F9404B5B78F3B181
:10277800FF220DF10701414801F00CFD404801F02E
:102788009FF93C4B1B68002BDBD09C68002CD8D0F1
:10279800364B93F82430012B1DD0344A92F92C3053
:1027A80092F929209DF807103448A047C9E700206E
:1027B80000F0A2FF002140F6021001F0C1F940F636
:1027C800441001F0BDFA40F00201C9B240F64410CD
:1027D80001F0B6F9CCE7254A92F9313092F9302068
:1027E8009DF807102548A047ABE7204B5B7843B11D
:1027F800204B1B68002BA4D01B69002BA1D0984745
:102808009FE7002000F078FFF2E7002000F074FF57
:10281800184B1B68002B94D09B69002B91D001208A
:1028280098478EE7144802F055F9002000F064FF3D
:10283800104B1B68002B84D05B68002B81D0984715
:102848007FE70B4802F046F9002000F055FF094BDE
:102858001B68002B3FF475AFDB68002B3FF471AFAA
:1028680098476EE7002000F047FF46E75403002032
:10287800C403002004010020AC030020080100204C
:102888007803002008B5034BA3F85400FFF720FF96
:1028980008BD00BF5403002008B500F027FF052835
:1028A80007D0072807D0042801D0002008BD02203F
:1028B800FCE70120FAE70320F8E708B501F0AFFCD0
:1028C800033008BD08B501F001FC08BD08B501F0EA
:1028D8004BFB08BD08B501F0E1F800B208BD0000E7
:1028E80038B50D464FF47A7404FB02F401F090F801
:1028F800284601F07DFC012101F066FC00F086FF0E
:10290800044D2146284602F0A5F9284602F044F96C
:1029180038BD00BFAC03002008B501F079F808BD48
:1029280008B500231A464FF4C071084601F034F880
:1029380000F05CFF08BD000038B5044600231A46C5
:102948004FF6FF71084601F027F864B90D4C0021D5
:1029580094F8560001F038FC63786BB16FF07F4053
:1029680000F002FF38BD084D2146284602F072F9F2
:10297800284602F011F9E9E7024B9868800100F057
:10298800F3FEEFE754030020C403002008B54FF01E
:10299800040001F031FA022002F00CF808BD000032
:1029A80070B58AB006460C4600231A4640F201214B
:1029B800084600F0F1FF424D012195F8560001F05C
:1029C80003FC2B78032B0DD8DFE803F01702222F26
:1029D8003B48C4770E3001F003FB00222146304605
:1029E80001F0C5FB374C364B5968204602F032F9E6
:1029F800204602F0D1F80AB070BD314884750E3017
:102A080001F0EEFA00222146304601F0B0FBE9E77A
:102A18002B480223837384760E3001F0E1FA0022FA
:102A28002146304601F0A3FBDCE7002101911F227B
:102A380002A802F0BDF92246314601A8FFF766FD5B
:102A48001F4E0223B373651CEDB2B57606F10E0076
:102A580001F0C6FAB36C642B21D00021F120FFF7F6
:102A6800CBFD0021F020FFF7C7FDE121F320FFF7A0
:102A7800C3FD0421F220FFF7BFFDE1008C1C090A09
:102A8800F420FFF7B9FD04F0FE01F520FFF7B4FDCF
:102A98006FF07F42294601A801F069FBA2E70021F7
:102AA800F120FFF7A9FD0021F020FFF7A5FD702117
:102AB800F320FFF7A1FD1D21F220FFF79DFDDCE7C4
:102AC80054030020AC03002008B5114B18700328EC
:102AD80016D0042818D0012806D0002001F086F866
:102AE8000B4B00225A7308BD012001F07FF8084BF8
:102AF8005A7B187B8242F6D0587300F01FFAF2E72F
:102B0800022001F073F8EEE7002001F06FF8EAE721
:102B1800540300202DE9F04182B00C4616461D46AC
:102B2800002300930193012860D0022800F0D08090
:102B380050B1304601F05CFB764B83F856005D607F
:102B4800002002B0BDE8F0818B68002B00F0D58032
:102B58000B69002B00F0D480087D082800F2D38090
:102B6800002106E0A3695A5C02AB0B4403F8082C69
:102B780001318842F6DC674F4FF0000887F838804B
:102B8800A368FB63237887F844306068FFF7CAFBC3
:102B980087F84500E3683B6487F80E802369DB000B
:102BA8003B820423BB74237DDB00FB7487F814800D
:102BB800A37F7B75E37FFB7594F822303B76FFF7A4
:102BC80081FD4046FFF780FF07F1380001F02AF841
:102BD80007F10E0001F004FA684601F0CFF9A08B66
:102BE80001F030F9208C01F0E6F9A2E7494B012207
:102BF80083F8382091F8242083F8502091F8252074
:102C080083F8512091F8262083F8522091F8273034
:102C1800012B3DD0022B40D0ABB394F82730003BBA
:102C280018BF01233B4F87F853304FF0010887F84E
:102C38000E80238DBB8394F82A30BB7794F82B3011
:102C480087F8203094F82C3087F82130FFF73AFDC8
:102C58004046FFF739FF07F1380000F0E3FF07F1BE
:102C68000E0001F0BDF997F85130062B25D040F63B
:102C7800890001F065F840F00401C9B240F6890006
:102C880000F05EFF55E7234B002283F85320C4E78A
:102C9800204B012283F85320BFE791F824300B3BE7
:102CA800DBB2012B04D91B4B002283F85320B4E775
:102CB800184B012283F85320AFE740F6890001F052
:102CC8003FF800F0FB0140F6890000F039FF30E7DB
:102CD8008B68013BB3F57A7F18D20220FFF7F4FE28
:102CE8000C48022380F83830236B8364162380F85D
:102CF8004C30383000F096FF1BE74FF0FF3020E7EC
:102D08004FF0FF301DE74FF0FF301AE74FF0FF306C
:102D180017E700BF540300202DE9F04182B00C46AC
:102D28001E46002300930193134602B10026003B80
:102D380018BF0123804A537028B101286DD00020A4
:102D480002B0BDE8F081E368002B00F0E980236958
:102D5800002B00F0E880637D082B00F2E78000225A
:102D680006E0A169885C02A9114401F8080C013247
:102D78009342F6DC94F8233013B994F81C8001E0F0
:102D88004FF0FF082068003818BF012000F052FDFE
:102D9800694D002785F83870E368EB63237985F877
:102DA8004430A068FFF7BEFA85F84500AF73236981
:102DB800DB002B82237DAB74637DDB00EB7494F81E
:102DC80022302B7594F823306B7585F8168094F8AB
:102DD8002430EB7594F828302B76FFF773FC3846CF
:102DE800FFF772FE05F1380000F01CFF05F10E0038
:102DF80001F0F6F8684601F0C1F8208C01F022F8DD
:102E0800E08C01F0D8F84FF4FA5303FB06F6E368B8
:102E1800B6FBF3F6AE60384692E7A38E002B00F0BF
:102E2800888094F83630012B53D0FF27E06A0038A9
:102E380018BF012000F0FEFCF0B200F0B3FE3E4BDC
:102E4800012283F8382094F8302083F8502094F831
:102E5800312083F8512094F8322083F8522094F8D6
:102E68003330012B3CD0022B3FD0A3B3324D012687
:102E7800AE73A38EAB8394F83630AB77EF7794F8C4
:102E8800383085F8203094F8393085F82130FFF74C
:102E980019FC3046FFF718FE05F1380000F0C2FEB5
:102EA80005F10E0001F09CF895F82130B3422CD0C2
:102EB80040F2367000F044FF40F00401C9B240F21D
:102EC800367000F03DFE1C4B4FF6FF729A600020F2
:102ED80036E7277FAAE7184B002283F85320C5E777
:102EE800154B012283F85320C0E794F830300B3B90
:102EF800DBB2012B04D9104B002283F85320B5E72D
:102F08000D4B012283F85320B0E740F2367000F0F1
:102F180017FF00F0FB0140F2367000F011FED2E717
:102F28004FF0FF300CE74FF0FF3009E74FF0FF306C
:102F380006E74FF0FF3003E75403002010B50446BE
:102F48000E4B187358730120FFF7BEFD54B134219E
:102F58004FF4E86000F0F4FD442140F2417000F0C5
:102F6800EFFD10BD14214FF4E86000F0E9FD2421C5
:102F780040F2417000F0E4FDF3E700BF5403002085
:102F88002DE9F04F83B004460D46BDF838809DF812
:102F98003C909DF840A001287CD0164603281ED0FE
:102FA80068B3012C05D16B4B93F85130062B00F018
:102FB800C68040F6890000F0C3FE40F00401C9B2A3
:102FC80040F6890000F0BCFD284601F011F9614B7C
:102FD80083F85600149A5A6003B0BDE8F08F0320B6
:102FE800FFF772FD5B48022380F838300C9B83643E
:102FF800162380F84C30383000F014FED1E7554FD6
:103008004FF0000B87F838B00C9AFA630B2287F858
:1030180044201846FFF786F987F845003E6487F88C
:103028000EB04FEAC808A7F810800423BB74182311
:10303800FB7487F814B089F0010987F81590BAF184
:10304800000F23D0F222FA75424E01233376FFF7A0
:1030580039FB374617F8380F003818BF0120FFF73B
:1030680033FD384600F0DEFD06F10E0000F0B8FF33
:10307800394A6B4692E8030083E80300184600F0DB
:103088007DFF40F2FF1000F0DDFE8AE7314B0122A0
:10309800DA75D9E72F49012281F838200C9AD2B283
:1030A80081F850202D48C05C81F851009DF834000B
:1030B80081F852001BB90C990B39012930D9012B21
:1030C8002BD0244B002183F85310224B01219973F4
:1030D800053AD2B28A4228D91E4BA3F81C801D4E4D
:1030E80086F81E901E4B1B78F37786F820A09DF873
:1030F8004C3086F82130FFF7E5FA374617F8380FD5
:10310800003818BF0120FFF7DFFC384600F08AFDC1
:1031180006F10E0000F064FF43E70C9B0C2BD0D1A6
:103128000C4B012183F85310CFE7B8F10B0F02D8ED
:103138000C229A83D3E7074BA3F81C80CFE740F60D
:10314800890000F0FDFD00F0FB0140F6890000F069
:10315800F7FC39E754030020FC4D0008A04E000896
:103168005C0000202DE9F04F85B00E4615461C4640
:10317800BDF83C80BDF840909DF844709DF84CA087
:103188009DF85C30AC4A53700BB14FF000096FB139
:103198009DF84820A94B1A70012800F0D680042811
:1031A80008D000287CD005B0BDE8F08FA34BFF22E3
:1031B8001A70F1E7012000F03DFB9F4C002784F8CE
:1031C8003870E563092384F844304FF44873236466
:1031D8003046FFF7A7F884F84500A7734FEAC808F8
:1031E800A4F81080A7741023E37427756775934BB0
:1031F8001B78A3750123E37527760420FFF764FC89
:1032080004F1380000F00EFD04F10E0000F0E8FEB5
:103218006B468B4A92E8030083E80300184600F0E7
:10322800ADFE40F2FF1000F00DFE40F6B800FFF7CB
:10323800DFF900F0EF0140F6B800FFF7DDF90421EF
:1032480040F6B900FFF7D8F940F69B00FFF7D0F930
:1032580000F0E30141F0080140F69B00FFF7CCF9CC
:1032680040F2D160FFF7C4F900F0E70141F018011E
:1032780040F2D160FFF7C0F940F2AC60FFF7B8F94F
:1032880000F08F0141F0500140F2AC60FFF7B4F953
:103298004FF4FA5303FB09F9B9FBF5F5A56082E78A
:1032A800002000F0C7FA644C4FF0000B84F838B0E7
:1032B800E5630B2384F844303046FFF733F884F88D
:1032C800450084F80EB04FEAC808A4F8108004231B
:1032D800A3741823E37484F814B087F001076775A2
:1032E800564B1B78A375BAF1000F2AD0F222E2756B
:1032F800514C01232376FFF7E5F9264616F8380FD7
:10330800003818BF0120FFF7DFFB304600F08AFCC9
:1033180004F10E0000F064FE4A4A02AB92E8030092
:1033280083E80300184600F029FE40F2FF1000F081
:1033380089FD4FF4FA5303FB09F9B9FBF5F5A560CC
:1033480031E73D4B0122DA75D2E7002000F072FA2E
:10335800394A012382F83830EBB282F850303A49C2
:10336800895D82F8511082F852401EB9A5F10B020E
:10337800012A45D9012E41D02F4A002182F8531045
:103388002D4A01219173053BDBB28B423DD92A4B73
:10339800A3F81C80284CA777284B1B78E37784F880
:1033A80020A09DF8583084F82130FFF78BF9254686
:1033B80015F8380F003818BF0120FFF785FB28469D
:1033C80000F030FC04F10E0000F00AFE5FFA89F00C
:1033D80000F0E8FB94F82130012B21D040F2367040
:1033E80000F0AEFC40F00401C9B240F2367000F0C3
:1033F800A7FB114B4FF6FF729A60D4E60C2DBBD198
:103408000D4A012182F85310BAE7B8F10B0F03D81F
:1034180013460C229A83BDE7074BA3F81C80B9E733
:1034280040F2367000F08CFC00F0FB0140F2367080
:1034380000F086FBDDE700BF540300205C0000209D
:10344800044E0008FC4D0008A04E000808B50120F5
:10345800FFF73AFB00231A461946184600F09CFA73
:1034680000F03EFE08BDF0B58BB004460F46164688
:103478001D46FFF727F90020FFF726FB2046FFF738
:103488004BFA0123099300240894079406940594A1
:1034980004940394029403230193009723464FF462
:1034A800167239462046FFF75DFE2046FFF744FABC
:1034B800FFF703FA01F07EFA01F0CCFA0446204641
:1034C80001F0D2FAA84206D20020FFF703FAB04270
:1034D800F5DD002400E00124FFF7F4F820460BB0E6
:1034E800F0BD000070B582B01D4B18601D4B002464
:1034F8005C705C609C601C4800F046FC2046FFF74E
:103508001DFD00F0A7F92146204600F0B5FA042277
:103518002146012000F0B0FC234622464FF6FF71F9
:10352800084600F039FAFFF731FA104E0094104BB4
:1035380022464FF0FF31304601F06EFA0D4D0094EF
:103548000D4B22464FF0FF31284601F065FA304610
:1035580001F0C0FA284601F0BDFA02B070BD00BF04
:1035680004010020540300208D280008AC0300202B
:10357800ED240008C4030020012500082DE9F041CE
:1035880088B0002407944FF0B043DA6C42F002028E
:10359800DA64DA6C02F002020292029ADA6C42F001
:1035A8000102DA64DA6C02F001020192019ADA6C23
:1035B80042F00102DA64DB6C03F001030093009B24
:1035C8004FF4807703970125049505940323069308
:1035D80003A94FF09040FDF771F94FF40078CDF84A
:1035E8000C8003A94FF09040FDF768F903950D4E44
:1035F80003A93046FDF762F9224641464FF0904054
:10360800FDF719FA224639464FF09040FDF713FAB4
:10361800224629463046FDF70EFA204608B0BDE896
:10362800F08100BF0004004808B5032816D8DFE879
:1036380000F002172B3F002201212748FDF7FBF974
:1036480000224FF480714FF09040FDF7F4F900220A
:103658004FF400714FF09040FDF7EDF9002008BDE0
:10366800012211461C48FDF7E6F901224FF480714A
:103678004FF09040FDF7DFF900224FF400714FF052
:103688009040FDF7D8F9E9E7012211461248FDF705
:10369800D2F901224FF480714FF09040FDF7CBF939
:1036A80001224FF400714FF09040FDF7C4F9D5E7BF
:1036B800012211460848FDF7BEF900224FF4807137
:1036C8004FF09040FDF7B7F901224FF400714FF029
:1036D8009040FDF7B0F9C1E70004004800207047AA
:1036E8000A2070470020704700207047014B187867
:1036F800704700BF0E02002000B583B08DF80700A8
:1037080001230DF1070280210748FEF76FFC9DF8A1
:1037180007302BB9054B01221A7003B05DF804FB82
:10372800024B02221A70F8E7440300200E02002020
:1037380000B583B00A4B04221A70C0F307438DF812
:103748000430C0F307238DF805308DF806000323F5
:103758006A4483210348FEF749FC03B05DF804FB83
:103768000E0200204403002000B583B00A4B052256
:103778001A70C0F307438DF80430C0F307238DF89F
:1037880005308DF80600032301AA82210348FEF7BD
:103798002DFC03B05DF804FB0E020020440300205A
:1037A80000B583B0C0F307438DF80030C0F307239A
:1037B8008DF801308DF80200C1F307438DF803300E
:1037C800C1F307238DF804308DF8051006236A46E7
:1037D80094210448FEF70AFC034B06221A7003B032
:1037E8005DF804FB440300200E02002008B5002306
:1037F8001A46C5210348FEF7F9FB034B07221A7046
:1038080008BD00BF440300200E02002008B50023B5
:103818001A46D1210148FEF7E9FB08BD4403002000
:1038280008B500231A46D2210148FEF7DFFB08BD80
:103838004403002000B583B08DF8070001230DF183
:1038480007029F210248FEF7D1FB03B05DF804FB95
:103858004403002000B583B0FFF746FF01280CD0D1
:1038680000238DF8073001230DF107029621054842
:10387800FEF7BCFB03B05DF804FB01238DF80730AD
:10388800F1E700BF4403002000B583B0C0F3801205
:10389800C0F340135B0143EA8213C0F3001243EA0A
:1038A8000213C0F3C00243EAC203C0F3800243EA32
:1038B8008203C0F3400243EA420300F001001843C8
:1038C8008DF8070001230DF1070289210248FEF750
:1038D8008DFB03B05DF804FB4403002000B583B002
:1038E8001C4B98420ED9E1238DF80430E9238DF85A
:1038F8000530022301AA98211748FEF777FB03B089
:103908005DF804FB154B984206D9D7238DF804308F
:10391800DB238DF80530ECE7114B984206D9C1231B
:103928008DF80430C5238DF80530E2E70D4B984239
:1039380006D975238DF8043081238DF80530D8E732
:10394800094B9842D5D96B238DF804306F238DF835
:103958000530CEE700E9A4354403002080F8A932F9
:103968008044E52D000B6B1B40FC541900B583B057
:103978008DF804008DF805108DF806208DF80730B5
:1039880004230DEB030295210248FEF72FFB03B039
:103998005DF804FB4403002010B582B0040A8DF8DA
:1039A80000408DF80100080A8DF802008DF8031018
:1039B800110A8DF804108DF805201A0A8DF80620D2
:1039C8008DF8073008236A4619460248FEF70EFBB1
:1039D80002B010BD4403002000B583B000F007001A
:1039E8008DF80400C1F307438DF80530C1F30723B0
:1039F8008DF806308DF8071004230DEB030297218C
:103A08000248FEF7F3FA03B05DF804FB4403002014
:103A180010B582B00446124B1B78DBB1114A002363
:103A28006006E109FCF7AEFB030E8DF80430C0F325
:103A380007438DF80530C0F307238DF806308DF85D
:103A4800070004230DEB030286210748FEF7CEFA90
:103A580002B010BDFFF742FF014B01221A70DDE7EB
:103A68000C0200200048E80144030020014B1878AC
:103A7800704700BF0F02002000B583B08DF8040026
:103A88008DF80510022301AA8F210348FEF7AEFA2C
:103A980003B05DF804FB00BF4403002000B583B009
:103AA800012301AA15210548FEF7F6FA9DF804003E
:103AB8004042401003B05DF804FB00BF44030020FF
:103AC80010B582B00446032301AA14211A48FEF750
:103AD800E3FAFFF7CBFF207048B1012818D0142271
:103AE8000021204600F083FF0F2323700EE09DF88D
:103AF800043023719DF805305B425B10A3719DF87B
:103B080006305B425B1063710023A36002B010BDF6
:103B18009DF804305B425B1023739DF90530023336
:103B28009B1063739DF806305B425B10A373034BD5
:103B38001B682361EAE700BF440300200802002055
:103B480000B583B08DF8071001230DF10702014677
:103B58000248FEF7A7F903B05DF804FB4403002010
:103B680010B582B004460D4B05221A70972140F615
:103B7800AC00FFF7E5FFC4F307438DF80430C4F346
:103B880007238DF805308DF80640032301AA82210A
:103B98000348FEF72BFA02B010BD00BF0E0200204A
:103BA8004403002000B583B08DF8070001230DF110
:103BB8000702A0210C48FEF719FA9DF807303F2BA1
:103BC8000FD95B0800221F2B03D99B08511CCAB2CE
:103BD800F9E7D900C9B21144C9B240F20670FFF73B
:103BE800AFFF03B05DF804FB4403002000B583B0C9
:103BF8008DF80700094B187048B101230DF1070231
:103C08008A210748FEF7F2F903B05DF804FB0021AA
:103C180040F2AC60FFF794FFEFE700BF0F0200200F
:103C28004403002010B582B00446404B93E80300DB
:103C380002AB03E9030020783D4B1B78984206D17C
:103C48002378032B2DD8DFE803F005442E57FFF720
:103C5800CDFFF5E76268374BB3FBF2F31A0C8DF82A
:103C680000201A0A8DF801208DF80230237B8DF888
:103C78000330637B8DF80430A1682F4A002348067F
:103C8800C909FCF77FFA030C8DF80530030A8DF893
:103C980006308DF8070008236A468B212748FEF76F
:103CA800A5F902B010BD2269224BB3FBF2F31A0C3E
:103CB8008DF800201A0A8DF801208DF80230237D36
:103CC8008DF8033004236A468B211C48FEF78EF9D1
:103CD800E7E7237E8DF80030637E8DF80130A37E00
:103CE8008DF80230E37E8DF8033004236A468B2179
:103CF8001248FEF77BF9D4E762680E4BB3FBF2F388
:103D08001A0C8DF800201A0A8DF801208DF802305F
:103D1800237B8DF80330637B8DF8043005236A46D6
:103D28008B210648FEF762F9BBE700BF0C4E00087E
:103D38000F0200200000093D0048E801440300206C
:103D480000B583B0014601230DF107020348FEF7D1
:103D5800F9F89DF8070003B05DF804FB4403002060
:103D680010B50446FFF7C0FC012800D010BD40F68E
:103D78002310FFF7E5FF00F0F901214340F6231077
:103D8800FFF7DEFEF2E7000008B508B1174A106039
:103D98000220FFF7E5FFFCF7F5FC0020144B187034
:103DA800FFF7AAFCFFF79EFC01280FD01A2140F666
:103DB8001110FFF7C5FE1A2140F61210FFF7C0FEDA
:103DC800FFF7DCFB0B4B01221A7008BDFFF788FCDC
:103DD80081010120FFF700FE002140F61110FFF7D6
:103DE800AFFE4FF07F00FFF74FFDE9E7100200201C
:103DF8000C0200200E02002010B582B004460020FC
:103E0800FFF712FC0220FFF7ABFFC4F38000C4F3F6
:103E180040035B0043EA800304F0010018438DF877
:103E2800070001230DF1070284210448FEF7DEF89C
:103E3800034B00221A7002B010BD00BF44030020DB
:103E48000E02002010B50446FFF710FE00B110BDA9
:103E58004FF4D760FFF774FF00F0FE00C4F30021B1
:103E680001434FF4D760FFF76BFEE1B240F2B9604F
:103E7800FFF766FEEBE7000030B583B00C46154649
:103E8800012828D10F290DD001231A46002104202A
:103E9800FFF76CFD0D2C0CDC14F1110F0ADA6FF032
:103EA800100407E001231A4600210620FFF75EFDF3
:103EB800F0E70E24182140F6E700FFF741FE8DF8E1
:103EC80004408DF80550022301AA8E211248FEF7FE
:103ED8008DF803B030BD40F6D800FFF731FF40F051
:103EE8001E01C9B240F6D800FFF72AFE01230022BE
:103EF80007210420FFF73AFD162C05DC14F1090F01
:103F080003DA6FF0080400E01624382140F6E700D1
:103F1800FFF716FED3E700BF4403002030B583B097
:103F280005460C46022301AA13210D48FEF7B4F8F2
:103F3800FFF79CFD012807D09DF804302B709DF8F1
:103F48000530237003B030BD064B1B78DBB2012B64
:103F5800F2D140F20270FFF7F3FE2870EFE700BFDE
:103F6800440300200D02002008B513460A46014606
:103F78000148FDF797FF08BD4403002008B5014636
:103F880008224FF4D860FFF7EFFF002008BD00B506
:103F980083B0030A8DF804308DF80500FFF766FD3D
:103FA80010B103B05DF804FB022201A940F2BC6025
:103FB800FFF7DAFFF5E700B583B0030A8DF80430A0
:103FC8008DF80500FFF752FD10B103B05DF804FB52
:103FD800022201A940F2BE60FFF7C6FFF5E7000024
:103FE80010B584B0044601AB344A07CA03C31A703B
:103FF8002078334B1B78984206D12378032B2BD893
:10400800DFE803F005454005FFF7F0FDF5E7637AC3
:10401800F12B23D0F22B2BD06288110A8DF80410D3
:104028008DF8052022798DF8062062798DF8072011
:10403800A2798DF80820E2798DF80920227A8DF886
:104048000A208DF80B30A37A8DF80C30092301AAC9
:104058008C211C48FDF7CAFF04B010BD4FF6FF7055
:10406800FFF795FF48F20500FFF7A5FF0223D3E706
:1040780041F60F50FFF78BFF41F22100FFF79BFF3E
:104088000623C9E7237B8DF804300123DFE7E389A2
:104098001A0A8DF804208DF80530237C0A4A13701B
:1040A8008DF80630637C8DF80730A37C8DF80830D6
:1040B800E37C8DF809300623C9E700BF144E0008D9
:1040C8000F020020440300200D02002008B513460B
:1040D8000A4601460148FDF735FF08BD44030020A4
:1040E80070B582B00026019640F6E200FFF728FE80
:1040F800054600F0FE0140F6E200FFF721FD40F61C
:10410800E500FFF71DFE044600F07F0140F6E500DC
:10411800FFF716FD6FF07F40FFF726FB04220DEB3B
:10412800020140F61900FFF7D1FF3046FFF7E4FA25
:10413800294640F6E200FFF703FD214640F6E50078
:10414800FFF7FEFC019802B070BD000008B51346E9
:104158000A4601460148FEF74BF808BD4403002013
:1041680008B50A4601460020FFF7F0FF08BD10B564
:104178001446FFF7F5FF2046FFF7DAFA10BD0000F6
:1041880008B513460A4601460148FEF77BF808BD04
:104198004403002070B582B006460C46154600233D
:1041A8008DF807300DF107012046FFF7B7FE22789A
:1041B800AA4202D9012002B070BD31469DF807001D
:1041C800FFF7DEFF0020F6E710B5012903D0012034
:1041D800FFF72AFA10BD04460846012C03D0022C2A
:1041E800F6D10320F4E70420FFF7BAFD0220F6E732
:1041F80038B50446FFF772FA48B102280DD10225F6
:10420800022221462846FFF737FE284638BD0F2CE4
:1042180001DC0125F4E70225F2E70125F0E708B5FE
:10422800FFF75EFA08BD000008B5024B1B680120C5
:10423800984708BD1002002008B5024B1B680220F1
:10424800984708BD1002002008B5024B1B684020A3
:10425800984708BD1002002008B511B1012905D002
:1042680008BD054B1B6880209847F9E7024B1B687F
:104278004FF480709847F3E71002002008B5034B0D
:104288001B684FF40070984708BD00BF100200205B
:1042980008B5024B1B682020984708BD1002002073
:1042A80008B5024B1B680420984708BD100200207F
:1042B80008B5024B1B680820984708BD100200206B
:1042C80008B5024B1B681020984708BD1002002053
:1042D80008B5114B1B78012B0BD0022B11D003B161
:1042E80008BDFCF7EFF80028FAD10B4B02221A7030
:1042F800F6E7FCF7E7F80128F2D1074B00221A701D
:10430800EEE7FCF7DFF818B9034B01221A70E7E76C
:10431800014B00221A70E3E71402002010B582B0A6
:10432800064C00230093064B01221421204600F07E
:1043380073FB204600F030FC02B010BD18020020CC
:10434800D9420008014B1878704700BF14020020BA
:1043580000B59BB04822002108A800F029FD0023E1
:1043680002930393049305930693079317490A68E6
:1043780022F4C06242F480620A600A6802F4C062F1
:104388000192019A092208924FF4803209920F9300
:104398000A9301220E92139308A8FCF777FC08B140
:1043A80072B6FEE74F23029302230393002304937C
:1043B800059306930793012102A8FCF7A3FF08B110
:1043C80072B6FEE71BB05DF804FB00BF000400589E
:1043D80008B5FCF7FDF9FFF7BBFFFCF74DF800F057
:1043E8000FFBFCF78DF8FCF7EFF8FFF797FF00F0ED
:1043F80001F900210846FCF7CBF800F093F9FCE737
:104408000020704708B500F031FA08BD00B583B048
:104418000190019800F0CEFA03B05DF804FB7047F4
:10442800FEE7FEE7FEE7FEE770477047704708B50E
:10443800FCF7E4F908BD000008B50248FDF7D8FB11
:1044480008BD00BF0C03002008B50248FDF7EAF9D3
:1044580008BD00BF0C03002008B50248FDF768FE40
:1044680008BD00BF4403002008B5064B1B783BB9C4
:10447800044B01221A70044B9B6A03210348984796
:1044880008BD00BF68020020544F0008D04F000844
:104498007047000008B5044B5B6B00209847034B3E
:1044A80000221A7008BD00BF544F0008680200209F
:1044B80008B5024B5B6B0020984708BD544F0008B5
:1044C80008B5024B5B6B0020984708BD544F0008A5
:1044D80008B5024B5B6B0020984708BD544F000895
:1044E80008B5064B01221A70054B00221A7044F6D3
:1044F8002061044800F096FB08BD00BF6A02002056
:10450800300200203402002008B5114B1B78A3B9F3
:104518000F4B01221A700F4B9B6A0F4A11780F48F4
:1045280098470F4B1B781BB90E4B1B78092B05D9E5
:1045380044F620610C4800F075FB08BD0133094AB8
:10454800137040F6B831084800F06CFBF5E700BF7F
:1045580068020020544F0008E0000020600000209E
:104568006A020020850200203402002010B50446AB
:10457800002343541649FBF7FBFD50B1154920466B
:10458800FBF7F6FDE0B114492046FBF7F1FD38B121
:1045980015E0124B01221A700521114800F042FB68
:1045A8000024104B1C7044F620610F4800F03AFBC1
:1045B8004EF660210D4800F035FB0D4B1C7010BD08
:1045C800064B00221A700521054800F02BFBE7E78F
:1045D800D44F0008DC4F0008D04F000830020020FC
:1045E8008802002085020020340200206C0200208E
:1045F8006A0200202DE9F0438BB03B483B4B8360B7
:104608003B4B03613B4BC3603B4B03603B4B4360FD
:104618003B4B83613B4E3368984740F6B833089369
:1046280000240794069405940125049503944FF0FB
:104638000508CDF8088001954FF00B09CDF80090DA
:104648002346224616212846F769B8470995089453
:1046580007940694059504940394CDF80880CDF842
:10466800048000942B464A4621462846B769B84735
:104678000395062302930194CDF800802B464A4601
:1046880021462846776AB847736D8021284698479F
:10469800F3681D489847736B2046984700941B4B56
:1046A800224621461A4800F0B7F91A4E00941A4BD0
:1046B8002A464EF66021304600F0AEF9304600F04A
:1046C8006BFA164E0094164B2A4644F62061304683
:1046D80000F0A2F9304600F05FFA2046FFF714FF19
:1046E8000BB0BDE8F08300BF4C0200207545000800
:1046F800D9440008C94400089D440008B94400088A
:1047080099440008544F0008400ECF19714400081E
:10471800880200206C020020E944000834020020CE
:104728001145000808B5FBF7D4FE00BB00210120A5
:10473800FBF72EFF0120FBF799FF0220FBF7D2FEC3
:104748000020FBF781FF324B1B78012B28D0032078
:10475800FBF7C8FE0220FBF777FFFFF7F3FD38B33E
:10476800012839D02B4B1B78012B47D008BD0120DD
:10477800FBF7B8FE0120FBF767FF274B1B78012BDF
:1047880006D00220FBF7AEFE0020FBF75DFFDAE75C
:1047980000210220FBF7FCFE0020FBF767FFD2E7B1
:1047A80000210320FBF7F4FE0220FBF75FFFD4E7AC
:1047B8001A4B1B78002BD5D0184B00221A70184BB7
:1047C800184A92E8030018609980174B06221A705D
:1047D800104B01221A70C5E7104B1B78012BC1D072
:1047E80001230E4A13700E4A104903C91060117153
:1047F8000D4A05211170074A1370B3E70C4B1B785B
:10480800002BB3D10020034B1870FFF77DFEADE7F6
:1048180030020020840200206A0200206902002081
:1048280060000020DC4F0008E0000020D44F0008A2
:1048380068020020024B9868C043024B186070471A
:1048480000280040A4020020014B1868704700BFF0
:10485800A4020020034B9B68DB43034A1068181A24
:10486800704700BF00280040A4020020044B1B78BA
:104878001BB1044B9868C0437047034B18687047D6
:10488800A0020020002800405003002003207047A9
:1048980008B501464FF47A7200238002890DFBF7B0
:1048A80071FC08BD10B44201C30E121A63F1000373
:1048B800990041EA92719400221841F10003D8004E
:1048C80040EA5270D1008A0A42EA805010BC704710
:1048D80010B5074B0122DA65064C4FF4807120466B
:1048E800FCF764FF4FF0FF332363002010BD00BFC7
:1048F800002800400C03002008B5024602210248A7
:10490800FDF78BF908BD00BF0C03002038B50F4B2D
:104918001B780BB1002038BD0D4C4FF0FF352563D7
:10492800FBF7B6FEFFF7D4FF4FF480712046FCF783
:104938003DFF25632046FDF70FF90020FFF7DCFF58
:10494800FFF778FF014B01221A70E3E7A00200206D
:104958000C03002010B58CB004462C22002101A8BD
:1049680000F026FAFFF7B4FF0C4B1B682344002223
:104978000892DB43029306924FF0005307934FF4DB
:1049880080730B93012201A90548FDF72FF808B1A0
:1049980072B6FEE700200CB010BD00BFA4020020D4
:1049A8000C03002008B502210148FDF73DF908BDB8
:1049B8000C03002008B5FFF76BFF064B9A68D2433B
:1049C800044B9B68DB439B1A834201D200BFF7E785
:1049D80008BD00BF0028004008B500F055F908BD23
:1049E80008B5FFF7DFFF0130FFF786FF08BD531E4C
:1049F8009BB21AB100F8011B1A46F8E7704700008D
:104A080008B5034B00221A60024B1B68984708BD83
:104A1800A8020020E44F0008A8B1F8B517461E46C2
:104A2800044693B100250560094B5B6A0846984720
:104A3800606025726572A572E660069B2361E77265
:104A480065612846F8BD012070470120FAE700BFDC
:104A5800E44F000810B5034CE3699847A36A9847E8
:104A680010BD00BFE44F000870B50646054DEB6960
:104A7800984704466B6A30469847AB6A201A9847AD
:104A880070BD00BFE44F0008054B1B681BB1834293
:104A980003D05B69FAE7002070470120704700BF28
:104AA800A8020020F8B50446094E336A984705461F
:104AB800012323722768B669B0472844874202D287
:104AC800B04705442560024B9B6820689847F8BDAD
:104AD800E44F000868B310B50246EFF3108472B6CD
:104AE800154B196801238372E1B100234372884290
:104AF80006D00B46B3B1934211D019465B69F9E76A
:104B08000B72486920B10C4B1860FFF7CBFF09E026
:104B18000A4BDB689847084B00221A6002E05B6981
:104B280023B14B6184F31088002010BD00234B6132
:104B3800F8E70120704700BFA8020020E44F0008F2
:104B48000D4B1A685369516989B110B40468196822
:104B58008C4208D91A465B6951690029F6D150611F
:104B68000023436101E05061436110BC704750610C
:104B780000234361704700BFA802002008B5054B19
:104B88001B680BB100221A724361024B1860FFF7D1
:104B980089FF08BDA8020020F8B5002836D00446D1
:104BA800FFF772FF002834D1657A002D33D1EFF377
:104BB800108672B66768194B1B6A9847874200D3FC
:104BC800384620600023237201226272A372144BBC
:104BD8001B6883B1114B9B69984723681844206070
:104BE8000F4B1B681B6898420CD22046FFF7C6FF84
:104BF80086F310880BE0094B1B6998472046FFF79E
:104C0800BDFFF5E72046FFF79BFFF1E701252846A2
:104C1800F8BD0125FBE70125F9E700BFE44F0008CF
:104C2800A802002090B110B50446094B5B6A0846FB
:104C3800984760602046FFF727FF18B92046FFF71E
:104C4800ABFF10BD2046FFF745FFF7E7012070478F
:104C5800E44F000898B110B504460A4B5B6A084651
:104C6800984760602046FFF70FFF08B9002010BD85
:104C78002046FFF72FFF2046FFF78EFFF7E70120BA
:104C8800704700BFE44F000870B5EFF3108572B6A7
:104C98001E4C63699847064623699847841B1C4B3A
:104CA8001B6823B918E000221A605B69A3B11A686F
:104CB800A242F8D9311A0A441A60F6E7144B1C6864
:104CC80062691A60002323726372E3682069984757
:104CD8006389B3F5807F12D00D4B1B683BB11C680C
:104CE800002CEBD0094B9B6998478442E6D3084BCC
:104CF800186808B1037A33B185F3108870BD20466F
:104D0800FFF74AFFE8E7FFF7CDFEF5E7E44F0008B5
:104D1800A80200200D488546FBF758FD0C480D49B0
:104D28000D4A002302E0D458C4500433C4188C42FE
:104D3800F9D30A4A0A4C002301E013600432A24264
:104D4800FBD300F011F8FFF743FBFEE7004000201B
:104D580000000020E800002028500008E80000209B
:104D6800E0030020FEE7000070B50D4D0D4C641BFC
:104D7800A4100026A64209D10B4D0C4C00F020F8D7
:104D8800641BA4100026A64205D170BD55F8043B4B
:104D980098470136EEE755F8043B98470136F2E7A5
:104DA8001850000818500008185000081C50000837
:104DB80002440346934200D1704703F8011BF9E708
:104DC800F8B500BFF8BC08BC9E467047F8B500BFF0
:084DD800F8BC08BC9E467047C0
:104DE000120024003000000006000C00100000003B
:104DF000000000000100000002000000C194C1009A
:104E000000000000B22700000000000000000000C9
:104E10000000000000000000000000000000000092
:104E20000100000003000000050000000100000078
:104E300001000000060000000A0000002000000041
:104E40000200000004000000080000001000000044
:104E5000400000008000000000010000000200008F
:104E6000A0860100400D0300801A060000350C00EA
:104E700040420F0080841E0000093D0000127A00AD
:104E80000024F40000366E010048E801006CDC02EA
:104E90000000000000000000000000000000000012
:104EA00004050600C01200001F000000A816000044
:104EB00017000000841C00000F000000E425000023
:104EC0001E000000B42D000016000000083900008C
:104ED0000E0000002C4C00001D000000685B00006C
:104EE00015000000747200000D00000058980000CA
:104EF0001C00000034B7000014000000E8E40000CB
:104F00000C000000783101001B000000686E0100F9
:104F10001300000034CA01000B00000028620200E8
:104F20001A00000040DB0200120000003C93030066
:104F30000A000000C0C204001900000060B30500B0
:104F400011000000382007000900000020A1070020
:104F500000000000ED340008A1280008D12A000854
:104F6000212900086F340008553400086D3100080D
:104F7000892F00086123000879240008A929000866
:104F800095290008CD260008412900082929000894
:104F9000E9280008DD28000801260008F925000896
:104FA000D5280008CD280008C1250008452F000895
:104FB000C3280008D92600087926000849260008D9
:104FC0001D26000809260008212D00081D2B0008B9
:104FD00061636B006F70656E00000000636C6F733F
:104FE0006500000015490008000000005D49000848
:104FF000D94800083D480008514800085D480008AD
:10500000754800089548000899480008AD48000810
:08501000ACB1FF7F01000000BC
:085018005D010008000000002A
:08502000390100080000000046
:1050280000080000000000480010000000040048CC
:1050380004000000000400480004000000000048CC
:1050480004000000000000480200000000000048C2
:1050580001000000000000480001000000040048B2
:1050680080000000000400484000000000040048E0
:1050780000093D000100000010000000FF000000D2
:10508800636C6F7365000000000000000000000002
:105098000000000000000000000000000000000008
:1050A80000000000000000000000000000000000F8
:1050B80000000000000000000000000000000000E8
:1050C80000000000000000000000000000000000D8
:1050D80000000000000000000000000000000000C8
:1050E80000000000000000000000000000000000B8
:1050F80000000000000000000000000000000000A8
:08510800060000000000000099
:0400000508004D1D85
:00000001FF
